{"contracts/SafeRemotePurchase.sol":{"RemoteSafeTradingEcommersePlatformContract":{"abi":[{"inputs":[],"stateMutability":"nonpayable","type":"constructor"},{"inputs":[],"name":"InsufficientDeposit","type":"error"},{"inputs":[],"name":"InvalidState","type":"error"},{"inputs":[],"name":"OnlyBuyer","type":"error"},{"inputs":[],"name":"OnlySeller","type":"error"},{"inputs":[],"name":"PurchaseTransactionNoLongerExist","type":"error"},{"inputs":[],"name":"SellerCanNotBuyOwnProduct","type":"error"},{"inputs":[],"name":"ValueNotEven","type":"error"},{"anonymous":false,"inputs":[{"indexed":false,"internalType":"uint256","name":"purchaseID","type":"uint256"},{"indexed":false,"internalType":"address","name":"sellerAddress","type":"address"}],"name":"BuyerConfirmPurchase","type":"event"},{"anonymous":false,"inputs":[{"indexed":false,"internalType":"uint256","name":"purchaseID","type":"uint256"},{"indexed":false,"internalType":"address","name":"sellerAddress","type":"address"}],"name":"BuyerConfirmReceivingProduct","type":"event"},{"anonymous":false,"inputs":[{"indexed":true,"internalType":"uint256","name":"productId","type":"uint256"},{"indexed":true,"internalType":"address","name":"seller","type":"address"},{"indexed":false,"internalType":"string","name":"seller_name","type":"string"},{"indexed":false,"internalType":"string","name":"name","type":"string"},{"indexed":false,"internalType":"uint256","name":"price","type":"uint256"},{"indexed":false,"internalType":"string","name":"description","type":"string"},{"indexed":false,"internalType":"string","name":"image","type":"string"},{"indexed":false,"internalType":"string","name":"category","type":"string"}],"name":"ProductCreated","type":"event"},{"anonymous":false,"inputs":[{"indexed":true,"internalType":"uint256","name":"purchaseId","type":"uint256"},{"indexed":true,"internalType":"address","name":"buyer","type":"address"},{"indexed":true,"internalType":"address","name":"seller","type":"address"},{"indexed":false,"internalType":"uint256","name":"productId","type":"uint256"},{"indexed":false,"internalType":"uint256","name":"quantity","type":"uint256"},{"indexed":false,"internalType":"enum RemoteSafeTradingEcommersePlatformContract.State","name":"status","type":"uint8"}],"name":"PurchaseCreated","type":"event"},{"anonymous":false,"inputs":[{"indexed":false,"internalType":"uint256","name":"purchaseID","type":"uint256"},{"indexed":false,"internalType":"address","name":"buyerAddress","type":"address"}],"name":"SellerAcknowledgePurchase","type":"event"},{"inputs":[{"internalType":"uint256","name":"_purchase_id","type":"uint256"}],"name":"buyerConfirmPurchase","outputs":[],"stateMutability":"payable","type":"function"},{"inputs":[{"internalType":"uint256","name":"_purchase_id","type":"uint256"}],"name":"buyerConfirmReceivingProduct","outputs":[],"stateMutability":"nonpayable","type":"function"},{"inputs":[{"internalType":"uint256","name":"_purchase_id","type":"uint256"}],"name":"buyerDiscardInterestForProduct","outputs":[],"stateMutability":"nonpayable","type":"function"},{"inputs":[{"internalType":"uint256","name":"_productId","type":"uint256"},{"internalType":"uint256","name":"_quantity","type":"uint256"}],"name":"buyerIndicateInterestToBuyProduct","outputs":[],"stateMutability":"nonpayable","type":"function"},{"inputs":[{"internalType":"string","name":"_sellerName","type":"string"},{"internalType":"string","name":"_name","type":"string"},{"internalType":"uint256","name":"_priceInWei","type":"uint256"},{"internalType":"string","name":"_description","type":"string"},{"internalType":"string","name":"_image","type":"string"},{"internalType":"string","name":"_category","type":"string"}],"name":"createProduct","outputs":[],"stateMutability":"nonpayable","type":"function"},{"inputs":[{"internalType":"uint256","name":"_purchase_id","type":"uint256"}],"name":"getPurchaseByID","outputs":[{"components":[{"internalType":"uint256","name":"purchaseId","type":"uint256"},{"internalType":"address","name":"buyer","type":"address"},{"internalType":"address","name":"seller","type":"address"},{"internalType":"uint256","name":"productId","type":"uint256"},{"internalType":"uint256","name":"quantity","type":"uint256"},{"internalType":"enum RemoteSafeTradingEcommersePlatformContract.State","name":"status","type":"uint8"},{"internalType":"uint256","name":"requiredDepositBuyerInWei","type":"uint256"},{"internalType":"uint256","name":"requiredDepositSellerInWei","type":"uint256"}],"internalType":"struct RemoteSafeTradingEcommersePlatformContract.Purchase","name":"","type":"tuple"}],"stateMutability":"view","type":"function"},{"inputs":[{"internalType":"address","name":"buyerAddress","type":"address"}],"name":"getPurchaseTransactionBuyer","outputs":[{"components":[{"internalType":"uint256","name":"purchaseId","type":"uint256"},{"internalType":"address","name":"buyer","type":"address"},{"internalType":"address","name":"seller","type":"address"},{"internalType":"uint256","name":"productId","type":"uint256"},{"internalType":"uint256","name":"quantity","type":"uint256"},{"internalType":"enum RemoteSafeTradingEcommersePlatformContract.State","name":"status","type":"uint8"},{"internalType":"uint256","name":"requiredDepositBuyerInWei","type":"uint256"},{"internalType":"uint256","name":"requiredDepositSellerInWei","type":"uint256"}],"internalType":"struct RemoteSafeTradingEcommersePlatformContract.Purchase[]","name":"","type":"tuple[]"}],"stateMutability":"view","type":"function"},{"inputs":[{"internalType":"address","name":"sellerAddress","type":"address"}],"name":"getPurchaseTransactionSeller","outputs":[{"components":[{"internalType":"uint256","name":"purchaseId","type":"uint256"},{"internalType":"address","name":"buyer","type":"address"},{"internalType":"address","name":"seller","type":"address"},{"internalType":"uint256","name":"productId","type":"uint256"},{"internalType":"uint256","name":"quantity","type":"uint256"},{"internalType":"enum RemoteSafeTradingEcommersePlatformContract.State","name":"status","type":"uint8"},{"internalType":"uint256","name":"requiredDepositBuyerInWei","type":"uint256"},{"internalType":"uint256","name":"requiredDepositSellerInWei","type":"uint256"}],"internalType":"struct RemoteSafeTradingEcommersePlatformContract.Purchase[]","name":"","type":"tuple[]"}],"stateMutability":"view","type":"function"},{"inputs":[{"internalType":"address","name":"sellerAddress","type":"address"}],"name":"getTotalRevenueForSeller","outputs":[{"internalType":"uint256","name":"","type":"uint256"}],"stateMutability":"view","type":"function"},{"inputs":[{"internalType":"address","name":"buyerAddress","type":"address"}],"name":"getTotalSpendingForBuyer","outputs":[{"internalType":"uint256","name":"","type":"uint256"}],"stateMutability":"view","type":"function"},{"inputs":[],"name":"productCount","outputs":[{"internalType":"uint256","name":"","type":"uint256"}],"stateMutability":"view","type":"function"},{"inputs":[{"internalType":"uint256","name":"","type":"uint256"}],"name":"productListings","outputs":[{"internalType":"uint256","name":"productId","type":"uint256"},{"internalType":"address","name":"seller","type":"address"},{"internalType":"string","name":"sellerName","type":"string"},{"internalType":"string","name":"name","type":"string"},{"internalType":"uint256","name":"priceInWei","type":"uint256"},{"internalType":"string","name":"description","type":"string"},{"internalType":"string","name":"image","type":"string"},{"internalType":"string","name":"category","type":"string"}],"stateMutability":"view","type":"function"},{"inputs":[],"name":"purchaseCount","outputs":[{"internalType":"uint256","name":"","type":"uint256"}],"stateMutability":"view","type":"function"},{"inputs":[{"internalType":"uint256","name":"","type":"uint256"}],"name":"purchaseHistory","outputs":[{"internalType":"uint256","name":"purchaseId","type":"uint256"},{"internalType":"address","name":"buyer","type":"address"},{"internalType":"address","name":"seller","type":"address"},{"internalType":"uint256","name":"productId","type":"uint256"},{"internalType":"uint256","name":"quantity","type":"uint256"},{"internalType":"enum RemoteSafeTradingEcommersePlatformContract.State","name":"status","type":"uint8"},{"internalType":"uint256","name":"requiredDepositBuyerInWei","type":"uint256"},{"internalType":"uint256","name":"requiredDepositSellerInWei","type":"uint256"}],"stateMutability":"view","type":"function"},{"inputs":[],"name":"returnAllProducts","outputs":[{"components":[{"internalType":"uint256","name":"productId","type":"uint256"},{"internalType":"address","name":"seller","type":"address"},{"internalType":"string","name":"sellerName","type":"string"},{"internalType":"string","name":"name","type":"string"},{"internalType":"uint256","name":"priceInWei","type":"uint256"},{"internalType":"string","name":"description","type":"string"},{"internalType":"string","name":"image","type":"string"},{"internalType":"string","name":"category","type":"string"}],"internalType":"struct RemoteSafeTradingEcommersePlatformContract.Product[]","name":"","type":"tuple[]"}],"stateMutability":"view","type":"function"},{"inputs":[],"name":"returnAllProductsBelongToSeller","outputs":[{"components":[{"internalType":"uint256","name":"productId","type":"uint256"},{"internalType":"address","name":"seller","type":"address"},{"internalType":"string","name":"sellerName","type":"string"},{"internalType":"string","name":"name","type":"string"},{"internalType":"uint256","name":"priceInWei","type":"uint256"},{"internalType":"string","name":"description","type":"string"},{"internalType":"string","name":"image","type":"string"},{"internalType":"string","name":"category","type":"string"}],"internalType":"struct RemoteSafeTradingEcommersePlatformContract.Product[]","name":"","type":"tuple[]"}],"stateMutability":"view","type":"function"},{"inputs":[{"internalType":"uint256","name":"_purchase_id","type":"uint256"}],"name":"sellerAbortPurchaseAfterAcknowledge","outputs":[],"stateMutability":"nonpayable","type":"function"},{"inputs":[{"internalType":"uint256","name":"_purchase_id","type":"uint256"}],"name":"sellerAbortPurchaseBeforeAcknowledge","outputs":[],"stateMutability":"nonpayable","type":"function"},{"inputs":[{"internalType":"uint256","name":"_purchase_id","type":"uint256"}],"name":"sellerAcknowledgeBuyerInterest","outputs":[],"stateMutability":"payable","type":"function"},{"inputs":[{"internalType":"address","name":"","type":"address"},{"internalType":"uint256","name":"","type":"uint256"}],"name":"sellerListings","outputs":[{"internalType":"uint256","name":"productId","type":"uint256"},{"internalType":"address","name":"seller","type":"address"},{"internalType":"string","name":"sellerName","type":"string"},{"internalType":"string","name":"name","type":"string"},{"internalType":"uint256","name":"priceInWei","type":"uint256"},{"internalType":"string","name":"description","type":"string"},{"internalType":"string","name":"image","type":"string"},{"internalType":"string","name":"category","type":"string"}],"stateMutability":"view","type":"function"},{"inputs":[{"internalType":"uint256","name":"_purchase_id","type":"uint256"}],"name":"sellerReclaimDepositPlusProductPayment","outputs":[],"stateMutability":"nonpayable","type":"function"}],"evm":{"bytecode":{"linkReferences":{},"object":"608060405234801561001057600080fd5b50600280546001600160a01b03191633179055612b75806100326000396000f3fe60806040526004361061012a5760003560e01c80635dfe6f10116100ab5780638f71c2641161006f5780638f71c264146103a45780639d7c9e3e146103c45780639f259028146103d9578063c8dca31e146103f9578063cec96c381461040c578063e0f6ef871461042c57600080fd5b80635dfe6f1014610304578063616e7a5814610324578063744c05c3146103445780637c54a88614610364578063866abc551461038457600080fd5b806343180647116100f2578063431806471461026057806343bb5a451461027557806345fc6455146102a257806355c7d72c146102c25780635c1bedc4146102e457600080fd5b8063054564f01461012f57806306e41ded1461016c57806320af01fd1461019a5780632829fc53146101c75780632b85ed9c1461024a575b600080fd5b34801561013b57600080fd5b5061014f61014a36600461236a565b610442565b6040516101639897969594939291906123da565b60405180910390f35b34801561017857600080fd5b5061018c61018736600461246a565b610756565b604051908152602001610163565b3480156101a657600080fd5b506101ba6101b536600461248c565b61087a565b604051610163919061253f565b3480156101d357600080fd5b506102366101e236600461248c565b60056020819052600091825260409091208054600182015460028301546003840154600485015495850154600686015460079096015494966001600160a01b03948516969490931694919360ff9091169188565b604051610163989796959493929190612554565b34801561025657600080fd5b5061018c60015481565b61027361026e36600461248c565b610929565b005b34801561028157600080fd5b5061029561029036600461246a565b610a48565b60405161016391906125a4565b3480156102ae57600080fd5b506102736102bd3660046125f3565b610c25565b3480156102ce57600080fd5b506102d76111d5565b6040516101639190612615565b3480156102f057600080fd5b5061018c6102ff36600461246a565b611544565b34801561031057600080fd5b5061027361031f36600461248c565b611656565b34801561033057600080fd5b5061014f61033f36600461248c565b61170f565b34801561035057600080fd5b5061027361035f36600461248c565b611755565b34801561037057600080fd5b5061027361037f36600461248c565b611808565b34801561039057600080fd5b5061029561039f36600461246a565b611900565b3480156103b057600080fd5b506102736103bf36600461248c565b611ad3565b3480156103d057600080fd5b506102d7611ba0565b3480156103e557600080fd5b506102736103f436600461248c565b611efb565b61027361040736600461248c565b611f7f565b34801561041857600080fd5b506102736104273660046127bc565b61206b565b34801561043857600080fd5b5061018c60005481565b6004602052816000526040600020818154811061045e57600080fd5b60009182526020909120600890910201805460018201546002830180549295506001600160a01b0390911693509061049590612896565b80601f01602080910402602001604051908101604052809291908181526020018280546104c190612896565b801561050e5780601f106104e35761010080835404028352916020019161050e565b820191906000526020600020905b8154815290600101906020018083116104f157829003601f168201915b50505050509080600301805461052390612896565b80601f016020809104026020016040519081016040528092919081815260200182805461054f90612896565b801561059c5780601f106105715761010080835404028352916020019161059c565b820191906000526020600020905b81548152906001019060200180831161057f57829003601f168201915b5050505050908060040154908060050180546105b790612896565b80601f01602080910402602001604051908101604052809291908181526020018280546105e390612896565b80156106305780601f1061060557610100808354040283529160200191610630565b820191906000526020600020905b81548152906001019060200180831161061357829003601f168201915b50505050509080600601805461064590612896565b80601f016020809104026020016040519081016040528092919081815260200182805461067190612896565b80156106be5780601f10610693576101008083540402835291602001916106be565b820191906000526020600020905b8154815290600101906020018083116106a157829003601f168201915b5050505050908060070180546106d390612896565b80601f01602080910402602001604051908101604052809291908181526020018280546106ff90612896565b801561074c5780601f106107215761010080835404028352916020019161074c565b820191906000526020600020905b81548152906001019060200180831161072f57829003601f168201915b5050505050905088565b6002546000906001600160a01b0316331461078c5760405162461bcd60e51b8152600401610783906128d0565b60405180910390fd5b600060015b6001548111610871576000818152600560205260409020600201546001600160a01b0385811691161480156107ea5750600081815260056020819052604090912081015460ff16818111156107e8576107e86124a5565b145b1561085f57600081815260056020526040902060039081015461080f9060019061292e565b8154811061081f5761081f612941565b90600052602060002090600802016004015460056000838152602001908152602001600020600401546108529190612957565b61085c908361296e565b91505b8061086981612981565b915050610791565b5090505b919050565b61088261230e565b6000828152600560208181526040928390208351610100810185528154815260018201546001600160a01b039081169382019390935260028201549092169382019390935260038301546060820152600483015460808201528282015490929160a084019160ff16908111156108fa576108fa6124a5565b600581111561090b5761090b6124a5565b81526006820154602082015260079091015460409091015292915050565b600081815260056020526040902060028101546001600160a01b031661096257604051639662254d60e01b815260040160405180910390fd5b600060058083015460ff169081111561097d5761097d6124a5565b1461099b5760405163baf3f0f760e01b815260040160405180910390fd5b60028101546001600160a01b031633146109c8576040516342e8fb9360e11b815260040160405180910390fd5b806007015434146109ec5760405163070f6eed60e11b815260040160405180910390fd5b60058101805460ff19166001908117909155810154604080518481526001600160a01b0390921660208301527f9ebdb89cec84115ec2b70c5fee2ded2d3b0b67c4cad5814e479ddf816d91f51f91015b60405180910390a15050565b6060600060015b60018054610a5c9161296e565b811015610aa7576000818152600560205260409020600201546001600160a01b03808616911603610a955781610a9181612981565b9250505b80610a9f81612981565b915050610a4f565b5060008167ffffffffffffffff811115610ac357610ac3612719565b604051908082528060200260200182016040528015610afc57816020015b610ae961230e565b815260200190600190039081610ae15790505b509050600060015b60018054610b119161296e565b811015610c1b576000818152600560205260409020600201546001600160a01b03808816911603610c09576000818152600560208181526040928390208351610100810185528154815260018201546001600160a01b039081169382019390935260028201549092169382019390935260038301546060820152600483015460808201528282015490929160a084019160ff1690811115610bb457610bb46124a5565b6005811115610bc557610bc56124a5565b815260200160068201548152602001600782015481525050838381518110610bef57610bef612941565b60200260200101819052508180610c0590612981565b9250505b80610c1381612981565b915050610b04565b5090949350505050565b600082118015610c3757506000548211155b610c7c5760405162461bcd60e51b8152602060048201526016602482015275141c9bd91d58dd08191bd95cc81b9bdd08195e1a5cdd60521b6044820152606401610783565b60006003610c8b60018561292e565b81548110610c9b57610c9b612941565b906000526020600020906008020160405180610100016040529081600082015481526020016001820160009054906101000a90046001600160a01b03166001600160a01b03166001600160a01b03168152602001600282018054610cfe90612896565b80601f0160208091040260200160405190810160405280929190818152602001828054610d2a90612896565b8015610d775780601f10610d4c57610100808354040283529160200191610d77565b820191906000526020600020905b815481529060010190602001808311610d5a57829003601f168201915b50505050508152602001600382018054610d9090612896565b80601f0160208091040260200160405190810160405280929190818152602001828054610dbc90612896565b8015610e095780601f10610dde57610100808354040283529160200191610e09565b820191906000526020600020905b815481529060010190602001808311610dec57829003601f168201915b5050505050815260200160048201548152602001600582018054610e2c90612896565b80601f0160208091040260200160405190810160405280929190818152602001828054610e5890612896565b8015610ea55780601f10610e7a57610100808354040283529160200191610ea5565b820191906000526020600020905b815481529060010190602001808311610e8857829003601f168201915b50505050508152602001600682018054610ebe90612896565b80601f0160208091040260200160405190810160405280929190818152602001828054610eea90612896565b8015610f375780601f10610f0c57610100808354040283529160200191610f37565b820191906000526020600020905b815481529060010190602001808311610f1a57829003601f168201915b50505050508152602001600782018054610f5090612896565b80601f0160208091040260200160405190810160405280929190818152602001828054610f7c90612896565b8015610fc95780601f10610f9e57610100808354040283529160200191610fc9565b820191906000526020600020905b815481529060010190602001808311610fac57829003601f168201915b505050505081525050905080602001516001600160a01b0316336001600160a01b03160361100a5760405163089a9c0b60e31b815260040160405180910390fd5b6001805490600061101a83612981565b919050555060006040518061010001604052806001548152602001336001600160a01b0316815260200183602001516001600160a01b0316815260200185815260200184815260200160006005811115611076576110766124a5565b815260200183608001518561108b9190612957565b611096906003612957565b81526020018360800151856110ab9190612957565b6110b6906002612957565b905260018054600090815260056020818152604092839020855181559085015181850180546001600160a01b03199081166001600160a01b039384161790915593860151600283018054909516911617909255606084015160038301556080840151600483015560a08401518282018054959650869593949193909260ff199091169190849081111561114b5761114b6124a5565b021790555060c0820151816006015560e0820151816007015590505080604001516001600160a01b031681602001516001600160a01b031682600001517f453d784c8814f056ce472d29a9ce8d3e5323675f6cd22743eb24245d8ae2ec27846060015185608001518660a001516040516111c79392919061299a565b60405180910390a450505050565b336000908152600460209081526040808320805482518185028101850190935280835260609492939192909184015b8282101561153b5760008481526020908190206040805161010081018252600886029092018054835260018101546001600160a01b0316938301939093526002830180549293929184019161125890612896565b80601f016020809104026020016040519081016040528092919081815260200182805461128490612896565b80156112d15780601f106112a6576101008083540402835291602001916112d1565b820191906000526020600020905b8154815290600101906020018083116112b457829003601f168201915b505050505081526020016003820180546112ea90612896565b80601f016020809104026020016040519081016040528092919081815260200182805461131690612896565b80156113635780601f1061133857610100808354040283529160200191611363565b820191906000526020600020905b81548152906001019060200180831161134657829003601f168201915b505050505081526020016004820154815260200160058201805461138690612896565b80601f01602080910402602001604051908101604052809291908181526020018280546113b290612896565b80156113ff5780601f106113d4576101008083540402835291602001916113ff565b820191906000526020600020905b8154815290600101906020018083116113e257829003601f168201915b5050505050815260200160068201805461141890612896565b80601f016020809104026020016040519081016040528092919081815260200182805461144490612896565b80156114915780601f1061146657610100808354040283529160200191611491565b820191906000526020600020905b81548152906001019060200180831161147457829003601f168201915b505050505081526020016007820180546114aa90612896565b80601f01602080910402602001604051908101604052809291908181526020018280546114d690612896565b80156115235780601f106114f857610100808354040283529160200191611523565b820191906000526020600020905b81548152906001019060200180831161150657829003601f168201915b50505050508152505081526020019060010190611204565b50505050905090565b6002546000906001600160a01b031633146115715760405162461bcd60e51b8152600401610783906128d0565b600060015b6001548111610871576000818152600560205260409020600101546001600160a01b0385811691161480156115cf5750600081815260056020819052604090912081015460ff16818111156115cd576115cd6124a5565b145b156116445760008181526005602052604090206003908101546115f49060019061292e565b8154811061160457611604612941565b90600052602060002090600802016004015460056000838152602001908152602001600020600401546116379190612957565b611641908361296e565b91505b8061164e81612981565b915050611576565b6000818152600560205260409020600360058083015460ff169081111561167f5761167f6124a5565b1461169d5760405163baf3f0f760e01b815260040160405180910390fd5b60028101546001600160a01b031633146116ca576040516386efbb5560e01b815260040160405180910390fd5b6005818101805460ff19169091179055600681015460405133916108fc811502916000818181858888f1935050505015801561170a573d6000803e3d6000fd5b505050565b6003818154811061171f57600080fd5b60009182526020909120600890910201805460018201546002830180549294506001600160a01b03909116929161049590612896565b6000818152600560205260409020600160058083015460ff169081111561177e5761177e6124a5565b1461179c5760405163baf3f0f760e01b815260040160405180910390fd5b60028101546001600160a01b031633146117c9576040516342e8fb9360e11b815260040160405180910390fd5b60058101805460ff19166004179055600781015460405133916108fc811502916000818181858888f1935050505015801561170a573d6000803e3d6000fd5b6000818152600560205260409020600260058083015460ff1690811115611831576118316124a5565b1461184f5760405163baf3f0f760e01b815260040160405180910390fd5b60018101546001600160a01b0316331461187c576040516386efbb5560e01b815260040160405180910390fd5b60058101805460ff19166003179055600781015460405133916108fc811502916000818181858888f193505050501580156118bb573d6000803e3d6000fd5b506002810154604080518481526001600160a01b0390921660208301527f15d848818f1c91d37b40b9dda9b73c00755457572813583fe4c62e6fd66584ae9101610a3c565b6060600060015b600180546119149161296e565b81101561195f576000818152600560205260409020600101546001600160a01b0380861691160361194d578161194981612981565b9250505b8061195781612981565b915050611907565b5060008167ffffffffffffffff81111561197b5761197b612719565b6040519080825280602002602001820160405280156119b457816020015b6119a161230e565b8152602001906001900390816119995790505b509050600060015b600180546119c99161296e565b811015610c1b576000818152600560205260409020600101546001600160a01b03808816911603611ac1576000818152600560208181526040928390208351610100810185528154815260018201546001600160a01b039081169382019390935260028201549092169382019390935260038301546060820152600483015460808201528282015490929160a084019160ff1690811115611a6c57611a6c6124a5565b6005811115611a7d57611a7d6124a5565b815260200160068201548152602001600782015481525050838381518110611aa757611aa7612941565b60200260200101819052508180611abd90612981565b9250505b80611acb81612981565b9150506119bc565b60008181526005602052604081209060058083015460ff1690811115611afb57611afb6124a5565b14611b195760405163baf3f0f760e01b815260040160405180910390fd5b60018101546001600160a01b03163314611b46576040516386efbb5560e01b815260040160405180910390fd5b50600090815260056020819052604082208281556001810180546001600160a01b031990811690915560028201805490911690556003810183905560048101839055908101805460ff191690556006810182905560070155565b60606003805480602002602001604051908101604052809291908181526020016000905b8282101561153b5760008481526020908190206040805161010081018252600886029092018054835260018101546001600160a01b03169383019390935260028301805492939291840191611c1890612896565b80601f0160208091040260200160405190810160405280929190818152602001828054611c4490612896565b8015611c915780601f10611c6657610100808354040283529160200191611c91565b820191906000526020600020905b815481529060010190602001808311611c7457829003601f168201915b50505050508152602001600382018054611caa90612896565b80601f0160208091040260200160405190810160405280929190818152602001828054611cd690612896565b8015611d235780601f10611cf857610100808354040283529160200191611d23565b820191906000526020600020905b815481529060010190602001808311611d0657829003601f168201915b5050505050815260200160048201548152602001600582018054611d4690612896565b80601f0160208091040260200160405190810160405280929190818152602001828054611d7290612896565b8015611dbf5780601f10611d9457610100808354040283529160200191611dbf565b820191906000526020600020905b815481529060010190602001808311611da257829003601f168201915b50505050508152602001600682018054611dd890612896565b80601f0160208091040260200160405190810160405280929190818152602001828054611e0490612896565b8015611e515780601f10611e2657610100808354040283529160200191611e51565b820191906000526020600020905b815481529060010190602001808311611e3457829003601f168201915b50505050508152602001600782018054611e6a90612896565b80601f0160208091040260200160405190810160405280929190818152602001828054611e9690612896565b8015611ee35780601f10611eb857610100808354040283529160200191611ee3565b820191906000526020600020905b815481529060010190602001808311611ec657829003601f168201915b50505050508152505081526020019060010190611bc4565b60008181526005602052604081209060058083015460ff1690811115611f2357611f236124a5565b14611f415760405163baf3f0f760e01b815260040160405180910390fd5b60028101546001600160a01b03163314611f6e576040516342e8fb9360e11b815260040160405180910390fd5b600501805460ff1916600417905550565b6000818152600560205260409020600160058083015460ff1690811115611fa857611fa86124a5565b14611fc65760405163baf3f0f760e01b815260040160405180910390fd5b60018101546001600160a01b03163314611ff3576040516386efbb5560e01b815260040160405180910390fd5b806006015434146120175760405163070f6eed60e11b815260040160405180910390fd5b60058101805460ff19166002908117909155810154604080518481526001600160a01b0390921660208301527fdb4cf8c0535b6a3bc48d6532c850157ab1fde2e331b6959f293be876b9ef36e69101610a3c565b60008054908061207a83612981565b909155505060408051610100810182526000805482523360208301908152928201898152606083018990526080830188905260a0830187905260c0830186905260e0830185905260038054600181018255925282517fc2575a0e9e593c00f959f8c92f12db2869c3395a3b0502d05e2516446f71f85b600890930292830190815593517fc2575a0e9e593c00f959f8c92f12db2869c3395a3b0502d05e2516446f71f85c830180546001600160a01b0319166001600160a01b03909216919091179055519192839290917fc2575a0e9e593c00f959f8c92f12db2869c3395a3b0502d05e2516446f71f85d01906121719082612a0b565b50606082015160038201906121869082612a0b565b506080820151600482015560a082015160058201906121a59082612a0b565b5060c082015160068201906121ba9082612a0b565b5060e082015160078201906121cf9082612a0b565b50503360009081526004602090815260408083208054600180820183559185529383902086516008909502019384559185015191830180546001600160a01b0319166001600160a01b039093169290921790915583015183925060028201906122389082612a0b565b506060820151600382019061224d9082612a0b565b506080820151600482015560a0820151600582019061226c9082612a0b565b5060c082015160068201906122819082612a0b565b5060e082015160078201906122969082612a0b565b50505080602001516001600160a01b031681600001517f92b0dfc54afa4c0aeea7f4df9a5a1bb9ea514d6a4389654c9777b5f1a4b846438360400151846060015185608001518660a001518760c001518860e001516040516122fd96959493929190612acb565b60405180910390a350505050505050565b604080516101008101825260008082526020820181905291810182905260608101829052608081018290529060a0820190815260200160008152602001600081525090565b80356001600160a01b038116811461087557600080fd5b6000806040838503121561237d57600080fd5b61238683612353565b946020939093013593505050565b6000815180845260005b818110156123ba5760208185018101518683018201520161239e565b506000602082860101526020601f19601f83011685010191505092915050565b8881526001600160a01b0388166020820152610100604082018190526000906124058382018a612394565b905082810360608401526124198189612394565b905086608084015282810360a08401526124338187612394565b905082810360c08401526124478186612394565b905082810360e084015261245b8185612394565b9b9a5050505050505050505050565b60006020828403121561247c57600080fd5b61248582612353565b9392505050565b60006020828403121561249e57600080fd5b5035919050565b634e487b7160e01b600052602160045260246000fd5b600681106124d957634e487b7160e01b600052602160045260246000fd5b9052565b80518252602081015160018060a01b0380821660208501528060408401511660408501525050606081015160608301526080810151608083015260a081015161252960a08401826124bb565b5060c0818101519083015260e090810151910152565b610100810161254e82846124dd565b92915050565b8881526001600160a01b038881166020830152871660408201526060810186905260808101859052610100810161258e60a08301866124bb565b60c082019390935260e001529695505050505050565b6020808252825182820181905260009190848201906040850190845b818110156125e7576125d38385516124dd565b9284019261010092909201916001016125c0565b50909695505050505050565b6000806040838503121561260657600080fd5b50508035926020909101359150565b60006020808301818452808551808352604092508286019150828160051b87010184880160005b8381101561270b57603f19898403018552815180518452878101516001600160a01b031688850152868101516101008886018190529061267e82870182612394565b915050606080830151868303828801526126988382612394565b92505050608080830151818701525060a080830151868303828801526126be8382612394565b9250505060c080830151868303828801526126d98382612394565b9250505060e080830151925085820381870152506126f78183612394565b96890196945050509086019060010161263c565b509098975050505050505050565b634e487b7160e01b600052604160045260246000fd5b600082601f83011261274057600080fd5b813567ffffffffffffffff8082111561275b5761275b612719565b604051601f8301601f19908116603f0116810190828211818310171561278357612783612719565b8160405283815286602085880101111561279c57600080fd5b836020870160208301376000602085830101528094505050505092915050565b60008060008060008060c087890312156127d557600080fd5b863567ffffffffffffffff808211156127ed57600080fd5b6127f98a838b0161272f565b9750602089013591508082111561280f57600080fd5b61281b8a838b0161272f565b965060408901359550606089013591508082111561283857600080fd5b6128448a838b0161272f565b9450608089013591508082111561285a57600080fd5b6128668a838b0161272f565b935060a089013591508082111561287c57600080fd5b5061288989828a0161272f565b9150509295509295509295565b600181811c908216806128aa57607f821691505b6020821081036128ca57634e487b7160e01b600052602260045260246000fd5b50919050565b60208082526028908201527f596f75722061726520746865206f776e6572206f662074686520736d6172742060408201526718dbdb9d1c9858dd60c21b606082015260800190565b634e487b7160e01b600052601160045260246000fd5b8181038181111561254e5761254e612918565b634e487b7160e01b600052603260045260246000fd5b808202811582820484141761254e5761254e612918565b8082018082111561254e5761254e612918565b60006001820161299357612993612918565b5060010190565b83815260208101839052606081016129b560408301846124bb565b949350505050565b601f82111561170a57600081815260208120601f850160051c810160208610156129e45750805b601f850160051c820191505b81811015612a03578281556001016129f0565b505050505050565b815167ffffffffffffffff811115612a2557612a25612719565b612a3981612a338454612896565b846129bd565b602080601f831160018114612a6e5760008415612a565750858301515b600019600386901b1c1916600185901b178555612a03565b600085815260208120601f198616915b82811015612a9d57888601518255948401946001909101908401612a7e565b5085821015612abb5787850151600019600388901b60f8161c191681555b5050505050600190811b01905550565b60c081526000612ade60c0830189612394565b8281036020840152612af08189612394565b90508660408401528281036060840152612b0a8187612394565b90508281036080840152612b1e8186612394565b905082810360a0840152612b328185612394565b999850505050505050505056fea26469706673582212204069818aceb0c2992260be9fbc70cf893efbd86bfe168c11739c93eef705f3f664736f6c63430008110033","opcodes":"PUSH1 0x80 PUSH1 0x40 MSTORE CALLVALUE DUP1 ISZERO PUSH2 0x10 JUMPI PUSH1 0x0 DUP1 REVERT JUMPDEST POP PUSH1 0x2 DUP1 SLOAD PUSH1 0x1 PUSH1 0x1 PUSH1 0xA0 SHL SUB NOT AND CALLER OR SWAP1 SSTORE PUSH2 0x2B75 DUP1 PUSH2 0x32 PUSH1 0x0 CODECOPY PUSH1 0x0 RETURN INVALID PUSH1 0x80 PUSH1 0x40 MSTORE PUSH1 0x4 CALLDATASIZE LT PUSH2 0x12A JUMPI PUSH1 0x0 CALLDATALOAD PUSH1 0xE0 SHR DUP1 PUSH4 0x5DFE6F10 GT PUSH2 0xAB JUMPI DUP1 PUSH4 0x8F71C264 GT PUSH2 0x6F JUMPI DUP1 PUSH4 0x8F71C264 EQ PUSH2 0x3A4 JUMPI DUP1 PUSH4 0x9D7C9E3E EQ PUSH2 0x3C4 JUMPI DUP1 PUSH4 0x9F259028 EQ PUSH2 0x3D9 JUMPI DUP1 PUSH4 0xC8DCA31E EQ PUSH2 0x3F9 JUMPI DUP1 PUSH4 0xCEC96C38 EQ PUSH2 0x40C JUMPI DUP1 PUSH4 0xE0F6EF87 EQ PUSH2 0x42C JUMPI PUSH1 0x0 DUP1 REVERT JUMPDEST DUP1 PUSH4 0x5DFE6F10 EQ PUSH2 0x304 JUMPI DUP1 PUSH4 0x616E7A58 EQ PUSH2 0x324 JUMPI DUP1 PUSH4 0x744C05C3 EQ PUSH2 0x344 JUMPI DUP1 PUSH4 0x7C54A886 EQ PUSH2 0x364 JUMPI DUP1 PUSH4 0x866ABC55 EQ PUSH2 0x384 JUMPI PUSH1 0x0 DUP1 REVERT JUMPDEST DUP1 PUSH4 0x43180647 GT PUSH2 0xF2 JUMPI DUP1 PUSH4 0x43180647 EQ PUSH2 0x260 JUMPI DUP1 PUSH4 0x43BB5A45 EQ PUSH2 0x275 JUMPI DUP1 PUSH4 0x45FC6455 EQ PUSH2 0x2A2 JUMPI DUP1 PUSH4 0x55C7D72C EQ PUSH2 0x2C2 JUMPI DUP1 PUSH4 0x5C1BEDC4 EQ PUSH2 0x2E4 JUMPI PUSH1 0x0 DUP1 REVERT JUMPDEST DUP1 PUSH4 0x54564F0 EQ PUSH2 0x12F JUMPI DUP1 PUSH4 0x6E41DED EQ PUSH2 0x16C JUMPI DUP1 PUSH4 0x20AF01FD EQ PUSH2 0x19A JUMPI DUP1 PUSH4 0x2829FC53 EQ PUSH2 0x1C7 JUMPI DUP1 PUSH4 0x2B85ED9C EQ PUSH2 0x24A JUMPI JUMPDEST PUSH1 0x0 DUP1 REVERT JUMPDEST CALLVALUE DUP1 ISZERO PUSH2 0x13B JUMPI PUSH1 0x0 DUP1 REVERT JUMPDEST POP PUSH2 0x14F PUSH2 0x14A CALLDATASIZE PUSH1 0x4 PUSH2 0x236A JUMP JUMPDEST PUSH2 0x442 JUMP JUMPDEST PUSH1 0x40 MLOAD PUSH2 0x163 SWAP9 SWAP8 SWAP7 SWAP6 SWAP5 SWAP4 SWAP3 SWAP2 SWAP1 PUSH2 0x23DA JUMP JUMPDEST PUSH1 0x40 MLOAD DUP1 SWAP2 SUB SWAP1 RETURN JUMPDEST CALLVALUE DUP1 ISZERO PUSH2 0x178 JUMPI PUSH1 0x0 DUP1 REVERT JUMPDEST POP PUSH2 0x18C PUSH2 0x187 CALLDATASIZE PUSH1 0x4 PUSH2 0x246A JUMP JUMPDEST PUSH2 0x756 JUMP JUMPDEST PUSH1 0x40 MLOAD SWAP1 DUP2 MSTORE PUSH1 0x20 ADD PUSH2 0x163 JUMP JUMPDEST CALLVALUE DUP1 ISZERO PUSH2 0x1A6 JUMPI PUSH1 0x0 DUP1 REVERT JUMPDEST POP PUSH2 0x1BA PUSH2 0x1B5 CALLDATASIZE PUSH1 0x4 PUSH2 0x248C JUMP JUMPDEST PUSH2 0x87A JUMP JUMPDEST PUSH1 0x40 MLOAD PUSH2 0x163 SWAP2 SWAP1 PUSH2 0x253F JUMP JUMPDEST CALLVALUE DUP1 ISZERO PUSH2 0x1D3 JUMPI PUSH1 0x0 DUP1 REVERT JUMPDEST POP PUSH2 0x236 PUSH2 0x1E2 CALLDATASIZE PUSH1 0x4 PUSH2 0x248C JUMP JUMPDEST PUSH1 0x5 PUSH1 0x20 DUP2 SWAP1 MSTORE PUSH1 0x0 SWAP2 DUP3 MSTORE PUSH1 0x40 SWAP1 SWAP2 KECCAK256 DUP1 SLOAD PUSH1 0x1 DUP3 ADD SLOAD PUSH1 0x2 DUP4 ADD SLOAD PUSH1 0x3 DUP5 ADD SLOAD PUSH1 0x4 DUP6 ADD SLOAD SWAP6 DUP6 ADD SLOAD PUSH1 0x6 DUP7 ADD SLOAD PUSH1 0x7 SWAP1 SWAP7 ADD SLOAD SWAP5 SWAP7 PUSH1 0x1 PUSH1 0x1 PUSH1 0xA0 SHL SUB SWAP5 DUP6 AND SWAP7 SWAP5 SWAP1 SWAP4 AND SWAP5 SWAP2 SWAP4 PUSH1 0xFF SWAP1 SWAP2 AND SWAP2 DUP9 JUMP JUMPDEST PUSH1 0x40 MLOAD PUSH2 0x163 SWAP9 SWAP8 SWAP7 SWAP6 SWAP5 SWAP4 SWAP3 SWAP2 SWAP1 PUSH2 0x2554 JUMP JUMPDEST CALLVALUE DUP1 ISZERO PUSH2 0x256 JUMPI PUSH1 0x0 DUP1 REVERT JUMPDEST POP PUSH2 0x18C PUSH1 0x1 SLOAD DUP2 JUMP JUMPDEST PUSH2 0x273 PUSH2 0x26E CALLDATASIZE PUSH1 0x4 PUSH2 0x248C JUMP JUMPDEST PUSH2 0x929 JUMP JUMPDEST STOP JUMPDEST CALLVALUE DUP1 ISZERO PUSH2 0x281 JUMPI PUSH1 0x0 DUP1 REVERT JUMPDEST POP PUSH2 0x295 PUSH2 0x290 CALLDATASIZE PUSH1 0x4 PUSH2 0x246A JUMP JUMPDEST PUSH2 0xA48 JUMP JUMPDEST PUSH1 0x40 MLOAD PUSH2 0x163 SWAP2 SWAP1 PUSH2 0x25A4 JUMP JUMPDEST CALLVALUE DUP1 ISZERO PUSH2 0x2AE JUMPI PUSH1 0x0 DUP1 REVERT JUMPDEST POP PUSH2 0x273 PUSH2 0x2BD CALLDATASIZE PUSH1 0x4 PUSH2 0x25F3 JUMP JUMPDEST PUSH2 0xC25 JUMP JUMPDEST CALLVALUE DUP1 ISZERO PUSH2 0x2CE JUMPI PUSH1 0x0 DUP1 REVERT JUMPDEST POP PUSH2 0x2D7 PUSH2 0x11D5 JUMP JUMPDEST PUSH1 0x40 MLOAD PUSH2 0x163 SWAP2 SWAP1 PUSH2 0x2615 JUMP JUMPDEST CALLVALUE DUP1 ISZERO PUSH2 0x2F0 JUMPI PUSH1 0x0 DUP1 REVERT JUMPDEST POP PUSH2 0x18C PUSH2 0x2FF CALLDATASIZE PUSH1 0x4 PUSH2 0x246A JUMP JUMPDEST PUSH2 0x1544 JUMP JUMPDEST CALLVALUE DUP1 ISZERO PUSH2 0x310 JUMPI PUSH1 0x0 DUP1 REVERT JUMPDEST POP PUSH2 0x273 PUSH2 0x31F CALLDATASIZE PUSH1 0x4 PUSH2 0x248C JUMP JUMPDEST PUSH2 0x1656 JUMP JUMPDEST CALLVALUE DUP1 ISZERO PUSH2 0x330 JUMPI PUSH1 0x0 DUP1 REVERT JUMPDEST POP PUSH2 0x14F PUSH2 0x33F CALLDATASIZE PUSH1 0x4 PUSH2 0x248C JUMP JUMPDEST PUSH2 0x170F JUMP JUMPDEST CALLVALUE DUP1 ISZERO PUSH2 0x350 JUMPI PUSH1 0x0 DUP1 REVERT JUMPDEST POP PUSH2 0x273 PUSH2 0x35F CALLDATASIZE PUSH1 0x4 PUSH2 0x248C JUMP JUMPDEST PUSH2 0x1755 JUMP JUMPDEST CALLVALUE DUP1 ISZERO PUSH2 0x370 JUMPI PUSH1 0x0 DUP1 REVERT JUMPDEST POP PUSH2 0x273 PUSH2 0x37F CALLDATASIZE PUSH1 0x4 PUSH2 0x248C JUMP JUMPDEST PUSH2 0x1808 JUMP JUMPDEST CALLVALUE DUP1 ISZERO PUSH2 0x390 JUMPI PUSH1 0x0 DUP1 REVERT JUMPDEST POP PUSH2 0x295 PUSH2 0x39F CALLDATASIZE PUSH1 0x4 PUSH2 0x246A JUMP JUMPDEST PUSH2 0x1900 JUMP JUMPDEST CALLVALUE DUP1 ISZERO PUSH2 0x3B0 JUMPI PUSH1 0x0 DUP1 REVERT JUMPDEST POP PUSH2 0x273 PUSH2 0x3BF CALLDATASIZE PUSH1 0x4 PUSH2 0x248C JUMP JUMPDEST PUSH2 0x1AD3 JUMP JUMPDEST CALLVALUE DUP1 ISZERO PUSH2 0x3D0 JUMPI PUSH1 0x0 DUP1 REVERT JUMPDEST POP PUSH2 0x2D7 PUSH2 0x1BA0 JUMP JUMPDEST CALLVALUE DUP1 ISZERO PUSH2 0x3E5 JUMPI PUSH1 0x0 DUP1 REVERT JUMPDEST POP PUSH2 0x273 PUSH2 0x3F4 CALLDATASIZE PUSH1 0x4 PUSH2 0x248C JUMP JUMPDEST PUSH2 0x1EFB JUMP JUMPDEST PUSH2 0x273 PUSH2 0x407 CALLDATASIZE PUSH1 0x4 PUSH2 0x248C JUMP JUMPDEST PUSH2 0x1F7F JUMP JUMPDEST CALLVALUE DUP1 ISZERO PUSH2 0x418 JUMPI PUSH1 0x0 DUP1 REVERT JUMPDEST POP PUSH2 0x273 PUSH2 0x427 CALLDATASIZE PUSH1 0x4 PUSH2 0x27BC JUMP JUMPDEST PUSH2 0x206B JUMP JUMPDEST CALLVALUE DUP1 ISZERO PUSH2 0x438 JUMPI PUSH1 0x0 DUP1 REVERT JUMPDEST POP PUSH2 0x18C PUSH1 0x0 SLOAD DUP2 JUMP JUMPDEST PUSH1 0x4 PUSH1 0x20 MSTORE DUP2 PUSH1 0x0 MSTORE PUSH1 0x40 PUSH1 0x0 KECCAK256 DUP2 DUP2 SLOAD DUP2 LT PUSH2 0x45E JUMPI PUSH1 0x0 DUP1 REVERT JUMPDEST PUSH1 0x0 SWAP2 DUP3 MSTORE PUSH1 0x20 SWAP1 SWAP2 KECCAK256 PUSH1 0x8 SWAP1 SWAP2 MUL ADD DUP1 SLOAD PUSH1 0x1 DUP3 ADD SLOAD PUSH1 0x2 DUP4 ADD DUP1 SLOAD SWAP3 SWAP6 POP PUSH1 0x1 PUSH1 0x1 PUSH1 0xA0 SHL SUB SWAP1 SWAP2 AND SWAP4 POP SWAP1 PUSH2 0x495 SWAP1 PUSH2 0x2896 JUMP JUMPDEST DUP1 PUSH1 0x1F ADD PUSH1 0x20 DUP1 SWAP2 DIV MUL PUSH1 0x20 ADD PUSH1 0x40 MLOAD SWAP1 DUP2 ADD PUSH1 0x40 MSTORE DUP1 SWAP3 SWAP2 SWAP1 DUP2 DUP2 MSTORE PUSH1 0x20 ADD DUP3 DUP1 SLOAD PUSH2 0x4C1 SWAP1 PUSH2 0x2896 JUMP JUMPDEST DUP1 ISZERO PUSH2 0x50E JUMPI DUP1 PUSH1 0x1F LT PUSH2 0x4E3 JUMPI PUSH2 0x100 DUP1 DUP4 SLOAD DIV MUL DUP4 MSTORE SWAP2 PUSH1 0x20 ADD SWAP2 PUSH2 0x50E JUMP JUMPDEST DUP3 ADD SWAP2 SWAP1 PUSH1 0x0 MSTORE PUSH1 0x20 PUSH1 0x0 KECCAK256 SWAP1 JUMPDEST DUP2 SLOAD DUP2 MSTORE SWAP1 PUSH1 0x1 ADD SWAP1 PUSH1 0x20 ADD DUP1 DUP4 GT PUSH2 0x4F1 JUMPI DUP3 SWAP1 SUB PUSH1 0x1F AND DUP3 ADD SWAP2 JUMPDEST POP POP POP POP POP SWAP1 DUP1 PUSH1 0x3 ADD DUP1 SLOAD PUSH2 0x523 SWAP1 PUSH2 0x2896 JUMP JUMPDEST DUP1 PUSH1 0x1F ADD PUSH1 0x20 DUP1 SWAP2 DIV MUL PUSH1 0x20 ADD PUSH1 0x40 MLOAD SWAP1 DUP2 ADD PUSH1 0x40 MSTORE DUP1 SWAP3 SWAP2 SWAP1 DUP2 DUP2 MSTORE PUSH1 0x20 ADD DUP3 DUP1 SLOAD PUSH2 0x54F SWAP1 PUSH2 0x2896 JUMP JUMPDEST DUP1 ISZERO PUSH2 0x59C JUMPI DUP1 PUSH1 0x1F LT PUSH2 0x571 JUMPI PUSH2 0x100 DUP1 DUP4 SLOAD DIV MUL DUP4 MSTORE SWAP2 PUSH1 0x20 ADD SWAP2 PUSH2 0x59C JUMP JUMPDEST DUP3 ADD SWAP2 SWAP1 PUSH1 0x0 MSTORE PUSH1 0x20 PUSH1 0x0 KECCAK256 SWAP1 JUMPDEST DUP2 SLOAD DUP2 MSTORE SWAP1 PUSH1 0x1 ADD SWAP1 PUSH1 0x20 ADD DUP1 DUP4 GT PUSH2 0x57F JUMPI DUP3 SWAP1 SUB PUSH1 0x1F AND DUP3 ADD SWAP2 JUMPDEST POP POP POP POP POP SWAP1 DUP1 PUSH1 0x4 ADD SLOAD SWAP1 DUP1 PUSH1 0x5 ADD DUP1 SLOAD PUSH2 0x5B7 SWAP1 PUSH2 0x2896 JUMP JUMPDEST DUP1 PUSH1 0x1F ADD PUSH1 0x20 DUP1 SWAP2 DIV MUL PUSH1 0x20 ADD PUSH1 0x40 MLOAD SWAP1 DUP2 ADD PUSH1 0x40 MSTORE DUP1 SWAP3 SWAP2 SWAP1 DUP2 DUP2 MSTORE PUSH1 0x20 ADD DUP3 DUP1 SLOAD PUSH2 0x5E3 SWAP1 PUSH2 0x2896 JUMP JUMPDEST DUP1 ISZERO PUSH2 0x630 JUMPI DUP1 PUSH1 0x1F LT PUSH2 0x605 JUMPI PUSH2 0x100 DUP1 DUP4 SLOAD DIV MUL DUP4 MSTORE SWAP2 PUSH1 0x20 ADD SWAP2 PUSH2 0x630 JUMP JUMPDEST DUP3 ADD SWAP2 SWAP1 PUSH1 0x0 MSTORE PUSH1 0x20 PUSH1 0x0 KECCAK256 SWAP1 JUMPDEST DUP2 SLOAD DUP2 MSTORE SWAP1 PUSH1 0x1 ADD SWAP1 PUSH1 0x20 ADD DUP1 DUP4 GT PUSH2 0x613 JUMPI DUP3 SWAP1 SUB PUSH1 0x1F AND DUP3 ADD SWAP2 JUMPDEST POP POP POP POP POP SWAP1 DUP1 PUSH1 0x6 ADD DUP1 SLOAD PUSH2 0x645 SWAP1 PUSH2 0x2896 JUMP JUMPDEST DUP1 PUSH1 0x1F ADD PUSH1 0x20 DUP1 SWAP2 DIV MUL PUSH1 0x20 ADD PUSH1 0x40 MLOAD SWAP1 DUP2 ADD PUSH1 0x40 MSTORE DUP1 SWAP3 SWAP2 SWAP1 DUP2 DUP2 MSTORE PUSH1 0x20 ADD DUP3 DUP1 SLOAD PUSH2 0x671 SWAP1 PUSH2 0x2896 JUMP JUMPDEST DUP1 ISZERO PUSH2 0x6BE JUMPI DUP1 PUSH1 0x1F LT PUSH2 0x693 JUMPI PUSH2 0x100 DUP1 DUP4 SLOAD DIV MUL DUP4 MSTORE SWAP2 PUSH1 0x20 ADD SWAP2 PUSH2 0x6BE JUMP JUMPDEST DUP3 ADD SWAP2 SWAP1 PUSH1 0x0 MSTORE PUSH1 0x20 PUSH1 0x0 KECCAK256 SWAP1 JUMPDEST DUP2 SLOAD DUP2 MSTORE SWAP1 PUSH1 0x1 ADD SWAP1 PUSH1 0x20 ADD DUP1 DUP4 GT PUSH2 0x6A1 JUMPI DUP3 SWAP1 SUB PUSH1 0x1F AND DUP3 ADD SWAP2 JUMPDEST POP POP POP POP POP SWAP1 DUP1 PUSH1 0x7 ADD DUP1 SLOAD PUSH2 0x6D3 SWAP1 PUSH2 0x2896 JUMP JUMPDEST DUP1 PUSH1 0x1F ADD PUSH1 0x20 DUP1 SWAP2 DIV MUL PUSH1 0x20 ADD PUSH1 0x40 MLOAD SWAP1 DUP2 ADD PUSH1 0x40 MSTORE DUP1 SWAP3 SWAP2 SWAP1 DUP2 DUP2 MSTORE PUSH1 0x20 ADD DUP3 DUP1 SLOAD PUSH2 0x6FF SWAP1 PUSH2 0x2896 JUMP JUMPDEST DUP1 ISZERO PUSH2 0x74C JUMPI DUP1 PUSH1 0x1F LT PUSH2 0x721 JUMPI PUSH2 0x100 DUP1 DUP4 SLOAD DIV MUL DUP4 MSTORE SWAP2 PUSH1 0x20 ADD SWAP2 PUSH2 0x74C JUMP JUMPDEST DUP3 ADD SWAP2 SWAP1 PUSH1 0x0 MSTORE PUSH1 0x20 PUSH1 0x0 KECCAK256 SWAP1 JUMPDEST DUP2 SLOAD DUP2 MSTORE SWAP1 PUSH1 0x1 ADD SWAP1 PUSH1 0x20 ADD DUP1 DUP4 GT PUSH2 0x72F JUMPI DUP3 SWAP1 SUB PUSH1 0x1F AND DUP3 ADD SWAP2 JUMPDEST POP POP POP POP POP SWAP1 POP DUP9 JUMP JUMPDEST PUSH1 0x2 SLOAD PUSH1 0x0 SWAP1 PUSH1 0x1 PUSH1 0x1 PUSH1 0xA0 SHL SUB AND CALLER EQ PUSH2 0x78C JUMPI PUSH1 0x40 MLOAD PUSH3 0x461BCD PUSH1 0xE5 SHL DUP2 MSTORE PUSH1 0x4 ADD PUSH2 0x783 SWAP1 PUSH2 0x28D0 JUMP JUMPDEST PUSH1 0x40 MLOAD DUP1 SWAP2 SUB SWAP1 REVERT JUMPDEST PUSH1 0x0 PUSH1 0x1 JUMPDEST PUSH1 0x1 SLOAD DUP2 GT PUSH2 0x871 JUMPI PUSH1 0x0 DUP2 DUP2 MSTORE PUSH1 0x5 PUSH1 0x20 MSTORE PUSH1 0x40 SWAP1 KECCAK256 PUSH1 0x2 ADD SLOAD PUSH1 0x1 PUSH1 0x1 PUSH1 0xA0 SHL SUB DUP6 DUP2 AND SWAP2 AND EQ DUP1 ISZERO PUSH2 0x7EA JUMPI POP PUSH1 0x0 DUP2 DUP2 MSTORE PUSH1 0x5 PUSH1 0x20 DUP2 SWAP1 MSTORE PUSH1 0x40 SWAP1 SWAP2 KECCAK256 DUP2 ADD SLOAD PUSH1 0xFF AND DUP2 DUP2 GT ISZERO PUSH2 0x7E8 JUMPI PUSH2 0x7E8 PUSH2 0x24A5 JUMP JUMPDEST EQ JUMPDEST ISZERO PUSH2 0x85F JUMPI PUSH1 0x0 DUP2 DUP2 MSTORE PUSH1 0x5 PUSH1 0x20 MSTORE PUSH1 0x40 SWAP1 KECCAK256 PUSH1 0x3 SWAP1 DUP2 ADD SLOAD PUSH2 0x80F SWAP1 PUSH1 0x1 SWAP1 PUSH2 0x292E JUMP JUMPDEST DUP2 SLOAD DUP2 LT PUSH2 0x81F JUMPI PUSH2 0x81F PUSH2 0x2941 JUMP JUMPDEST SWAP1 PUSH1 0x0 MSTORE PUSH1 0x20 PUSH1 0x0 KECCAK256 SWAP1 PUSH1 0x8 MUL ADD PUSH1 0x4 ADD SLOAD PUSH1 0x5 PUSH1 0x0 DUP4 DUP2 MSTORE PUSH1 0x20 ADD SWAP1 DUP2 MSTORE PUSH1 0x20 ADD PUSH1 0x0 KECCAK256 PUSH1 0x4 ADD SLOAD PUSH2 0x852 SWAP2 SWAP1 PUSH2 0x2957 JUMP JUMPDEST PUSH2 0x85C SWAP1 DUP4 PUSH2 0x296E JUMP JUMPDEST SWAP2 POP JUMPDEST DUP1 PUSH2 0x869 DUP2 PUSH2 0x2981 JUMP JUMPDEST SWAP2 POP POP PUSH2 0x791 JUMP JUMPDEST POP SWAP1 POP JUMPDEST SWAP2 SWAP1 POP JUMP JUMPDEST PUSH2 0x882 PUSH2 0x230E JUMP JUMPDEST PUSH1 0x0 DUP3 DUP2 MSTORE PUSH1 0x5 PUSH1 0x20 DUP2 DUP2 MSTORE PUSH1 0x40 SWAP3 DUP4 SWAP1 KECCAK256 DUP4 MLOAD PUSH2 0x100 DUP2 ADD DUP6 MSTORE DUP2 SLOAD DUP2 MSTORE PUSH1 0x1 DUP3 ADD SLOAD PUSH1 0x1 PUSH1 0x1 PUSH1 0xA0 SHL SUB SWAP1 DUP2 AND SWAP4 DUP3 ADD SWAP4 SWAP1 SWAP4 MSTORE PUSH1 0x2 DUP3 ADD SLOAD SWAP1 SWAP3 AND SWAP4 DUP3 ADD SWAP4 SWAP1 SWAP4 MSTORE PUSH1 0x3 DUP4 ADD SLOAD PUSH1 0x60 DUP3 ADD MSTORE PUSH1 0x4 DUP4 ADD SLOAD PUSH1 0x80 DUP3 ADD MSTORE DUP3 DUP3 ADD SLOAD SWAP1 SWAP3 SWAP2 PUSH1 0xA0 DUP5 ADD SWAP2 PUSH1 0xFF AND SWAP1 DUP2 GT ISZERO PUSH2 0x8FA JUMPI PUSH2 0x8FA PUSH2 0x24A5 JUMP JUMPDEST PUSH1 0x5 DUP2 GT ISZERO PUSH2 0x90B JUMPI PUSH2 0x90B PUSH2 0x24A5 JUMP JUMPDEST DUP2 MSTORE PUSH1 0x6 DUP3 ADD SLOAD PUSH1 0x20 DUP3 ADD MSTORE PUSH1 0x7 SWAP1 SWAP2 ADD SLOAD PUSH1 0x40 SWAP1 SWAP2 ADD MSTORE SWAP3 SWAP2 POP POP JUMP JUMPDEST PUSH1 0x0 DUP2 DUP2 MSTORE PUSH1 0x5 PUSH1 0x20 MSTORE PUSH1 0x40 SWAP1 KECCAK256 PUSH1 0x2 DUP2 ADD SLOAD PUSH1 0x1 PUSH1 0x1 PUSH1 0xA0 SHL SUB AND PUSH2 0x962 JUMPI PUSH1 0x40 MLOAD PUSH4 0x9662254D PUSH1 0xE0 SHL DUP2 MSTORE PUSH1 0x4 ADD PUSH1 0x40 MLOAD DUP1 SWAP2 SUB SWAP1 REVERT JUMPDEST PUSH1 0x0 PUSH1 0x5 DUP1 DUP4 ADD SLOAD PUSH1 0xFF AND SWAP1 DUP2 GT ISZERO PUSH2 0x97D JUMPI PUSH2 0x97D PUSH2 0x24A5 JUMP JUMPDEST EQ PUSH2 0x99B JUMPI PUSH1 0x40 MLOAD PUSH4 0xBAF3F0F7 PUSH1 0xE0 SHL DUP2 MSTORE PUSH1 0x4 ADD PUSH1 0x40 MLOAD DUP1 SWAP2 SUB SWAP1 REVERT JUMPDEST PUSH1 0x2 DUP2 ADD SLOAD PUSH1 0x1 PUSH1 0x1 PUSH1 0xA0 SHL SUB AND CALLER EQ PUSH2 0x9C8 JUMPI PUSH1 0x40 MLOAD PUSH4 0x42E8FB93 PUSH1 0xE1 SHL DUP2 MSTORE PUSH1 0x4 ADD PUSH1 0x40 MLOAD DUP1 SWAP2 SUB SWAP1 REVERT JUMPDEST DUP1 PUSH1 0x7 ADD SLOAD CALLVALUE EQ PUSH2 0x9EC JUMPI PUSH1 0x40 MLOAD PUSH4 0x70F6EED PUSH1 0xE1 SHL DUP2 MSTORE PUSH1 0x4 ADD PUSH1 0x40 MLOAD DUP1 SWAP2 SUB SWAP1 REVERT JUMPDEST PUSH1 0x5 DUP2 ADD DUP1 SLOAD PUSH1 0xFF NOT AND PUSH1 0x1 SWAP1 DUP2 OR SWAP1 SWAP2 SSTORE DUP2 ADD SLOAD PUSH1 0x40 DUP1 MLOAD DUP5 DUP2 MSTORE PUSH1 0x1 PUSH1 0x1 PUSH1 0xA0 SHL SUB SWAP1 SWAP3 AND PUSH1 0x20 DUP4 ADD MSTORE PUSH32 0x9EBDB89CEC84115EC2B70C5FEE2DED2D3B0B67C4CAD5814E479DDF816D91F51F SWAP2 ADD JUMPDEST PUSH1 0x40 MLOAD DUP1 SWAP2 SUB SWAP1 LOG1 POP POP JUMP JUMPDEST PUSH1 0x60 PUSH1 0x0 PUSH1 0x1 JUMPDEST PUSH1 0x1 DUP1 SLOAD PUSH2 0xA5C SWAP2 PUSH2 0x296E JUMP JUMPDEST DUP2 LT ISZERO PUSH2 0xAA7 JUMPI PUSH1 0x0 DUP2 DUP2 MSTORE PUSH1 0x5 PUSH1 0x20 MSTORE PUSH1 0x40 SWAP1 KECCAK256 PUSH1 0x2 ADD SLOAD PUSH1 0x1 PUSH1 0x1 PUSH1 0xA0 SHL SUB DUP1 DUP7 AND SWAP2 AND SUB PUSH2 0xA95 JUMPI DUP2 PUSH2 0xA91 DUP2 PUSH2 0x2981 JUMP JUMPDEST SWAP3 POP POP JUMPDEST DUP1 PUSH2 0xA9F DUP2 PUSH2 0x2981 JUMP JUMPDEST SWAP2 POP POP PUSH2 0xA4F JUMP JUMPDEST POP PUSH1 0x0 DUP2 PUSH8 0xFFFFFFFFFFFFFFFF DUP2 GT ISZERO PUSH2 0xAC3 JUMPI PUSH2 0xAC3 PUSH2 0x2719 JUMP JUMPDEST PUSH1 0x40 MLOAD SWAP1 DUP1 DUP3 MSTORE DUP1 PUSH1 0x20 MUL PUSH1 0x20 ADD DUP3 ADD PUSH1 0x40 MSTORE DUP1 ISZERO PUSH2 0xAFC JUMPI DUP2 PUSH1 0x20 ADD JUMPDEST PUSH2 0xAE9 PUSH2 0x230E JUMP JUMPDEST DUP2 MSTORE PUSH1 0x20 ADD SWAP1 PUSH1 0x1 SWAP1 SUB SWAP1 DUP2 PUSH2 0xAE1 JUMPI SWAP1 POP JUMPDEST POP SWAP1 POP PUSH1 0x0 PUSH1 0x1 JUMPDEST PUSH1 0x1 DUP1 SLOAD PUSH2 0xB11 SWAP2 PUSH2 0x296E JUMP JUMPDEST DUP2 LT ISZERO PUSH2 0xC1B JUMPI PUSH1 0x0 DUP2 DUP2 MSTORE PUSH1 0x5 PUSH1 0x20 MSTORE PUSH1 0x40 SWAP1 KECCAK256 PUSH1 0x2 ADD SLOAD PUSH1 0x1 PUSH1 0x1 PUSH1 0xA0 SHL SUB DUP1 DUP9 AND SWAP2 AND SUB PUSH2 0xC09 JUMPI PUSH1 0x0 DUP2 DUP2 MSTORE PUSH1 0x5 PUSH1 0x20 DUP2 DUP2 MSTORE PUSH1 0x40 SWAP3 DUP4 SWAP1 KECCAK256 DUP4 MLOAD PUSH2 0x100 DUP2 ADD DUP6 MSTORE DUP2 SLOAD DUP2 MSTORE PUSH1 0x1 DUP3 ADD SLOAD PUSH1 0x1 PUSH1 0x1 PUSH1 0xA0 SHL SUB SWAP1 DUP2 AND SWAP4 DUP3 ADD SWAP4 SWAP1 SWAP4 MSTORE PUSH1 0x2 DUP3 ADD SLOAD SWAP1 SWAP3 AND SWAP4 DUP3 ADD SWAP4 SWAP1 SWAP4 MSTORE PUSH1 0x3 DUP4 ADD SLOAD PUSH1 0x60 DUP3 ADD MSTORE PUSH1 0x4 DUP4 ADD SLOAD PUSH1 0x80 DUP3 ADD MSTORE DUP3 DUP3 ADD SLOAD SWAP1 SWAP3 SWAP2 PUSH1 0xA0 DUP5 ADD SWAP2 PUSH1 0xFF AND SWAP1 DUP2 GT ISZERO PUSH2 0xBB4 JUMPI PUSH2 0xBB4 PUSH2 0x24A5 JUMP JUMPDEST PUSH1 0x5 DUP2 GT ISZERO PUSH2 0xBC5 JUMPI PUSH2 0xBC5 PUSH2 0x24A5 JUMP JUMPDEST DUP2 MSTORE PUSH1 0x20 ADD PUSH1 0x6 DUP3 ADD SLOAD DUP2 MSTORE PUSH1 0x20 ADD PUSH1 0x7 DUP3 ADD SLOAD DUP2 MSTORE POP POP DUP4 DUP4 DUP2 MLOAD DUP2 LT PUSH2 0xBEF JUMPI PUSH2 0xBEF PUSH2 0x2941 JUMP JUMPDEST PUSH1 0x20 MUL PUSH1 0x20 ADD ADD DUP2 SWAP1 MSTORE POP DUP2 DUP1 PUSH2 0xC05 SWAP1 PUSH2 0x2981 JUMP JUMPDEST SWAP3 POP POP JUMPDEST DUP1 PUSH2 0xC13 DUP2 PUSH2 0x2981 JUMP JUMPDEST SWAP2 POP POP PUSH2 0xB04 JUMP JUMPDEST POP SWAP1 SWAP5 SWAP4 POP POP POP POP JUMP JUMPDEST PUSH1 0x0 DUP3 GT DUP1 ISZERO PUSH2 0xC37 JUMPI POP PUSH1 0x0 SLOAD DUP3 GT ISZERO JUMPDEST PUSH2 0xC7C JUMPI PUSH1 0x40 MLOAD PUSH3 0x461BCD PUSH1 0xE5 SHL DUP2 MSTORE PUSH1 0x20 PUSH1 0x4 DUP3 ADD MSTORE PUSH1 0x16 PUSH1 0x24 DUP3 ADD MSTORE PUSH22 0x141C9BD91D58DD08191BD95CC81B9BDD08195E1A5CDD PUSH1 0x52 SHL PUSH1 0x44 DUP3 ADD MSTORE PUSH1 0x64 ADD PUSH2 0x783 JUMP JUMPDEST PUSH1 0x0 PUSH1 0x3 PUSH2 0xC8B PUSH1 0x1 DUP6 PUSH2 0x292E JUMP JUMPDEST DUP2 SLOAD DUP2 LT PUSH2 0xC9B JUMPI PUSH2 0xC9B PUSH2 0x2941 JUMP JUMPDEST SWAP1 PUSH1 0x0 MSTORE PUSH1 0x20 PUSH1 0x0 KECCAK256 SWAP1 PUSH1 0x8 MUL ADD PUSH1 0x40 MLOAD DUP1 PUSH2 0x100 ADD PUSH1 0x40 MSTORE SWAP1 DUP2 PUSH1 0x0 DUP3 ADD SLOAD DUP2 MSTORE PUSH1 0x20 ADD PUSH1 0x1 DUP3 ADD PUSH1 0x0 SWAP1 SLOAD SWAP1 PUSH2 0x100 EXP SWAP1 DIV PUSH1 0x1 PUSH1 0x1 PUSH1 0xA0 SHL SUB AND PUSH1 0x1 PUSH1 0x1 PUSH1 0xA0 SHL SUB AND PUSH1 0x1 PUSH1 0x1 PUSH1 0xA0 SHL SUB AND DUP2 MSTORE PUSH1 0x20 ADD PUSH1 0x2 DUP3 ADD DUP1 SLOAD PUSH2 0xCFE SWAP1 PUSH2 0x2896 JUMP JUMPDEST DUP1 PUSH1 0x1F ADD PUSH1 0x20 DUP1 SWAP2 DIV MUL PUSH1 0x20 ADD PUSH1 0x40 MLOAD SWAP1 DUP2 ADD PUSH1 0x40 MSTORE DUP1 SWAP3 SWAP2 SWAP1 DUP2 DUP2 MSTORE PUSH1 0x20 ADD DUP3 DUP1 SLOAD PUSH2 0xD2A SWAP1 PUSH2 0x2896 JUMP JUMPDEST DUP1 ISZERO PUSH2 0xD77 JUMPI DUP1 PUSH1 0x1F LT PUSH2 0xD4C JUMPI PUSH2 0x100 DUP1 DUP4 SLOAD DIV MUL DUP4 MSTORE SWAP2 PUSH1 0x20 ADD SWAP2 PUSH2 0xD77 JUMP JUMPDEST DUP3 ADD SWAP2 SWAP1 PUSH1 0x0 MSTORE PUSH1 0x20 PUSH1 0x0 KECCAK256 SWAP1 JUMPDEST DUP2 SLOAD DUP2 MSTORE SWAP1 PUSH1 0x1 ADD SWAP1 PUSH1 0x20 ADD DUP1 DUP4 GT PUSH2 0xD5A JUMPI DUP3 SWAP1 SUB PUSH1 0x1F AND DUP3 ADD SWAP2 JUMPDEST POP POP POP POP POP DUP2 MSTORE PUSH1 0x20 ADD PUSH1 0x3 DUP3 ADD DUP1 SLOAD PUSH2 0xD90 SWAP1 PUSH2 0x2896 JUMP JUMPDEST DUP1 PUSH1 0x1F ADD PUSH1 0x20 DUP1 SWAP2 DIV MUL PUSH1 0x20 ADD PUSH1 0x40 MLOAD SWAP1 DUP2 ADD PUSH1 0x40 MSTORE DUP1 SWAP3 SWAP2 SWAP1 DUP2 DUP2 MSTORE PUSH1 0x20 ADD DUP3 DUP1 SLOAD PUSH2 0xDBC SWAP1 PUSH2 0x2896 JUMP JUMPDEST DUP1 ISZERO PUSH2 0xE09 JUMPI DUP1 PUSH1 0x1F LT PUSH2 0xDDE JUMPI PUSH2 0x100 DUP1 DUP4 SLOAD DIV MUL DUP4 MSTORE SWAP2 PUSH1 0x20 ADD SWAP2 PUSH2 0xE09 JUMP JUMPDEST DUP3 ADD SWAP2 SWAP1 PUSH1 0x0 MSTORE PUSH1 0x20 PUSH1 0x0 KECCAK256 SWAP1 JUMPDEST DUP2 SLOAD DUP2 MSTORE SWAP1 PUSH1 0x1 ADD SWAP1 PUSH1 0x20 ADD DUP1 DUP4 GT PUSH2 0xDEC JUMPI DUP3 SWAP1 SUB PUSH1 0x1F AND DUP3 ADD SWAP2 JUMPDEST POP POP POP POP POP DUP2 MSTORE PUSH1 0x20 ADD PUSH1 0x4 DUP3 ADD SLOAD DUP2 MSTORE PUSH1 0x20 ADD PUSH1 0x5 DUP3 ADD DUP1 SLOAD PUSH2 0xE2C SWAP1 PUSH2 0x2896 JUMP JUMPDEST DUP1 PUSH1 0x1F ADD PUSH1 0x20 DUP1 SWAP2 DIV MUL PUSH1 0x20 ADD PUSH1 0x40 MLOAD SWAP1 DUP2 ADD PUSH1 0x40 MSTORE DUP1 SWAP3 SWAP2 SWAP1 DUP2 DUP2 MSTORE PUSH1 0x20 ADD DUP3 DUP1 SLOAD PUSH2 0xE58 SWAP1 PUSH2 0x2896 JUMP JUMPDEST DUP1 ISZERO PUSH2 0xEA5 JUMPI DUP1 PUSH1 0x1F LT PUSH2 0xE7A JUMPI PUSH2 0x100 DUP1 DUP4 SLOAD DIV MUL DUP4 MSTORE SWAP2 PUSH1 0x20 ADD SWAP2 PUSH2 0xEA5 JUMP JUMPDEST DUP3 ADD SWAP2 SWAP1 PUSH1 0x0 MSTORE PUSH1 0x20 PUSH1 0x0 KECCAK256 SWAP1 JUMPDEST DUP2 SLOAD DUP2 MSTORE SWAP1 PUSH1 0x1 ADD SWAP1 PUSH1 0x20 ADD DUP1 DUP4 GT PUSH2 0xE88 JUMPI DUP3 SWAP1 SUB PUSH1 0x1F AND DUP3 ADD SWAP2 JUMPDEST POP POP POP POP POP DUP2 MSTORE PUSH1 0x20 ADD PUSH1 0x6 DUP3 ADD DUP1 SLOAD PUSH2 0xEBE SWAP1 PUSH2 0x2896 JUMP JUMPDEST DUP1 PUSH1 0x1F ADD PUSH1 0x20 DUP1 SWAP2 DIV MUL PUSH1 0x20 ADD PUSH1 0x40 MLOAD SWAP1 DUP2 ADD PUSH1 0x40 MSTORE DUP1 SWAP3 SWAP2 SWAP1 DUP2 DUP2 MSTORE PUSH1 0x20 ADD DUP3 DUP1 SLOAD PUSH2 0xEEA SWAP1 PUSH2 0x2896 JUMP JUMPDEST DUP1 ISZERO PUSH2 0xF37 JUMPI DUP1 PUSH1 0x1F LT PUSH2 0xF0C JUMPI PUSH2 0x100 DUP1 DUP4 SLOAD DIV MUL DUP4 MSTORE SWAP2 PUSH1 0x20 ADD SWAP2 PUSH2 0xF37 JUMP JUMPDEST DUP3 ADD SWAP2 SWAP1 PUSH1 0x0 MSTORE PUSH1 0x20 PUSH1 0x0 KECCAK256 SWAP1 JUMPDEST DUP2 SLOAD DUP2 MSTORE SWAP1 PUSH1 0x1 ADD SWAP1 PUSH1 0x20 ADD DUP1 DUP4 GT PUSH2 0xF1A JUMPI DUP3 SWAP1 SUB PUSH1 0x1F AND DUP3 ADD SWAP2 JUMPDEST POP POP POP POP POP DUP2 MSTORE PUSH1 0x20 ADD PUSH1 0x7 DUP3 ADD DUP1 SLOAD PUSH2 0xF50 SWAP1 PUSH2 0x2896 JUMP JUMPDEST DUP1 PUSH1 0x1F ADD PUSH1 0x20 DUP1 SWAP2 DIV MUL PUSH1 0x20 ADD PUSH1 0x40 MLOAD SWAP1 DUP2 ADD PUSH1 0x40 MSTORE DUP1 SWAP3 SWAP2 SWAP1 DUP2 DUP2 MSTORE PUSH1 0x20 ADD DUP3 DUP1 SLOAD PUSH2 0xF7C SWAP1 PUSH2 0x2896 JUMP JUMPDEST DUP1 ISZERO PUSH2 0xFC9 JUMPI DUP1 PUSH1 0x1F LT PUSH2 0xF9E JUMPI PUSH2 0x100 DUP1 DUP4 SLOAD DIV MUL DUP4 MSTORE SWAP2 PUSH1 0x20 ADD SWAP2 PUSH2 0xFC9 JUMP JUMPDEST DUP3 ADD SWAP2 SWAP1 PUSH1 0x0 MSTORE PUSH1 0x20 PUSH1 0x0 KECCAK256 SWAP1 JUMPDEST DUP2 SLOAD DUP2 MSTORE SWAP1 PUSH1 0x1 ADD SWAP1 PUSH1 0x20 ADD DUP1 DUP4 GT PUSH2 0xFAC JUMPI DUP3 SWAP1 SUB PUSH1 0x1F AND DUP3 ADD SWAP2 JUMPDEST POP POP POP POP POP DUP2 MSTORE POP POP SWAP1 POP DUP1 PUSH1 0x20 ADD MLOAD PUSH1 0x1 PUSH1 0x1 PUSH1 0xA0 SHL SUB AND CALLER PUSH1 0x1 PUSH1 0x1 PUSH1 0xA0 SHL SUB AND SUB PUSH2 0x100A JUMPI PUSH1 0x40 MLOAD PUSH4 0x89A9C0B PUSH1 0xE3 SHL DUP2 MSTORE PUSH1 0x4 ADD PUSH1 0x40 MLOAD DUP1 SWAP2 SUB SWAP1 REVERT JUMPDEST PUSH1 0x1 DUP1 SLOAD SWAP1 PUSH1 0x0 PUSH2 0x101A DUP4 PUSH2 0x2981 JUMP JUMPDEST SWAP2 SWAP1 POP SSTORE POP PUSH1 0x0 PUSH1 0x40 MLOAD DUP1 PUSH2 0x100 ADD PUSH1 0x40 MSTORE DUP1 PUSH1 0x1 SLOAD DUP2 MSTORE PUSH1 0x20 ADD CALLER PUSH1 0x1 PUSH1 0x1 PUSH1 0xA0 SHL SUB AND DUP2 MSTORE PUSH1 0x20 ADD DUP4 PUSH1 0x20 ADD MLOAD PUSH1 0x1 PUSH1 0x1 PUSH1 0xA0 SHL SUB AND DUP2 MSTORE PUSH1 0x20 ADD DUP6 DUP2 MSTORE PUSH1 0x20 ADD DUP5 DUP2 MSTORE PUSH1 0x20 ADD PUSH1 0x0 PUSH1 0x5 DUP2 GT ISZERO PUSH2 0x1076 JUMPI PUSH2 0x1076 PUSH2 0x24A5 JUMP JUMPDEST DUP2 MSTORE PUSH1 0x20 ADD DUP4 PUSH1 0x80 ADD MLOAD DUP6 PUSH2 0x108B SWAP2 SWAP1 PUSH2 0x2957 JUMP JUMPDEST PUSH2 0x1096 SWAP1 PUSH1 0x3 PUSH2 0x2957 JUMP JUMPDEST DUP2 MSTORE PUSH1 0x20 ADD DUP4 PUSH1 0x80 ADD MLOAD DUP6 PUSH2 0x10AB SWAP2 SWAP1 PUSH2 0x2957 JUMP JUMPDEST PUSH2 0x10B6 SWAP1 PUSH1 0x2 PUSH2 0x2957 JUMP JUMPDEST SWAP1 MSTORE PUSH1 0x1 DUP1 SLOAD PUSH1 0x0 SWAP1 DUP2 MSTORE PUSH1 0x5 PUSH1 0x20 DUP2 DUP2 MSTORE PUSH1 0x40 SWAP3 DUP4 SWAP1 KECCAK256 DUP6 MLOAD DUP2 SSTORE SWAP1 DUP6 ADD MLOAD DUP2 DUP6 ADD DUP1 SLOAD PUSH1 0x1 PUSH1 0x1 PUSH1 0xA0 SHL SUB NOT SWAP1 DUP2 AND PUSH1 0x1 PUSH1 0x1 PUSH1 0xA0 SHL SUB SWAP4 DUP5 AND OR SWAP1 SWAP2 SSTORE SWAP4 DUP7 ADD MLOAD PUSH1 0x2 DUP4 ADD DUP1 SLOAD SWAP1 SWAP6 AND SWAP2 AND OR SWAP1 SWAP3 SSTORE PUSH1 0x60 DUP5 ADD MLOAD PUSH1 0x3 DUP4 ADD SSTORE PUSH1 0x80 DUP5 ADD MLOAD PUSH1 0x4 DUP4 ADD SSTORE PUSH1 0xA0 DUP5 ADD MLOAD DUP3 DUP3 ADD DUP1 SLOAD SWAP6 SWAP7 POP DUP7 SWAP6 SWAP4 SWAP5 SWAP2 SWAP4 SWAP1 SWAP3 PUSH1 0xFF NOT SWAP1 SWAP2 AND SWAP2 SWAP1 DUP5 SWAP1 DUP2 GT ISZERO PUSH2 0x114B JUMPI PUSH2 0x114B PUSH2 0x24A5 JUMP JUMPDEST MUL OR SWAP1 SSTORE POP PUSH1 0xC0 DUP3 ADD MLOAD DUP2 PUSH1 0x6 ADD SSTORE PUSH1 0xE0 DUP3 ADD MLOAD DUP2 PUSH1 0x7 ADD SSTORE SWAP1 POP POP DUP1 PUSH1 0x40 ADD MLOAD PUSH1 0x1 PUSH1 0x1 PUSH1 0xA0 SHL SUB AND DUP2 PUSH1 0x20 ADD MLOAD PUSH1 0x1 PUSH1 0x1 PUSH1 0xA0 SHL SUB AND DUP3 PUSH1 0x0 ADD MLOAD PUSH32 0x453D784C8814F056CE472D29A9CE8D3E5323675F6CD22743EB24245D8AE2EC27 DUP5 PUSH1 0x60 ADD MLOAD DUP6 PUSH1 0x80 ADD MLOAD DUP7 PUSH1 0xA0 ADD MLOAD PUSH1 0x40 MLOAD PUSH2 0x11C7 SWAP4 SWAP3 SWAP2 SWAP1 PUSH2 0x299A JUMP JUMPDEST PUSH1 0x40 MLOAD DUP1 SWAP2 SUB SWAP1 LOG4 POP POP POP POP JUMP JUMPDEST CALLER PUSH1 0x0 SWAP1 DUP2 MSTORE PUSH1 0x4 PUSH1 0x20 SWAP1 DUP2 MSTORE PUSH1 0x40 DUP1 DUP4 KECCAK256 DUP1 SLOAD DUP3 MLOAD DUP2 DUP6 MUL DUP2 ADD DUP6 ADD SWAP1 SWAP4 MSTORE DUP1 DUP4 MSTORE PUSH1 0x60 SWAP5 SWAP3 SWAP4 SWAP2 SWAP3 SWAP1 SWAP2 DUP5 ADD JUMPDEST DUP3 DUP3 LT ISZERO PUSH2 0x153B JUMPI PUSH1 0x0 DUP5 DUP2 MSTORE PUSH1 0x20 SWAP1 DUP2 SWAP1 KECCAK256 PUSH1 0x40 DUP1 MLOAD PUSH2 0x100 DUP2 ADD DUP3 MSTORE PUSH1 0x8 DUP7 MUL SWAP1 SWAP3 ADD DUP1 SLOAD DUP4 MSTORE PUSH1 0x1 DUP2 ADD SLOAD PUSH1 0x1 PUSH1 0x1 PUSH1 0xA0 SHL SUB AND SWAP4 DUP4 ADD SWAP4 SWAP1 SWAP4 MSTORE PUSH1 0x2 DUP4 ADD DUP1 SLOAD SWAP3 SWAP4 SWAP3 SWAP2 DUP5 ADD SWAP2 PUSH2 0x1258 SWAP1 PUSH2 0x2896 JUMP JUMPDEST DUP1 PUSH1 0x1F ADD PUSH1 0x20 DUP1 SWAP2 DIV MUL PUSH1 0x20 ADD PUSH1 0x40 MLOAD SWAP1 DUP2 ADD PUSH1 0x40 MSTORE DUP1 SWAP3 SWAP2 SWAP1 DUP2 DUP2 MSTORE PUSH1 0x20 ADD DUP3 DUP1 SLOAD PUSH2 0x1284 SWAP1 PUSH2 0x2896 JUMP JUMPDEST DUP1 ISZERO PUSH2 0x12D1 JUMPI DUP1 PUSH1 0x1F LT PUSH2 0x12A6 JUMPI PUSH2 0x100 DUP1 DUP4 SLOAD DIV MUL DUP4 MSTORE SWAP2 PUSH1 0x20 ADD SWAP2 PUSH2 0x12D1 JUMP JUMPDEST DUP3 ADD SWAP2 SWAP1 PUSH1 0x0 MSTORE PUSH1 0x20 PUSH1 0x0 KECCAK256 SWAP1 JUMPDEST DUP2 SLOAD DUP2 MSTORE SWAP1 PUSH1 0x1 ADD SWAP1 PUSH1 0x20 ADD DUP1 DUP4 GT PUSH2 0x12B4 JUMPI DUP3 SWAP1 SUB PUSH1 0x1F AND DUP3 ADD SWAP2 JUMPDEST POP POP POP POP POP DUP2 MSTORE PUSH1 0x20 ADD PUSH1 0x3 DUP3 ADD DUP1 SLOAD PUSH2 0x12EA SWAP1 PUSH2 0x2896 JUMP JUMPDEST DUP1 PUSH1 0x1F ADD PUSH1 0x20 DUP1 SWAP2 DIV MUL PUSH1 0x20 ADD PUSH1 0x40 MLOAD SWAP1 DUP2 ADD PUSH1 0x40 MSTORE DUP1 SWAP3 SWAP2 SWAP1 DUP2 DUP2 MSTORE PUSH1 0x20 ADD DUP3 DUP1 SLOAD PUSH2 0x1316 SWAP1 PUSH2 0x2896 JUMP JUMPDEST DUP1 ISZERO PUSH2 0x1363 JUMPI DUP1 PUSH1 0x1F LT PUSH2 0x1338 JUMPI PUSH2 0x100 DUP1 DUP4 SLOAD DIV MUL DUP4 MSTORE SWAP2 PUSH1 0x20 ADD SWAP2 PUSH2 0x1363 JUMP JUMPDEST DUP3 ADD SWAP2 SWAP1 PUSH1 0x0 MSTORE PUSH1 0x20 PUSH1 0x0 KECCAK256 SWAP1 JUMPDEST DUP2 SLOAD DUP2 MSTORE SWAP1 PUSH1 0x1 ADD SWAP1 PUSH1 0x20 ADD DUP1 DUP4 GT PUSH2 0x1346 JUMPI DUP3 SWAP1 SUB PUSH1 0x1F AND DUP3 ADD SWAP2 JUMPDEST POP POP POP POP POP DUP2 MSTORE PUSH1 0x20 ADD PUSH1 0x4 DUP3 ADD SLOAD DUP2 MSTORE PUSH1 0x20 ADD PUSH1 0x5 DUP3 ADD DUP1 SLOAD PUSH2 0x1386 SWAP1 PUSH2 0x2896 JUMP JUMPDEST DUP1 PUSH1 0x1F ADD PUSH1 0x20 DUP1 SWAP2 DIV MUL PUSH1 0x20 ADD PUSH1 0x40 MLOAD SWAP1 DUP2 ADD PUSH1 0x40 MSTORE DUP1 SWAP3 SWAP2 SWAP1 DUP2 DUP2 MSTORE PUSH1 0x20 ADD DUP3 DUP1 SLOAD PUSH2 0x13B2 SWAP1 PUSH2 0x2896 JUMP JUMPDEST DUP1 ISZERO PUSH2 0x13FF JUMPI DUP1 PUSH1 0x1F LT PUSH2 0x13D4 JUMPI PUSH2 0x100 DUP1 DUP4 SLOAD DIV MUL DUP4 MSTORE SWAP2 PUSH1 0x20 ADD SWAP2 PUSH2 0x13FF JUMP JUMPDEST DUP3 ADD SWAP2 SWAP1 PUSH1 0x0 MSTORE PUSH1 0x20 PUSH1 0x0 KECCAK256 SWAP1 JUMPDEST DUP2 SLOAD DUP2 MSTORE SWAP1 PUSH1 0x1 ADD SWAP1 PUSH1 0x20 ADD DUP1 DUP4 GT PUSH2 0x13E2 JUMPI DUP3 SWAP1 SUB PUSH1 0x1F AND DUP3 ADD SWAP2 JUMPDEST POP POP POP POP POP DUP2 MSTORE PUSH1 0x20 ADD PUSH1 0x6 DUP3 ADD DUP1 SLOAD PUSH2 0x1418 SWAP1 PUSH2 0x2896 JUMP JUMPDEST DUP1 PUSH1 0x1F ADD PUSH1 0x20 DUP1 SWAP2 DIV MUL PUSH1 0x20 ADD PUSH1 0x40 MLOAD SWAP1 DUP2 ADD PUSH1 0x40 MSTORE DUP1 SWAP3 SWAP2 SWAP1 DUP2 DUP2 MSTORE PUSH1 0x20 ADD DUP3 DUP1 SLOAD PUSH2 0x1444 SWAP1 PUSH2 0x2896 JUMP JUMPDEST DUP1 ISZERO PUSH2 0x1491 JUMPI DUP1 PUSH1 0x1F LT PUSH2 0x1466 JUMPI PUSH2 0x100 DUP1 DUP4 SLOAD DIV MUL DUP4 MSTORE SWAP2 PUSH1 0x20 ADD SWAP2 PUSH2 0x1491 JUMP JUMPDEST DUP3 ADD SWAP2 SWAP1 PUSH1 0x0 MSTORE PUSH1 0x20 PUSH1 0x0 KECCAK256 SWAP1 JUMPDEST DUP2 SLOAD DUP2 MSTORE SWAP1 PUSH1 0x1 ADD SWAP1 PUSH1 0x20 ADD DUP1 DUP4 GT PUSH2 0x1474 JUMPI DUP3 SWAP1 SUB PUSH1 0x1F AND DUP3 ADD SWAP2 JUMPDEST POP POP POP POP POP DUP2 MSTORE PUSH1 0x20 ADD PUSH1 0x7 DUP3 ADD DUP1 SLOAD PUSH2 0x14AA SWAP1 PUSH2 0x2896 JUMP JUMPDEST DUP1 PUSH1 0x1F ADD PUSH1 0x20 DUP1 SWAP2 DIV MUL PUSH1 0x20 ADD PUSH1 0x40 MLOAD SWAP1 DUP2 ADD PUSH1 0x40 MSTORE DUP1 SWAP3 SWAP2 SWAP1 DUP2 DUP2 MSTORE PUSH1 0x20 ADD DUP3 DUP1 SLOAD PUSH2 0x14D6 SWAP1 PUSH2 0x2896 JUMP JUMPDEST DUP1 ISZERO PUSH2 0x1523 JUMPI DUP1 PUSH1 0x1F LT PUSH2 0x14F8 JUMPI PUSH2 0x100 DUP1 DUP4 SLOAD DIV MUL DUP4 MSTORE SWAP2 PUSH1 0x20 ADD SWAP2 PUSH2 0x1523 JUMP JUMPDEST DUP3 ADD SWAP2 SWAP1 PUSH1 0x0 MSTORE PUSH1 0x20 PUSH1 0x0 KECCAK256 SWAP1 JUMPDEST DUP2 SLOAD DUP2 MSTORE SWAP1 PUSH1 0x1 ADD SWAP1 PUSH1 0x20 ADD DUP1 DUP4 GT PUSH2 0x1506 JUMPI DUP3 SWAP1 SUB PUSH1 0x1F AND DUP3 ADD SWAP2 JUMPDEST POP POP POP POP POP DUP2 MSTORE POP POP DUP2 MSTORE PUSH1 0x20 ADD SWAP1 PUSH1 0x1 ADD SWAP1 PUSH2 0x1204 JUMP JUMPDEST POP POP POP POP SWAP1 POP SWAP1 JUMP JUMPDEST PUSH1 0x2 SLOAD PUSH1 0x0 SWAP1 PUSH1 0x1 PUSH1 0x1 PUSH1 0xA0 SHL SUB AND CALLER EQ PUSH2 0x1571 JUMPI PUSH1 0x40 MLOAD PUSH3 0x461BCD PUSH1 0xE5 SHL DUP2 MSTORE PUSH1 0x4 ADD PUSH2 0x783 SWAP1 PUSH2 0x28D0 JUMP JUMPDEST PUSH1 0x0 PUSH1 0x1 JUMPDEST PUSH1 0x1 SLOAD DUP2 GT PUSH2 0x871 JUMPI PUSH1 0x0 DUP2 DUP2 MSTORE PUSH1 0x5 PUSH1 0x20 MSTORE PUSH1 0x40 SWAP1 KECCAK256 PUSH1 0x1 ADD SLOAD PUSH1 0x1 PUSH1 0x1 PUSH1 0xA0 SHL SUB DUP6 DUP2 AND SWAP2 AND EQ DUP1 ISZERO PUSH2 0x15CF JUMPI POP PUSH1 0x0 DUP2 DUP2 MSTORE PUSH1 0x5 PUSH1 0x20 DUP2 SWAP1 MSTORE PUSH1 0x40 SWAP1 SWAP2 KECCAK256 DUP2 ADD SLOAD PUSH1 0xFF AND DUP2 DUP2 GT ISZERO PUSH2 0x15CD JUMPI PUSH2 0x15CD PUSH2 0x24A5 JUMP JUMPDEST EQ JUMPDEST ISZERO PUSH2 0x1644 JUMPI PUSH1 0x0 DUP2 DUP2 MSTORE PUSH1 0x5 PUSH1 0x20 MSTORE PUSH1 0x40 SWAP1 KECCAK256 PUSH1 0x3 SWAP1 DUP2 ADD SLOAD PUSH2 0x15F4 SWAP1 PUSH1 0x1 SWAP1 PUSH2 0x292E JUMP JUMPDEST DUP2 SLOAD DUP2 LT PUSH2 0x1604 JUMPI PUSH2 0x1604 PUSH2 0x2941 JUMP JUMPDEST SWAP1 PUSH1 0x0 MSTORE PUSH1 0x20 PUSH1 0x0 KECCAK256 SWAP1 PUSH1 0x8 MUL ADD PUSH1 0x4 ADD SLOAD PUSH1 0x5 PUSH1 0x0 DUP4 DUP2 MSTORE PUSH1 0x20 ADD SWAP1 DUP2 MSTORE PUSH1 0x20 ADD PUSH1 0x0 KECCAK256 PUSH1 0x4 ADD SLOAD PUSH2 0x1637 SWAP2 SWAP1 PUSH2 0x2957 JUMP JUMPDEST PUSH2 0x1641 SWAP1 DUP4 PUSH2 0x296E JUMP JUMPDEST SWAP2 POP JUMPDEST DUP1 PUSH2 0x164E DUP2 PUSH2 0x2981 JUMP JUMPDEST SWAP2 POP POP PUSH2 0x1576 JUMP JUMPDEST PUSH1 0x0 DUP2 DUP2 MSTORE PUSH1 0x5 PUSH1 0x20 MSTORE PUSH1 0x40 SWAP1 KECCAK256 PUSH1 0x3 PUSH1 0x5 DUP1 DUP4 ADD SLOAD PUSH1 0xFF AND SWAP1 DUP2 GT ISZERO PUSH2 0x167F JUMPI PUSH2 0x167F PUSH2 0x24A5 JUMP JUMPDEST EQ PUSH2 0x169D JUMPI PUSH1 0x40 MLOAD PUSH4 0xBAF3F0F7 PUSH1 0xE0 SHL DUP2 MSTORE PUSH1 0x4 ADD PUSH1 0x40 MLOAD DUP1 SWAP2 SUB SWAP1 REVERT JUMPDEST PUSH1 0x2 DUP2 ADD SLOAD PUSH1 0x1 PUSH1 0x1 PUSH1 0xA0 SHL SUB AND CALLER EQ PUSH2 0x16CA JUMPI PUSH1 0x40 MLOAD PUSH4 0x86EFBB55 PUSH1 0xE0 SHL DUP2 MSTORE PUSH1 0x4 ADD PUSH1 0x40 MLOAD DUP1 SWAP2 SUB SWAP1 REVERT JUMPDEST PUSH1 0x5 DUP2 DUP2 ADD DUP1 SLOAD PUSH1 0xFF NOT AND SWAP1 SWAP2 OR SWAP1 SSTORE PUSH1 0x6 DUP2 ADD SLOAD PUSH1 0x40 MLOAD CALLER SWAP2 PUSH2 0x8FC DUP2 ISZERO MUL SWAP2 PUSH1 0x0 DUP2 DUP2 DUP2 DUP6 DUP9 DUP9 CALL SWAP4 POP POP POP POP ISZERO DUP1 ISZERO PUSH2 0x170A JUMPI RETURNDATASIZE PUSH1 0x0 DUP1 RETURNDATACOPY RETURNDATASIZE PUSH1 0x0 REVERT JUMPDEST POP POP POP JUMP JUMPDEST PUSH1 0x3 DUP2 DUP2 SLOAD DUP2 LT PUSH2 0x171F JUMPI PUSH1 0x0 DUP1 REVERT JUMPDEST PUSH1 0x0 SWAP2 DUP3 MSTORE PUSH1 0x20 SWAP1 SWAP2 KECCAK256 PUSH1 0x8 SWAP1 SWAP2 MUL ADD DUP1 SLOAD PUSH1 0x1 DUP3 ADD SLOAD PUSH1 0x2 DUP4 ADD DUP1 SLOAD SWAP3 SWAP5 POP PUSH1 0x1 PUSH1 0x1 PUSH1 0xA0 SHL SUB SWAP1 SWAP2 AND SWAP3 SWAP2 PUSH2 0x495 SWAP1 PUSH2 0x2896 JUMP JUMPDEST PUSH1 0x0 DUP2 DUP2 MSTORE PUSH1 0x5 PUSH1 0x20 MSTORE PUSH1 0x40 SWAP1 KECCAK256 PUSH1 0x1 PUSH1 0x5 DUP1 DUP4 ADD SLOAD PUSH1 0xFF AND SWAP1 DUP2 GT ISZERO PUSH2 0x177E JUMPI PUSH2 0x177E PUSH2 0x24A5 JUMP JUMPDEST EQ PUSH2 0x179C JUMPI PUSH1 0x40 MLOAD PUSH4 0xBAF3F0F7 PUSH1 0xE0 SHL DUP2 MSTORE PUSH1 0x4 ADD PUSH1 0x40 MLOAD DUP1 SWAP2 SUB SWAP1 REVERT JUMPDEST PUSH1 0x2 DUP2 ADD SLOAD PUSH1 0x1 PUSH1 0x1 PUSH1 0xA0 SHL SUB AND CALLER EQ PUSH2 0x17C9 JUMPI PUSH1 0x40 MLOAD PUSH4 0x42E8FB93 PUSH1 0xE1 SHL DUP2 MSTORE PUSH1 0x4 ADD PUSH1 0x40 MLOAD DUP1 SWAP2 SUB SWAP1 REVERT JUMPDEST PUSH1 0x5 DUP2 ADD DUP1 SLOAD PUSH1 0xFF NOT AND PUSH1 0x4 OR SWAP1 SSTORE PUSH1 0x7 DUP2 ADD SLOAD PUSH1 0x40 MLOAD CALLER SWAP2 PUSH2 0x8FC DUP2 ISZERO MUL SWAP2 PUSH1 0x0 DUP2 DUP2 DUP2 DUP6 DUP9 DUP9 CALL SWAP4 POP POP POP POP ISZERO DUP1 ISZERO PUSH2 0x170A JUMPI RETURNDATASIZE PUSH1 0x0 DUP1 RETURNDATACOPY RETURNDATASIZE PUSH1 0x0 REVERT JUMPDEST PUSH1 0x0 DUP2 DUP2 MSTORE PUSH1 0x5 PUSH1 0x20 MSTORE PUSH1 0x40 SWAP1 KECCAK256 PUSH1 0x2 PUSH1 0x5 DUP1 DUP4 ADD SLOAD PUSH1 0xFF AND SWAP1 DUP2 GT ISZERO PUSH2 0x1831 JUMPI PUSH2 0x1831 PUSH2 0x24A5 JUMP JUMPDEST EQ PUSH2 0x184F JUMPI PUSH1 0x40 MLOAD PUSH4 0xBAF3F0F7 PUSH1 0xE0 SHL DUP2 MSTORE PUSH1 0x4 ADD PUSH1 0x40 MLOAD DUP1 SWAP2 SUB SWAP1 REVERT JUMPDEST PUSH1 0x1 DUP2 ADD SLOAD PUSH1 0x1 PUSH1 0x1 PUSH1 0xA0 SHL SUB AND CALLER EQ PUSH2 0x187C JUMPI PUSH1 0x40 MLOAD PUSH4 0x86EFBB55 PUSH1 0xE0 SHL DUP2 MSTORE PUSH1 0x4 ADD PUSH1 0x40 MLOAD DUP1 SWAP2 SUB SWAP1 REVERT JUMPDEST PUSH1 0x5 DUP2 ADD DUP1 SLOAD PUSH1 0xFF NOT AND PUSH1 0x3 OR SWAP1 SSTORE PUSH1 0x7 DUP2 ADD SLOAD PUSH1 0x40 MLOAD CALLER SWAP2 PUSH2 0x8FC DUP2 ISZERO MUL SWAP2 PUSH1 0x0 DUP2 DUP2 DUP2 DUP6 DUP9 DUP9 CALL SWAP4 POP POP POP POP ISZERO DUP1 ISZERO PUSH2 0x18BB JUMPI RETURNDATASIZE PUSH1 0x0 DUP1 RETURNDATACOPY RETURNDATASIZE PUSH1 0x0 REVERT JUMPDEST POP PUSH1 0x2 DUP2 ADD SLOAD PUSH1 0x40 DUP1 MLOAD DUP5 DUP2 MSTORE PUSH1 0x1 PUSH1 0x1 PUSH1 0xA0 SHL SUB SWAP1 SWAP3 AND PUSH1 0x20 DUP4 ADD MSTORE PUSH32 0x15D848818F1C91D37B40B9DDA9B73C00755457572813583FE4C62E6FD66584AE SWAP2 ADD PUSH2 0xA3C JUMP JUMPDEST PUSH1 0x60 PUSH1 0x0 PUSH1 0x1 JUMPDEST PUSH1 0x1 DUP1 SLOAD PUSH2 0x1914 SWAP2 PUSH2 0x296E JUMP JUMPDEST DUP2 LT ISZERO PUSH2 0x195F JUMPI PUSH1 0x0 DUP2 DUP2 MSTORE PUSH1 0x5 PUSH1 0x20 MSTORE PUSH1 0x40 SWAP1 KECCAK256 PUSH1 0x1 ADD SLOAD PUSH1 0x1 PUSH1 0x1 PUSH1 0xA0 SHL SUB DUP1 DUP7 AND SWAP2 AND SUB PUSH2 0x194D JUMPI DUP2 PUSH2 0x1949 DUP2 PUSH2 0x2981 JUMP JUMPDEST SWAP3 POP POP JUMPDEST DUP1 PUSH2 0x1957 DUP2 PUSH2 0x2981 JUMP JUMPDEST SWAP2 POP POP PUSH2 0x1907 JUMP JUMPDEST POP PUSH1 0x0 DUP2 PUSH8 0xFFFFFFFFFFFFFFFF DUP2 GT ISZERO PUSH2 0x197B JUMPI PUSH2 0x197B PUSH2 0x2719 JUMP JUMPDEST PUSH1 0x40 MLOAD SWAP1 DUP1 DUP3 MSTORE DUP1 PUSH1 0x20 MUL PUSH1 0x20 ADD DUP3 ADD PUSH1 0x40 MSTORE DUP1 ISZERO PUSH2 0x19B4 JUMPI DUP2 PUSH1 0x20 ADD JUMPDEST PUSH2 0x19A1 PUSH2 0x230E JUMP JUMPDEST DUP2 MSTORE PUSH1 0x20 ADD SWAP1 PUSH1 0x1 SWAP1 SUB SWAP1 DUP2 PUSH2 0x1999 JUMPI SWAP1 POP JUMPDEST POP SWAP1 POP PUSH1 0x0 PUSH1 0x1 JUMPDEST PUSH1 0x1 DUP1 SLOAD PUSH2 0x19C9 SWAP2 PUSH2 0x296E JUMP JUMPDEST DUP2 LT ISZERO PUSH2 0xC1B JUMPI PUSH1 0x0 DUP2 DUP2 MSTORE PUSH1 0x5 PUSH1 0x20 MSTORE PUSH1 0x40 SWAP1 KECCAK256 PUSH1 0x1 ADD SLOAD PUSH1 0x1 PUSH1 0x1 PUSH1 0xA0 SHL SUB DUP1 DUP9 AND SWAP2 AND SUB PUSH2 0x1AC1 JUMPI PUSH1 0x0 DUP2 DUP2 MSTORE PUSH1 0x5 PUSH1 0x20 DUP2 DUP2 MSTORE PUSH1 0x40 SWAP3 DUP4 SWAP1 KECCAK256 DUP4 MLOAD PUSH2 0x100 DUP2 ADD DUP6 MSTORE DUP2 SLOAD DUP2 MSTORE PUSH1 0x1 DUP3 ADD SLOAD PUSH1 0x1 PUSH1 0x1 PUSH1 0xA0 SHL SUB SWAP1 DUP2 AND SWAP4 DUP3 ADD SWAP4 SWAP1 SWAP4 MSTORE PUSH1 0x2 DUP3 ADD SLOAD SWAP1 SWAP3 AND SWAP4 DUP3 ADD SWAP4 SWAP1 SWAP4 MSTORE PUSH1 0x3 DUP4 ADD SLOAD PUSH1 0x60 DUP3 ADD MSTORE PUSH1 0x4 DUP4 ADD SLOAD PUSH1 0x80 DUP3 ADD MSTORE DUP3 DUP3 ADD SLOAD SWAP1 SWAP3 SWAP2 PUSH1 0xA0 DUP5 ADD SWAP2 PUSH1 0xFF AND SWAP1 DUP2 GT ISZERO PUSH2 0x1A6C JUMPI PUSH2 0x1A6C PUSH2 0x24A5 JUMP JUMPDEST PUSH1 0x5 DUP2 GT ISZERO PUSH2 0x1A7D JUMPI PUSH2 0x1A7D PUSH2 0x24A5 JUMP JUMPDEST DUP2 MSTORE PUSH1 0x20 ADD PUSH1 0x6 DUP3 ADD SLOAD DUP2 MSTORE PUSH1 0x20 ADD PUSH1 0x7 DUP3 ADD SLOAD DUP2 MSTORE POP POP DUP4 DUP4 DUP2 MLOAD DUP2 LT PUSH2 0x1AA7 JUMPI PUSH2 0x1AA7 PUSH2 0x2941 JUMP JUMPDEST PUSH1 0x20 MUL PUSH1 0x20 ADD ADD DUP2 SWAP1 MSTORE POP DUP2 DUP1 PUSH2 0x1ABD SWAP1 PUSH2 0x2981 JUMP JUMPDEST SWAP3 POP POP JUMPDEST DUP1 PUSH2 0x1ACB DUP2 PUSH2 0x2981 JUMP JUMPDEST SWAP2 POP POP PUSH2 0x19BC JUMP JUMPDEST PUSH1 0x0 DUP2 DUP2 MSTORE PUSH1 0x5 PUSH1 0x20 MSTORE PUSH1 0x40 DUP2 KECCAK256 SWAP1 PUSH1 0x5 DUP1 DUP4 ADD SLOAD PUSH1 0xFF AND SWAP1 DUP2 GT ISZERO PUSH2 0x1AFB JUMPI PUSH2 0x1AFB PUSH2 0x24A5 JUMP JUMPDEST EQ PUSH2 0x1B19 JUMPI PUSH1 0x40 MLOAD PUSH4 0xBAF3F0F7 PUSH1 0xE0 SHL DUP2 MSTORE PUSH1 0x4 ADD PUSH1 0x40 MLOAD DUP1 SWAP2 SUB SWAP1 REVERT JUMPDEST PUSH1 0x1 DUP2 ADD SLOAD PUSH1 0x1 PUSH1 0x1 PUSH1 0xA0 SHL SUB AND CALLER EQ PUSH2 0x1B46 JUMPI PUSH1 0x40 MLOAD PUSH4 0x86EFBB55 PUSH1 0xE0 SHL DUP2 MSTORE PUSH1 0x4 ADD PUSH1 0x40 MLOAD DUP1 SWAP2 SUB SWAP1 REVERT JUMPDEST POP PUSH1 0x0 SWAP1 DUP2 MSTORE PUSH1 0x5 PUSH1 0x20 DUP2 SWAP1 MSTORE PUSH1 0x40 DUP3 KECCAK256 DUP3 DUP2 SSTORE PUSH1 0x1 DUP2 ADD DUP1 SLOAD PUSH1 0x1 PUSH1 0x1 PUSH1 0xA0 SHL SUB NOT SWAP1 DUP2 AND SWAP1 SWAP2 SSTORE PUSH1 0x2 DUP3 ADD DUP1 SLOAD SWAP1 SWAP2 AND SWAP1 SSTORE PUSH1 0x3 DUP2 ADD DUP4 SWAP1 SSTORE PUSH1 0x4 DUP2 ADD DUP4 SWAP1 SSTORE SWAP1 DUP2 ADD DUP1 SLOAD PUSH1 0xFF NOT AND SWAP1 SSTORE PUSH1 0x6 DUP2 ADD DUP3 SWAP1 SSTORE PUSH1 0x7 ADD SSTORE JUMP JUMPDEST PUSH1 0x60 PUSH1 0x3 DUP1 SLOAD DUP1 PUSH1 0x20 MUL PUSH1 0x20 ADD PUSH1 0x40 MLOAD SWAP1 DUP2 ADD PUSH1 0x40 MSTORE DUP1 SWAP3 SWAP2 SWAP1 DUP2 DUP2 MSTORE PUSH1 0x20 ADD PUSH1 0x0 SWAP1 JUMPDEST DUP3 DUP3 LT ISZERO PUSH2 0x153B JUMPI PUSH1 0x0 DUP5 DUP2 MSTORE PUSH1 0x20 SWAP1 DUP2 SWAP1 KECCAK256 PUSH1 0x40 DUP1 MLOAD PUSH2 0x100 DUP2 ADD DUP3 MSTORE PUSH1 0x8 DUP7 MUL SWAP1 SWAP3 ADD DUP1 SLOAD DUP4 MSTORE PUSH1 0x1 DUP2 ADD SLOAD PUSH1 0x1 PUSH1 0x1 PUSH1 0xA0 SHL SUB AND SWAP4 DUP4 ADD SWAP4 SWAP1 SWAP4 MSTORE PUSH1 0x2 DUP4 ADD DUP1 SLOAD SWAP3 SWAP4 SWAP3 SWAP2 DUP5 ADD SWAP2 PUSH2 0x1C18 SWAP1 PUSH2 0x2896 JUMP JUMPDEST DUP1 PUSH1 0x1F ADD PUSH1 0x20 DUP1 SWAP2 DIV MUL PUSH1 0x20 ADD PUSH1 0x40 MLOAD SWAP1 DUP2 ADD PUSH1 0x40 MSTORE DUP1 SWAP3 SWAP2 SWAP1 DUP2 DUP2 MSTORE PUSH1 0x20 ADD DUP3 DUP1 SLOAD PUSH2 0x1C44 SWAP1 PUSH2 0x2896 JUMP JUMPDEST DUP1 ISZERO PUSH2 0x1C91 JUMPI DUP1 PUSH1 0x1F LT PUSH2 0x1C66 JUMPI PUSH2 0x100 DUP1 DUP4 SLOAD DIV MUL DUP4 MSTORE SWAP2 PUSH1 0x20 ADD SWAP2 PUSH2 0x1C91 JUMP JUMPDEST DUP3 ADD SWAP2 SWAP1 PUSH1 0x0 MSTORE PUSH1 0x20 PUSH1 0x0 KECCAK256 SWAP1 JUMPDEST DUP2 SLOAD DUP2 MSTORE SWAP1 PUSH1 0x1 ADD SWAP1 PUSH1 0x20 ADD DUP1 DUP4 GT PUSH2 0x1C74 JUMPI DUP3 SWAP1 SUB PUSH1 0x1F AND DUP3 ADD SWAP2 JUMPDEST POP POP POP POP POP DUP2 MSTORE PUSH1 0x20 ADD PUSH1 0x3 DUP3 ADD DUP1 SLOAD PUSH2 0x1CAA SWAP1 PUSH2 0x2896 JUMP JUMPDEST DUP1 PUSH1 0x1F ADD PUSH1 0x20 DUP1 SWAP2 DIV MUL PUSH1 0x20 ADD PUSH1 0x40 MLOAD SWAP1 DUP2 ADD PUSH1 0x40 MSTORE DUP1 SWAP3 SWAP2 SWAP1 DUP2 DUP2 MSTORE PUSH1 0x20 ADD DUP3 DUP1 SLOAD PUSH2 0x1CD6 SWAP1 PUSH2 0x2896 JUMP JUMPDEST DUP1 ISZERO PUSH2 0x1D23 JUMPI DUP1 PUSH1 0x1F LT PUSH2 0x1CF8 JUMPI PUSH2 0x100 DUP1 DUP4 SLOAD DIV MUL DUP4 MSTORE SWAP2 PUSH1 0x20 ADD SWAP2 PUSH2 0x1D23 JUMP JUMPDEST DUP3 ADD SWAP2 SWAP1 PUSH1 0x0 MSTORE PUSH1 0x20 PUSH1 0x0 KECCAK256 SWAP1 JUMPDEST DUP2 SLOAD DUP2 MSTORE SWAP1 PUSH1 0x1 ADD SWAP1 PUSH1 0x20 ADD DUP1 DUP4 GT PUSH2 0x1D06 JUMPI DUP3 SWAP1 SUB PUSH1 0x1F AND DUP3 ADD SWAP2 JUMPDEST POP POP POP POP POP DUP2 MSTORE PUSH1 0x20 ADD PUSH1 0x4 DUP3 ADD SLOAD DUP2 MSTORE PUSH1 0x20 ADD PUSH1 0x5 DUP3 ADD DUP1 SLOAD PUSH2 0x1D46 SWAP1 PUSH2 0x2896 JUMP JUMPDEST DUP1 PUSH1 0x1F ADD PUSH1 0x20 DUP1 SWAP2 DIV MUL PUSH1 0x20 ADD PUSH1 0x40 MLOAD SWAP1 DUP2 ADD PUSH1 0x40 MSTORE DUP1 SWAP3 SWAP2 SWAP1 DUP2 DUP2 MSTORE PUSH1 0x20 ADD DUP3 DUP1 SLOAD PUSH2 0x1D72 SWAP1 PUSH2 0x2896 JUMP JUMPDEST DUP1 ISZERO PUSH2 0x1DBF JUMPI DUP1 PUSH1 0x1F LT PUSH2 0x1D94 JUMPI PUSH2 0x100 DUP1 DUP4 SLOAD DIV MUL DUP4 MSTORE SWAP2 PUSH1 0x20 ADD SWAP2 PUSH2 0x1DBF JUMP JUMPDEST DUP3 ADD SWAP2 SWAP1 PUSH1 0x0 MSTORE PUSH1 0x20 PUSH1 0x0 KECCAK256 SWAP1 JUMPDEST DUP2 SLOAD DUP2 MSTORE SWAP1 PUSH1 0x1 ADD SWAP1 PUSH1 0x20 ADD DUP1 DUP4 GT PUSH2 0x1DA2 JUMPI DUP3 SWAP1 SUB PUSH1 0x1F AND DUP3 ADD SWAP2 JUMPDEST POP POP POP POP POP DUP2 MSTORE PUSH1 0x20 ADD PUSH1 0x6 DUP3 ADD DUP1 SLOAD PUSH2 0x1DD8 SWAP1 PUSH2 0x2896 JUMP JUMPDEST DUP1 PUSH1 0x1F ADD PUSH1 0x20 DUP1 SWAP2 DIV MUL PUSH1 0x20 ADD PUSH1 0x40 MLOAD SWAP1 DUP2 ADD PUSH1 0x40 MSTORE DUP1 SWAP3 SWAP2 SWAP1 DUP2 DUP2 MSTORE PUSH1 0x20 ADD DUP3 DUP1 SLOAD PUSH2 0x1E04 SWAP1 PUSH2 0x2896 JUMP JUMPDEST DUP1 ISZERO PUSH2 0x1E51 JUMPI DUP1 PUSH1 0x1F LT PUSH2 0x1E26 JUMPI PUSH2 0x100 DUP1 DUP4 SLOAD DIV MUL DUP4 MSTORE SWAP2 PUSH1 0x20 ADD SWAP2 PUSH2 0x1E51 JUMP JUMPDEST DUP3 ADD SWAP2 SWAP1 PUSH1 0x0 MSTORE PUSH1 0x20 PUSH1 0x0 KECCAK256 SWAP1 JUMPDEST DUP2 SLOAD DUP2 MSTORE SWAP1 PUSH1 0x1 ADD SWAP1 PUSH1 0x20 ADD DUP1 DUP4 GT PUSH2 0x1E34 JUMPI DUP3 SWAP1 SUB PUSH1 0x1F AND DUP3 ADD SWAP2 JUMPDEST POP POP POP POP POP DUP2 MSTORE PUSH1 0x20 ADD PUSH1 0x7 DUP3 ADD DUP1 SLOAD PUSH2 0x1E6A SWAP1 PUSH2 0x2896 JUMP JUMPDEST DUP1 PUSH1 0x1F ADD PUSH1 0x20 DUP1 SWAP2 DIV MUL PUSH1 0x20 ADD PUSH1 0x40 MLOAD SWAP1 DUP2 ADD PUSH1 0x40 MSTORE DUP1 SWAP3 SWAP2 SWAP1 DUP2 DUP2 MSTORE PUSH1 0x20 ADD DUP3 DUP1 SLOAD PUSH2 0x1E96 SWAP1 PUSH2 0x2896 JUMP JUMPDEST DUP1 ISZERO PUSH2 0x1EE3 JUMPI DUP1 PUSH1 0x1F LT PUSH2 0x1EB8 JUMPI PUSH2 0x100 DUP1 DUP4 SLOAD DIV MUL DUP4 MSTORE SWAP2 PUSH1 0x20 ADD SWAP2 PUSH2 0x1EE3 JUMP JUMPDEST DUP3 ADD SWAP2 SWAP1 PUSH1 0x0 MSTORE PUSH1 0x20 PUSH1 0x0 KECCAK256 SWAP1 JUMPDEST DUP2 SLOAD DUP2 MSTORE SWAP1 PUSH1 0x1 ADD SWAP1 PUSH1 0x20 ADD DUP1 DUP4 GT PUSH2 0x1EC6 JUMPI DUP3 SWAP1 SUB PUSH1 0x1F AND DUP3 ADD SWAP2 JUMPDEST POP POP POP POP POP DUP2 MSTORE POP POP DUP2 MSTORE PUSH1 0x20 ADD SWAP1 PUSH1 0x1 ADD SWAP1 PUSH2 0x1BC4 JUMP JUMPDEST PUSH1 0x0 DUP2 DUP2 MSTORE PUSH1 0x5 PUSH1 0x20 MSTORE PUSH1 0x40 DUP2 KECCAK256 SWAP1 PUSH1 0x5 DUP1 DUP4 ADD SLOAD PUSH1 0xFF AND SWAP1 DUP2 GT ISZERO PUSH2 0x1F23 JUMPI PUSH2 0x1F23 PUSH2 0x24A5 JUMP JUMPDEST EQ PUSH2 0x1F41 JUMPI PUSH1 0x40 MLOAD PUSH4 0xBAF3F0F7 PUSH1 0xE0 SHL DUP2 MSTORE PUSH1 0x4 ADD PUSH1 0x40 MLOAD DUP1 SWAP2 SUB SWAP1 REVERT JUMPDEST PUSH1 0x2 DUP2 ADD SLOAD PUSH1 0x1 PUSH1 0x1 PUSH1 0xA0 SHL SUB AND CALLER EQ PUSH2 0x1F6E JUMPI PUSH1 0x40 MLOAD PUSH4 0x42E8FB93 PUSH1 0xE1 SHL DUP2 MSTORE PUSH1 0x4 ADD PUSH1 0x40 MLOAD DUP1 SWAP2 SUB SWAP1 REVERT JUMPDEST PUSH1 0x5 ADD DUP1 SLOAD PUSH1 0xFF NOT AND PUSH1 0x4 OR SWAP1 SSTORE POP JUMP JUMPDEST PUSH1 0x0 DUP2 DUP2 MSTORE PUSH1 0x5 PUSH1 0x20 MSTORE PUSH1 0x40 SWAP1 KECCAK256 PUSH1 0x1 PUSH1 0x5 DUP1 DUP4 ADD SLOAD PUSH1 0xFF AND SWAP1 DUP2 GT ISZERO PUSH2 0x1FA8 JUMPI PUSH2 0x1FA8 PUSH2 0x24A5 JUMP JUMPDEST EQ PUSH2 0x1FC6 JUMPI PUSH1 0x40 MLOAD PUSH4 0xBAF3F0F7 PUSH1 0xE0 SHL DUP2 MSTORE PUSH1 0x4 ADD PUSH1 0x40 MLOAD DUP1 SWAP2 SUB SWAP1 REVERT JUMPDEST PUSH1 0x1 DUP2 ADD SLOAD PUSH1 0x1 PUSH1 0x1 PUSH1 0xA0 SHL SUB AND CALLER EQ PUSH2 0x1FF3 JUMPI PUSH1 0x40 MLOAD PUSH4 0x86EFBB55 PUSH1 0xE0 SHL DUP2 MSTORE PUSH1 0x4 ADD PUSH1 0x40 MLOAD DUP1 SWAP2 SUB SWAP1 REVERT JUMPDEST DUP1 PUSH1 0x6 ADD SLOAD CALLVALUE EQ PUSH2 0x2017 JUMPI PUSH1 0x40 MLOAD PUSH4 0x70F6EED PUSH1 0xE1 SHL DUP2 MSTORE PUSH1 0x4 ADD PUSH1 0x40 MLOAD DUP1 SWAP2 SUB SWAP1 REVERT JUMPDEST PUSH1 0x5 DUP2 ADD DUP1 SLOAD PUSH1 0xFF NOT AND PUSH1 0x2 SWAP1 DUP2 OR SWAP1 SWAP2 SSTORE DUP2 ADD SLOAD PUSH1 0x40 DUP1 MLOAD DUP5 DUP2 MSTORE PUSH1 0x1 PUSH1 0x1 PUSH1 0xA0 SHL SUB SWAP1 SWAP3 AND PUSH1 0x20 DUP4 ADD MSTORE PUSH32 0xDB4CF8C0535B6A3BC48D6532C850157AB1FDE2E331B6959F293BE876B9EF36E6 SWAP2 ADD PUSH2 0xA3C JUMP JUMPDEST PUSH1 0x0 DUP1 SLOAD SWAP1 DUP1 PUSH2 0x207A DUP4 PUSH2 0x2981 JUMP JUMPDEST SWAP1 SWAP2 SSTORE POP POP PUSH1 0x40 DUP1 MLOAD PUSH2 0x100 DUP2 ADD DUP3 MSTORE PUSH1 0x0 DUP1 SLOAD DUP3 MSTORE CALLER PUSH1 0x20 DUP4 ADD SWAP1 DUP2 MSTORE SWAP3 DUP3 ADD DUP10 DUP2 MSTORE PUSH1 0x60 DUP4 ADD DUP10 SWAP1 MSTORE PUSH1 0x80 DUP4 ADD DUP9 SWAP1 MSTORE PUSH1 0xA0 DUP4 ADD DUP8 SWAP1 MSTORE PUSH1 0xC0 DUP4 ADD DUP7 SWAP1 MSTORE PUSH1 0xE0 DUP4 ADD DUP6 SWAP1 MSTORE PUSH1 0x3 DUP1 SLOAD PUSH1 0x1 DUP2 ADD DUP3 SSTORE SWAP3 MSTORE DUP3 MLOAD PUSH32 0xC2575A0E9E593C00F959F8C92F12DB2869C3395A3B0502D05E2516446F71F85B PUSH1 0x8 SWAP1 SWAP4 MUL SWAP3 DUP4 ADD SWAP1 DUP2 SSTORE SWAP4 MLOAD PUSH32 0xC2575A0E9E593C00F959F8C92F12DB2869C3395A3B0502D05E2516446F71F85C DUP4 ADD DUP1 SLOAD PUSH1 0x1 PUSH1 0x1 PUSH1 0xA0 SHL SUB NOT AND PUSH1 0x1 PUSH1 0x1 PUSH1 0xA0 SHL SUB SWAP1 SWAP3 AND SWAP2 SWAP1 SWAP2 OR SWAP1 SSTORE MLOAD SWAP2 SWAP3 DUP4 SWAP3 SWAP1 SWAP2 PUSH32 0xC2575A0E9E593C00F959F8C92F12DB2869C3395A3B0502D05E2516446F71F85D ADD SWAP1 PUSH2 0x2171 SWAP1 DUP3 PUSH2 0x2A0B JUMP JUMPDEST POP PUSH1 0x60 DUP3 ADD MLOAD PUSH1 0x3 DUP3 ADD SWAP1 PUSH2 0x2186 SWAP1 DUP3 PUSH2 0x2A0B JUMP JUMPDEST POP PUSH1 0x80 DUP3 ADD MLOAD PUSH1 0x4 DUP3 ADD SSTORE PUSH1 0xA0 DUP3 ADD MLOAD PUSH1 0x5 DUP3 ADD SWAP1 PUSH2 0x21A5 SWAP1 DUP3 PUSH2 0x2A0B JUMP JUMPDEST POP PUSH1 0xC0 DUP3 ADD MLOAD PUSH1 0x6 DUP3 ADD SWAP1 PUSH2 0x21BA SWAP1 DUP3 PUSH2 0x2A0B JUMP JUMPDEST POP PUSH1 0xE0 DUP3 ADD MLOAD PUSH1 0x7 DUP3 ADD SWAP1 PUSH2 0x21CF SWAP1 DUP3 PUSH2 0x2A0B JUMP JUMPDEST POP POP CALLER PUSH1 0x0 SWAP1 DUP2 MSTORE PUSH1 0x4 PUSH1 0x20 SWAP1 DUP2 MSTORE PUSH1 0x40 DUP1 DUP4 KECCAK256 DUP1 SLOAD PUSH1 0x1 DUP1 DUP3 ADD DUP4 SSTORE SWAP2 DUP6 MSTORE SWAP4 DUP4 SWAP1 KECCAK256 DUP7 MLOAD PUSH1 0x8 SWAP1 SWAP6 MUL ADD SWAP4 DUP5 SSTORE SWAP2 DUP6 ADD MLOAD SWAP2 DUP4 ADD DUP1 SLOAD PUSH1 0x1 PUSH1 0x1 PUSH1 0xA0 SHL SUB NOT AND PUSH1 0x1 PUSH1 0x1 PUSH1 0xA0 SHL SUB SWAP1 SWAP4 AND SWAP3 SWAP1 SWAP3 OR SWAP1 SWAP2 SSTORE DUP4 ADD MLOAD DUP4 SWAP3 POP PUSH1 0x2 DUP3 ADD SWAP1 PUSH2 0x2238 SWAP1 DUP3 PUSH2 0x2A0B JUMP JUMPDEST POP PUSH1 0x60 DUP3 ADD MLOAD PUSH1 0x3 DUP3 ADD SWAP1 PUSH2 0x224D SWAP1 DUP3 PUSH2 0x2A0B JUMP JUMPDEST POP PUSH1 0x80 DUP3 ADD MLOAD PUSH1 0x4 DUP3 ADD SSTORE PUSH1 0xA0 DUP3 ADD MLOAD PUSH1 0x5 DUP3 ADD SWAP1 PUSH2 0x226C SWAP1 DUP3 PUSH2 0x2A0B JUMP JUMPDEST POP PUSH1 0xC0 DUP3 ADD MLOAD PUSH1 0x6 DUP3 ADD SWAP1 PUSH2 0x2281 SWAP1 DUP3 PUSH2 0x2A0B JUMP JUMPDEST POP PUSH1 0xE0 DUP3 ADD MLOAD PUSH1 0x7 DUP3 ADD SWAP1 PUSH2 0x2296 SWAP1 DUP3 PUSH2 0x2A0B JUMP JUMPDEST POP POP POP DUP1 PUSH1 0x20 ADD MLOAD PUSH1 0x1 PUSH1 0x1 PUSH1 0xA0 SHL SUB AND DUP2 PUSH1 0x0 ADD MLOAD PUSH32 0x92B0DFC54AFA4C0AEEA7F4DF9A5A1BB9EA514D6A4389654C9777B5F1A4B84643 DUP4 PUSH1 0x40 ADD MLOAD DUP5 PUSH1 0x60 ADD MLOAD DUP6 PUSH1 0x80 ADD MLOAD DUP7 PUSH1 0xA0 ADD MLOAD DUP8 PUSH1 0xC0 ADD MLOAD DUP9 PUSH1 0xE0 ADD MLOAD PUSH1 0x40 MLOAD PUSH2 0x22FD SWAP7 SWAP6 SWAP5 SWAP4 SWAP3 SWAP2 SWAP1 PUSH2 0x2ACB JUMP JUMPDEST PUSH1 0x40 MLOAD DUP1 SWAP2 SUB SWAP1 LOG3 POP POP POP POP POP POP POP JUMP JUMPDEST PUSH1 0x40 DUP1 MLOAD PUSH2 0x100 DUP2 ADD DUP3 MSTORE PUSH1 0x0 DUP1 DUP3 MSTORE PUSH1 0x20 DUP3 ADD DUP2 SWAP1 MSTORE SWAP2 DUP2 ADD DUP3 SWAP1 MSTORE PUSH1 0x60 DUP2 ADD DUP3 SWAP1 MSTORE PUSH1 0x80 DUP2 ADD DUP3 SWAP1 MSTORE SWAP1 PUSH1 0xA0 DUP3 ADD SWAP1 DUP2 MSTORE PUSH1 0x20 ADD PUSH1 0x0 DUP2 MSTORE PUSH1 0x20 ADD PUSH1 0x0 DUP2 MSTORE POP SWAP1 JUMP JUMPDEST DUP1 CALLDATALOAD PUSH1 0x1 PUSH1 0x1 PUSH1 0xA0 SHL SUB DUP2 AND DUP2 EQ PUSH2 0x875 JUMPI PUSH1 0x0 DUP1 REVERT JUMPDEST PUSH1 0x0 DUP1 PUSH1 0x40 DUP4 DUP6 SUB SLT ISZERO PUSH2 0x237D JUMPI PUSH1 0x0 DUP1 REVERT JUMPDEST PUSH2 0x2386 DUP4 PUSH2 0x2353 JUMP JUMPDEST SWAP5 PUSH1 0x20 SWAP4 SWAP1 SWAP4 ADD CALLDATALOAD SWAP4 POP POP POP JUMP JUMPDEST PUSH1 0x0 DUP2 MLOAD DUP1 DUP5 MSTORE PUSH1 0x0 JUMPDEST DUP2 DUP2 LT ISZERO PUSH2 0x23BA JUMPI PUSH1 0x20 DUP2 DUP6 ADD DUP2 ADD MLOAD DUP7 DUP4 ADD DUP3 ADD MSTORE ADD PUSH2 0x239E JUMP JUMPDEST POP PUSH1 0x0 PUSH1 0x20 DUP3 DUP7 ADD ADD MSTORE PUSH1 0x20 PUSH1 0x1F NOT PUSH1 0x1F DUP4 ADD AND DUP6 ADD ADD SWAP2 POP POP SWAP3 SWAP2 POP POP JUMP JUMPDEST DUP9 DUP2 MSTORE PUSH1 0x1 PUSH1 0x1 PUSH1 0xA0 SHL SUB DUP9 AND PUSH1 0x20 DUP3 ADD MSTORE PUSH2 0x100 PUSH1 0x40 DUP3 ADD DUP2 SWAP1 MSTORE PUSH1 0x0 SWAP1 PUSH2 0x2405 DUP4 DUP3 ADD DUP11 PUSH2 0x2394 JUMP JUMPDEST SWAP1 POP DUP3 DUP2 SUB PUSH1 0x60 DUP5 ADD MSTORE PUSH2 0x2419 DUP2 DUP10 PUSH2 0x2394 JUMP JUMPDEST SWAP1 POP DUP7 PUSH1 0x80 DUP5 ADD MSTORE DUP3 DUP2 SUB PUSH1 0xA0 DUP5 ADD MSTORE PUSH2 0x2433 DUP2 DUP8 PUSH2 0x2394 JUMP JUMPDEST SWAP1 POP DUP3 DUP2 SUB PUSH1 0xC0 DUP5 ADD MSTORE PUSH2 0x2447 DUP2 DUP7 PUSH2 0x2394 JUMP JUMPDEST SWAP1 POP DUP3 DUP2 SUB PUSH1 0xE0 DUP5 ADD MSTORE PUSH2 0x245B DUP2 DUP6 PUSH2 0x2394 JUMP JUMPDEST SWAP12 SWAP11 POP POP POP POP POP POP POP POP POP POP POP JUMP JUMPDEST PUSH1 0x0 PUSH1 0x20 DUP3 DUP5 SUB SLT ISZERO PUSH2 0x247C JUMPI PUSH1 0x0 DUP1 REVERT JUMPDEST PUSH2 0x2485 DUP3 PUSH2 0x2353 JUMP JUMPDEST SWAP4 SWAP3 POP POP POP JUMP JUMPDEST PUSH1 0x0 PUSH1 0x20 DUP3 DUP5 SUB SLT ISZERO PUSH2 0x249E JUMPI PUSH1 0x0 DUP1 REVERT JUMPDEST POP CALLDATALOAD SWAP2 SWAP1 POP JUMP JUMPDEST PUSH4 0x4E487B71 PUSH1 0xE0 SHL PUSH1 0x0 MSTORE PUSH1 0x21 PUSH1 0x4 MSTORE PUSH1 0x24 PUSH1 0x0 REVERT JUMPDEST PUSH1 0x6 DUP2 LT PUSH2 0x24D9 JUMPI PUSH4 0x4E487B71 PUSH1 0xE0 SHL PUSH1 0x0 MSTORE PUSH1 0x21 PUSH1 0x4 MSTORE PUSH1 0x24 PUSH1 0x0 REVERT JUMPDEST SWAP1 MSTORE JUMP JUMPDEST DUP1 MLOAD DUP3 MSTORE PUSH1 0x20 DUP2 ADD MLOAD PUSH1 0x1 DUP1 PUSH1 0xA0 SHL SUB DUP1 DUP3 AND PUSH1 0x20 DUP6 ADD MSTORE DUP1 PUSH1 0x40 DUP5 ADD MLOAD AND PUSH1 0x40 DUP6 ADD MSTORE POP POP PUSH1 0x60 DUP2 ADD MLOAD PUSH1 0x60 DUP4 ADD MSTORE PUSH1 0x80 DUP2 ADD MLOAD PUSH1 0x80 DUP4 ADD MSTORE PUSH1 0xA0 DUP2 ADD MLOAD PUSH2 0x2529 PUSH1 0xA0 DUP5 ADD DUP3 PUSH2 0x24BB JUMP JUMPDEST POP PUSH1 0xC0 DUP2 DUP2 ADD MLOAD SWAP1 DUP4 ADD MSTORE PUSH1 0xE0 SWAP1 DUP2 ADD MLOAD SWAP2 ADD MSTORE JUMP JUMPDEST PUSH2 0x100 DUP2 ADD PUSH2 0x254E DUP3 DUP5 PUSH2 0x24DD JUMP JUMPDEST SWAP3 SWAP2 POP POP JUMP JUMPDEST DUP9 DUP2 MSTORE PUSH1 0x1 PUSH1 0x1 PUSH1 0xA0 SHL SUB DUP9 DUP2 AND PUSH1 0x20 DUP4 ADD MSTORE DUP8 AND PUSH1 0x40 DUP3 ADD MSTORE PUSH1 0x60 DUP2 ADD DUP7 SWAP1 MSTORE PUSH1 0x80 DUP2 ADD DUP6 SWAP1 MSTORE PUSH2 0x100 DUP2 ADD PUSH2 0x258E PUSH1 0xA0 DUP4 ADD DUP7 PUSH2 0x24BB JUMP JUMPDEST PUSH1 0xC0 DUP3 ADD SWAP4 SWAP1 SWAP4 MSTORE PUSH1 0xE0 ADD MSTORE SWAP7 SWAP6 POP POP POP POP POP POP JUMP JUMPDEST PUSH1 0x20 DUP1 DUP3 MSTORE DUP3 MLOAD DUP3 DUP3 ADD DUP2 SWAP1 MSTORE PUSH1 0x0 SWAP2 SWAP1 DUP5 DUP3 ADD SWAP1 PUSH1 0x40 DUP6 ADD SWAP1 DUP5 JUMPDEST DUP2 DUP2 LT ISZERO PUSH2 0x25E7 JUMPI PUSH2 0x25D3 DUP4 DUP6 MLOAD PUSH2 0x24DD JUMP JUMPDEST SWAP3 DUP5 ADD SWAP3 PUSH2 0x100 SWAP3 SWAP1 SWAP3 ADD SWAP2 PUSH1 0x1 ADD PUSH2 0x25C0 JUMP JUMPDEST POP SWAP1 SWAP7 SWAP6 POP POP POP POP POP POP JUMP JUMPDEST PUSH1 0x0 DUP1 PUSH1 0x40 DUP4 DUP6 SUB SLT ISZERO PUSH2 0x2606 JUMPI PUSH1 0x0 DUP1 REVERT JUMPDEST POP POP DUP1 CALLDATALOAD SWAP3 PUSH1 0x20 SWAP1 SWAP2 ADD CALLDATALOAD SWAP2 POP JUMP JUMPDEST PUSH1 0x0 PUSH1 0x20 DUP1 DUP4 ADD DUP2 DUP5 MSTORE DUP1 DUP6 MLOAD DUP1 DUP4 MSTORE PUSH1 0x40 SWAP3 POP DUP3 DUP7 ADD SWAP2 POP DUP3 DUP2 PUSH1 0x5 SHL DUP8 ADD ADD DUP5 DUP9 ADD PUSH1 0x0 JUMPDEST DUP4 DUP2 LT ISZERO PUSH2 0x270B JUMPI PUSH1 0x3F NOT DUP10 DUP5 SUB ADD DUP6 MSTORE DUP2 MLOAD DUP1 MLOAD DUP5 MSTORE DUP8 DUP2 ADD MLOAD PUSH1 0x1 PUSH1 0x1 PUSH1 0xA0 SHL SUB AND DUP9 DUP6 ADD MSTORE DUP7 DUP2 ADD MLOAD PUSH2 0x100 DUP9 DUP7 ADD DUP2 SWAP1 MSTORE SWAP1 PUSH2 0x267E DUP3 DUP8 ADD DUP3 PUSH2 0x2394 JUMP JUMPDEST SWAP2 POP POP PUSH1 0x60 DUP1 DUP4 ADD MLOAD DUP7 DUP4 SUB DUP3 DUP9 ADD MSTORE PUSH2 0x2698 DUP4 DUP3 PUSH2 0x2394 JUMP JUMPDEST SWAP3 POP POP POP PUSH1 0x80 DUP1 DUP4 ADD MLOAD DUP2 DUP8 ADD MSTORE POP PUSH1 0xA0 DUP1 DUP4 ADD MLOAD DUP7 DUP4 SUB DUP3 DUP9 ADD MSTORE PUSH2 0x26BE DUP4 DUP3 PUSH2 0x2394 JUMP JUMPDEST SWAP3 POP POP POP PUSH1 0xC0 DUP1 DUP4 ADD MLOAD DUP7 DUP4 SUB DUP3 DUP9 ADD MSTORE PUSH2 0x26D9 DUP4 DUP3 PUSH2 0x2394 JUMP JUMPDEST SWAP3 POP POP POP PUSH1 0xE0 DUP1 DUP4 ADD MLOAD SWAP3 POP DUP6 DUP3 SUB DUP2 DUP8 ADD MSTORE POP PUSH2 0x26F7 DUP2 DUP4 PUSH2 0x2394 JUMP JUMPDEST SWAP7 DUP10 ADD SWAP7 SWAP5 POP POP POP SWAP1 DUP7 ADD SWAP1 PUSH1 0x1 ADD PUSH2 0x263C JUMP JUMPDEST POP SWAP1 SWAP9 SWAP8 POP POP POP POP POP POP POP POP JUMP JUMPDEST PUSH4 0x4E487B71 PUSH1 0xE0 SHL PUSH1 0x0 MSTORE PUSH1 0x41 PUSH1 0x4 MSTORE PUSH1 0x24 PUSH1 0x0 REVERT JUMPDEST PUSH1 0x0 DUP3 PUSH1 0x1F DUP4 ADD SLT PUSH2 0x2740 JUMPI PUSH1 0x0 DUP1 REVERT JUMPDEST DUP2 CALLDATALOAD PUSH8 0xFFFFFFFFFFFFFFFF DUP1 DUP3 GT ISZERO PUSH2 0x275B JUMPI PUSH2 0x275B PUSH2 0x2719 JUMP JUMPDEST PUSH1 0x40 MLOAD PUSH1 0x1F DUP4 ADD PUSH1 0x1F NOT SWAP1 DUP2 AND PUSH1 0x3F ADD AND DUP2 ADD SWAP1 DUP3 DUP3 GT DUP2 DUP4 LT OR ISZERO PUSH2 0x2783 JUMPI PUSH2 0x2783 PUSH2 0x2719 JUMP JUMPDEST DUP2 PUSH1 0x40 MSTORE DUP4 DUP2 MSTORE DUP7 PUSH1 0x20 DUP6 DUP9 ADD ADD GT ISZERO PUSH2 0x279C JUMPI PUSH1 0x0 DUP1 REVERT JUMPDEST DUP4 PUSH1 0x20 DUP8 ADD PUSH1 0x20 DUP4 ADD CALLDATACOPY PUSH1 0x0 PUSH1 0x20 DUP6 DUP4 ADD ADD MSTORE DUP1 SWAP5 POP POP POP POP POP SWAP3 SWAP2 POP POP JUMP JUMPDEST PUSH1 0x0 DUP1 PUSH1 0x0 DUP1 PUSH1 0x0 DUP1 PUSH1 0xC0 DUP8 DUP10 SUB SLT ISZERO PUSH2 0x27D5 JUMPI PUSH1 0x0 DUP1 REVERT JUMPDEST DUP7 CALLDATALOAD PUSH8 0xFFFFFFFFFFFFFFFF DUP1 DUP3 GT ISZERO PUSH2 0x27ED JUMPI PUSH1 0x0 DUP1 REVERT JUMPDEST PUSH2 0x27F9 DUP11 DUP4 DUP12 ADD PUSH2 0x272F JUMP JUMPDEST SWAP8 POP PUSH1 0x20 DUP10 ADD CALLDATALOAD SWAP2 POP DUP1 DUP3 GT ISZERO PUSH2 0x280F JUMPI PUSH1 0x0 DUP1 REVERT JUMPDEST PUSH2 0x281B DUP11 DUP4 DUP12 ADD PUSH2 0x272F JUMP JUMPDEST SWAP7 POP PUSH1 0x40 DUP10 ADD CALLDATALOAD SWAP6 POP PUSH1 0x60 DUP10 ADD CALLDATALOAD SWAP2 POP DUP1 DUP3 GT ISZERO PUSH2 0x2838 JUMPI PUSH1 0x0 DUP1 REVERT JUMPDEST PUSH2 0x2844 DUP11 DUP4 DUP12 ADD PUSH2 0x272F JUMP JUMPDEST SWAP5 POP PUSH1 0x80 DUP10 ADD CALLDATALOAD SWAP2 POP DUP1 DUP3 GT ISZERO PUSH2 0x285A JUMPI PUSH1 0x0 DUP1 REVERT JUMPDEST PUSH2 0x2866 DUP11 DUP4 DUP12 ADD PUSH2 0x272F JUMP JUMPDEST SWAP4 POP PUSH1 0xA0 DUP10 ADD CALLDATALOAD SWAP2 POP DUP1 DUP3 GT ISZERO PUSH2 0x287C JUMPI PUSH1 0x0 DUP1 REVERT JUMPDEST POP PUSH2 0x2889 DUP10 DUP3 DUP11 ADD PUSH2 0x272F JUMP JUMPDEST SWAP2 POP POP SWAP3 SWAP6 POP SWAP3 SWAP6 POP SWAP3 SWAP6 JUMP JUMPDEST PUSH1 0x1 DUP2 DUP2 SHR SWAP1 DUP3 AND DUP1 PUSH2 0x28AA JUMPI PUSH1 0x7F DUP3 AND SWAP2 POP JUMPDEST PUSH1 0x20 DUP3 LT DUP2 SUB PUSH2 0x28CA JUMPI PUSH4 0x4E487B71 PUSH1 0xE0 SHL PUSH1 0x0 MSTORE PUSH1 0x22 PUSH1 0x4 MSTORE PUSH1 0x24 PUSH1 0x0 REVERT JUMPDEST POP SWAP2 SWAP1 POP JUMP JUMPDEST PUSH1 0x20 DUP1 DUP3 MSTORE PUSH1 0x28 SWAP1 DUP3 ADD MSTORE PUSH32 0x596F75722061726520746865206F776E6572206F662074686520736D61727420 PUSH1 0x40 DUP3 ADD MSTORE PUSH8 0x18DBDB9D1C9858DD PUSH1 0xC2 SHL PUSH1 0x60 DUP3 ADD MSTORE PUSH1 0x80 ADD SWAP1 JUMP JUMPDEST PUSH4 0x4E487B71 PUSH1 0xE0 SHL PUSH1 0x0 MSTORE PUSH1 0x11 PUSH1 0x4 MSTORE PUSH1 0x24 PUSH1 0x0 REVERT JUMPDEST DUP2 DUP2 SUB DUP2 DUP2 GT ISZERO PUSH2 0x254E JUMPI PUSH2 0x254E PUSH2 0x2918 JUMP JUMPDEST PUSH4 0x4E487B71 PUSH1 0xE0 SHL PUSH1 0x0 MSTORE PUSH1 0x32 PUSH1 0x4 MSTORE PUSH1 0x24 PUSH1 0x0 REVERT JUMPDEST DUP1 DUP3 MUL DUP2 ISZERO DUP3 DUP3 DIV DUP5 EQ OR PUSH2 0x254E JUMPI PUSH2 0x254E PUSH2 0x2918 JUMP JUMPDEST DUP1 DUP3 ADD DUP1 DUP3 GT ISZERO PUSH2 0x254E JUMPI PUSH2 0x254E PUSH2 0x2918 JUMP JUMPDEST PUSH1 0x0 PUSH1 0x1 DUP3 ADD PUSH2 0x2993 JUMPI PUSH2 0x2993 PUSH2 0x2918 JUMP JUMPDEST POP PUSH1 0x1 ADD SWAP1 JUMP JUMPDEST DUP4 DUP2 MSTORE PUSH1 0x20 DUP2 ADD DUP4 SWAP1 MSTORE PUSH1 0x60 DUP2 ADD PUSH2 0x29B5 PUSH1 0x40 DUP4 ADD DUP5 PUSH2 0x24BB JUMP JUMPDEST SWAP5 SWAP4 POP POP POP POP JUMP JUMPDEST PUSH1 0x1F DUP3 GT ISZERO PUSH2 0x170A JUMPI PUSH1 0x0 DUP2 DUP2 MSTORE PUSH1 0x20 DUP2 KECCAK256 PUSH1 0x1F DUP6 ADD PUSH1 0x5 SHR DUP2 ADD PUSH1 0x20 DUP7 LT ISZERO PUSH2 0x29E4 JUMPI POP DUP1 JUMPDEST PUSH1 0x1F DUP6 ADD PUSH1 0x5 SHR DUP3 ADD SWAP2 POP JUMPDEST DUP2 DUP2 LT ISZERO PUSH2 0x2A03 JUMPI DUP3 DUP2 SSTORE PUSH1 0x1 ADD PUSH2 0x29F0 JUMP JUMPDEST POP POP POP POP POP POP JUMP JUMPDEST DUP2 MLOAD PUSH8 0xFFFFFFFFFFFFFFFF DUP2 GT ISZERO PUSH2 0x2A25 JUMPI PUSH2 0x2A25 PUSH2 0x2719 JUMP JUMPDEST PUSH2 0x2A39 DUP2 PUSH2 0x2A33 DUP5 SLOAD PUSH2 0x2896 JUMP JUMPDEST DUP5 PUSH2 0x29BD JUMP JUMPDEST PUSH1 0x20 DUP1 PUSH1 0x1F DUP4 GT PUSH1 0x1 DUP2 EQ PUSH2 0x2A6E JUMPI PUSH1 0x0 DUP5 ISZERO PUSH2 0x2A56 JUMPI POP DUP6 DUP4 ADD MLOAD JUMPDEST PUSH1 0x0 NOT PUSH1 0x3 DUP7 SWAP1 SHL SHR NOT AND PUSH1 0x1 DUP6 SWAP1 SHL OR DUP6 SSTORE PUSH2 0x2A03 JUMP JUMPDEST PUSH1 0x0 DUP6 DUP2 MSTORE PUSH1 0x20 DUP2 KECCAK256 PUSH1 0x1F NOT DUP7 AND SWAP2 JUMPDEST DUP3 DUP2 LT ISZERO PUSH2 0x2A9D JUMPI DUP9 DUP7 ADD MLOAD DUP3 SSTORE SWAP5 DUP5 ADD SWAP5 PUSH1 0x1 SWAP1 SWAP2 ADD SWAP1 DUP5 ADD PUSH2 0x2A7E JUMP JUMPDEST POP DUP6 DUP3 LT ISZERO PUSH2 0x2ABB JUMPI DUP8 DUP6 ADD MLOAD PUSH1 0x0 NOT PUSH1 0x3 DUP9 SWAP1 SHL PUSH1 0xF8 AND SHR NOT AND DUP2 SSTORE JUMPDEST POP POP POP POP POP PUSH1 0x1 SWAP1 DUP2 SHL ADD SWAP1 SSTORE POP JUMP JUMPDEST PUSH1 0xC0 DUP2 MSTORE PUSH1 0x0 PUSH2 0x2ADE PUSH1 0xC0 DUP4 ADD DUP10 PUSH2 0x2394 JUMP JUMPDEST DUP3 DUP2 SUB PUSH1 0x20 DUP5 ADD MSTORE PUSH2 0x2AF0 DUP2 DUP10 PUSH2 0x2394 JUMP JUMPDEST SWAP1 POP DUP7 PUSH1 0x40 DUP5 ADD MSTORE DUP3 DUP2 SUB PUSH1 0x60 DUP5 ADD MSTORE PUSH2 0x2B0A DUP2 DUP8 PUSH2 0x2394 JUMP JUMPDEST SWAP1 POP DUP3 DUP2 SUB PUSH1 0x80 DUP5 ADD MSTORE PUSH2 0x2B1E DUP2 DUP7 PUSH2 0x2394 JUMP JUMPDEST SWAP1 POP DUP3 DUP2 SUB PUSH1 0xA0 DUP5 ADD MSTORE PUSH2 0x2B32 DUP2 DUP6 PUSH2 0x2394 JUMP JUMPDEST SWAP10 SWAP9 POP POP POP POP POP POP POP POP POP JUMP INVALID LOG2 PUSH5 0x6970667358 0x22 SLT KECCAK256 BLOCKHASH PUSH10 0x818ACEB0C2992260BE9F 0xBC PUSH17 0xCF893EFBD86BFE168C11739C93EEF705F3 0xF6 PUSH5 0x736F6C6343 STOP ADDMOD GT STOP CALLER "},"methodIdentifiers":{"buyerConfirmPurchase(uint256)":"c8dca31e","buyerConfirmReceivingProduct(uint256)":"7c54a886","buyerDiscardInterestForProduct(uint256)":"8f71c264","buyerIndicateInterestToBuyProduct(uint256,uint256)":"45fc6455","createProduct(string,string,uint256,string,string,string)":"cec96c38","getPurchaseByID(uint256)":"20af01fd","getPurchaseTransactionBuyer(address)":"866abc55","getPurchaseTransactionSeller(address)":"43bb5a45","getTotalRevenueForSeller(address)":"06e41ded","getTotalSpendingForBuyer(address)":"5c1bedc4","productCount()":"e0f6ef87","productListings(uint256)":"616e7a58","purchaseCount()":"2b85ed9c","purchaseHistory(uint256)":"2829fc53","returnAllProducts()":"9d7c9e3e","returnAllProductsBelongToSeller()":"55c7d72c","sellerAbortPurchaseAfterAcknowledge(uint256)":"744c05c3","sellerAbortPurchaseBeforeAcknowledge(uint256)":"9f259028","sellerAcknowledgeBuyerInterest(uint256)":"43180647","sellerListings(address,uint256)":"054564f0","sellerReclaimDepositPlusProductPayment(uint256)":"5dfe6f10"}}}}}