{
  "_format": "hh-sol-artifact-1",
  "contractName": "RemoteSafeTradingEcommersePlatform",
  "sourceName": "contracts/SafeRemotePurchase.sol",
  "abi": [
    {
      "inputs": [],
      "stateMutability": "nonpayable",
      "type": "constructor"
    },
    {
      "inputs": [],
      "name": "InsufficientDeposit",
      "type": "error"
    },
    {
      "inputs": [],
      "name": "InvalidState",
      "type": "error"
    },
    {
      "inputs": [],
      "name": "OnlyBuyer",
      "type": "error"
    },
    {
      "inputs": [],
      "name": "OnlySeller",
      "type": "error"
    },
    {
      "inputs": [],
      "name": "PurchaseTransactionNoLongerExist",
      "type": "error"
    },
    {
      "inputs": [],
      "name": "SellerCanNotBuyOwnProduct",
      "type": "error"
    },
    {
      "inputs": [],
      "name": "ValueNotEven",
      "type": "error"
    },
    {
      "anonymous": false,
      "inputs": [
        {
          "indexed": false,
          "internalType": "uint256",
          "name": "purchaseID",
          "type": "uint256"
        }
      ],
      "name": "BuyerConfirmPurchase",
      "type": "event"
    },
    {
      "anonymous": false,
      "inputs": [
        {
          "indexed": false,
          "internalType": "uint256",
          "name": "purchaseID",
          "type": "uint256"
        }
      ],
      "name": "BuyerConfirmReceivingProduct",
      "type": "event"
    },
    {
      "anonymous": false,
      "inputs": [
        {
          "indexed": true,
          "internalType": "uint256",
          "name": "productId",
          "type": "uint256"
        },
        {
          "indexed": true,
          "internalType": "address",
          "name": "seller",
          "type": "address"
        },
        {
          "indexed": false,
          "internalType": "string",
          "name": "seller_name",
          "type": "string"
        },
        {
          "indexed": false,
          "internalType": "string",
          "name": "name",
          "type": "string"
        },
        {
          "indexed": false,
          "internalType": "uint256",
          "name": "price",
          "type": "uint256"
        },
        {
          "indexed": false,
          "internalType": "string",
          "name": "description",
          "type": "string"
        },
        {
          "indexed": false,
          "internalType": "string",
          "name": "image",
          "type": "string"
        },
        {
          "indexed": false,
          "internalType": "string",
          "name": "category",
          "type": "string"
        }
      ],
      "name": "ProductCreated",
      "type": "event"
    },
    {
      "anonymous": false,
      "inputs": [
        {
          "indexed": true,
          "internalType": "uint256",
          "name": "purchaseId",
          "type": "uint256"
        },
        {
          "indexed": true,
          "internalType": "address",
          "name": "buyer",
          "type": "address"
        },
        {
          "indexed": true,
          "internalType": "address",
          "name": "seller",
          "type": "address"
        },
        {
          "indexed": false,
          "internalType": "uint256",
          "name": "productId",
          "type": "uint256"
        },
        {
          "indexed": false,
          "internalType": "uint256",
          "name": "quantity",
          "type": "uint256"
        },
        {
          "indexed": false,
          "internalType": "enum RemoteSafeTradingEcommersePlatform.State",
          "name": "status",
          "type": "uint8"
        }
      ],
      "name": "PurchaseCreated",
      "type": "event"
    },
    {
      "anonymous": false,
      "inputs": [
        {
          "indexed": false,
          "internalType": "uint256",
          "name": "purchaseID",
          "type": "uint256"
        }
      ],
      "name": "SellerAcknowledgePurchase",
      "type": "event"
    },
    {
      "inputs": [
        {
          "internalType": "uint256",
          "name": "_purchase_id",
          "type": "uint256"
        }
      ],
      "name": "buyerConfirmPurchase",
      "outputs": [],
      "stateMutability": "payable",
      "type": "function"
    },
    {
      "inputs": [
        {
          "internalType": "uint256",
          "name": "_purchase_id",
          "type": "uint256"
        }
      ],
      "name": "buyerConfirmReceivingProduct",
      "outputs": [],
      "stateMutability": "nonpayable",
      "type": "function"
    },
    {
      "inputs": [
        {
          "internalType": "uint256",
          "name": "_purchase_id",
          "type": "uint256"
        }
      ],
      "name": "buyerDiscardInterestForProduct",
      "outputs": [],
      "stateMutability": "nonpayable",
      "type": "function"
    },
    {
      "inputs": [
        {
          "internalType": "uint256",
          "name": "_productId",
          "type": "uint256"
        },
        {
          "internalType": "uint256",
          "name": "_quantity",
          "type": "uint256"
        }
      ],
      "name": "buyerIndicateInterestToBuyProduct",
      "outputs": [],
      "stateMutability": "nonpayable",
      "type": "function"
    },
    {
      "inputs": [
        {
          "internalType": "string",
          "name": "_sellerName",
          "type": "string"
        },
        {
          "internalType": "string",
          "name": "_name",
          "type": "string"
        },
        {
          "internalType": "uint256",
          "name": "_priceInWei",
          "type": "uint256"
        },
        {
          "internalType": "string",
          "name": "_description",
          "type": "string"
        },
        {
          "internalType": "string",
          "name": "_image",
          "type": "string"
        },
        {
          "internalType": "string",
          "name": "_category",
          "type": "string"
        }
      ],
      "name": "createProduct",
      "outputs": [],
      "stateMutability": "nonpayable",
      "type": "function"
    },
    {
      "inputs": [
        {
          "internalType": "uint256",
          "name": "_purchase_id",
          "type": "uint256"
        }
      ],
      "name": "getPurchaseByID",
      "outputs": [
        {
          "components": [
            {
              "internalType": "uint256",
              "name": "purchaseId",
              "type": "uint256"
            },
            {
              "internalType": "address",
              "name": "buyer",
              "type": "address"
            },
            {
              "internalType": "address",
              "name": "seller",
              "type": "address"
            },
            {
              "internalType": "uint256",
              "name": "productId",
              "type": "uint256"
            },
            {
              "internalType": "uint256",
              "name": "quantity",
              "type": "uint256"
            },
            {
              "internalType": "enum RemoteSafeTradingEcommersePlatform.State",
              "name": "status",
              "type": "uint8"
            },
            {
              "internalType": "uint256",
              "name": "requiredDepositBuyerInWei",
              "type": "uint256"
            },
            {
              "internalType": "uint256",
              "name": "requiredDepositSellerInWei",
              "type": "uint256"
            }
          ],
          "internalType": "struct RemoteSafeTradingEcommersePlatform.Purchase",
          "name": "",
          "type": "tuple"
        }
      ],
      "stateMutability": "view",
      "type": "function"
    },
    {
      "inputs": [
        {
          "internalType": "address",
          "name": "buyerAddress",
          "type": "address"
        }
      ],
      "name": "getPurchaseTransactionBuyer",
      "outputs": [
        {
          "components": [
            {
              "internalType": "uint256",
              "name": "purchaseId",
              "type": "uint256"
            },
            {
              "internalType": "address",
              "name": "buyer",
              "type": "address"
            },
            {
              "internalType": "address",
              "name": "seller",
              "type": "address"
            },
            {
              "internalType": "uint256",
              "name": "productId",
              "type": "uint256"
            },
            {
              "internalType": "uint256",
              "name": "quantity",
              "type": "uint256"
            },
            {
              "internalType": "enum RemoteSafeTradingEcommersePlatform.State",
              "name": "status",
              "type": "uint8"
            },
            {
              "internalType": "uint256",
              "name": "requiredDepositBuyerInWei",
              "type": "uint256"
            },
            {
              "internalType": "uint256",
              "name": "requiredDepositSellerInWei",
              "type": "uint256"
            }
          ],
          "internalType": "struct RemoteSafeTradingEcommersePlatform.Purchase[]",
          "name": "",
          "type": "tuple[]"
        }
      ],
      "stateMutability": "view",
      "type": "function"
    },
    {
      "inputs": [
        {
          "internalType": "address",
          "name": "sellerAddress",
          "type": "address"
        }
      ],
      "name": "getPurchaseTransactionSeller",
      "outputs": [
        {
          "components": [
            {
              "internalType": "uint256",
              "name": "purchaseId",
              "type": "uint256"
            },
            {
              "internalType": "address",
              "name": "buyer",
              "type": "address"
            },
            {
              "internalType": "address",
              "name": "seller",
              "type": "address"
            },
            {
              "internalType": "uint256",
              "name": "productId",
              "type": "uint256"
            },
            {
              "internalType": "uint256",
              "name": "quantity",
              "type": "uint256"
            },
            {
              "internalType": "enum RemoteSafeTradingEcommersePlatform.State",
              "name": "status",
              "type": "uint8"
            },
            {
              "internalType": "uint256",
              "name": "requiredDepositBuyerInWei",
              "type": "uint256"
            },
            {
              "internalType": "uint256",
              "name": "requiredDepositSellerInWei",
              "type": "uint256"
            }
          ],
          "internalType": "struct RemoteSafeTradingEcommersePlatform.Purchase[]",
          "name": "",
          "type": "tuple[]"
        }
      ],
      "stateMutability": "view",
      "type": "function"
    },
    {
      "inputs": [
        {
          "internalType": "address",
          "name": "sellerAddress",
          "type": "address"
        }
      ],
      "name": "getTotalRevenueForSeller",
      "outputs": [
        {
          "internalType": "uint256",
          "name": "",
          "type": "uint256"
        }
      ],
      "stateMutability": "view",
      "type": "function"
    },
    {
      "inputs": [
        {
          "internalType": "address",
          "name": "buyerAddress",
          "type": "address"
        }
      ],
      "name": "getTotalSpendingForBuyer",
      "outputs": [
        {
          "internalType": "uint256",
          "name": "",
          "type": "uint256"
        }
      ],
      "stateMutability": "view",
      "type": "function"
    },
    {
      "inputs": [],
      "name": "productCount",
      "outputs": [
        {
          "internalType": "uint256",
          "name": "",
          "type": "uint256"
        }
      ],
      "stateMutability": "view",
      "type": "function"
    },
    {
      "inputs": [
        {
          "internalType": "uint256",
          "name": "",
          "type": "uint256"
        }
      ],
      "name": "productListings",
      "outputs": [
        {
          "internalType": "uint256",
          "name": "productId",
          "type": "uint256"
        },
        {
          "internalType": "address",
          "name": "seller",
          "type": "address"
        },
        {
          "internalType": "string",
          "name": "sellerName",
          "type": "string"
        },
        {
          "internalType": "string",
          "name": "name",
          "type": "string"
        },
        {
          "internalType": "uint256",
          "name": "priceInWei",
          "type": "uint256"
        },
        {
          "internalType": "string",
          "name": "description",
          "type": "string"
        },
        {
          "internalType": "string",
          "name": "image",
          "type": "string"
        },
        {
          "internalType": "string",
          "name": "category",
          "type": "string"
        }
      ],
      "stateMutability": "view",
      "type": "function"
    },
    {
      "inputs": [],
      "name": "purchaseCount",
      "outputs": [
        {
          "internalType": "uint256",
          "name": "",
          "type": "uint256"
        }
      ],
      "stateMutability": "view",
      "type": "function"
    },
    {
      "inputs": [
        {
          "internalType": "uint256",
          "name": "",
          "type": "uint256"
        }
      ],
      "name": "purchaseHistory",
      "outputs": [
        {
          "internalType": "uint256",
          "name": "purchaseId",
          "type": "uint256"
        },
        {
          "internalType": "address",
          "name": "buyer",
          "type": "address"
        },
        {
          "internalType": "address",
          "name": "seller",
          "type": "address"
        },
        {
          "internalType": "uint256",
          "name": "productId",
          "type": "uint256"
        },
        {
          "internalType": "uint256",
          "name": "quantity",
          "type": "uint256"
        },
        {
          "internalType": "enum RemoteSafeTradingEcommersePlatform.State",
          "name": "status",
          "type": "uint8"
        },
        {
          "internalType": "uint256",
          "name": "requiredDepositBuyerInWei",
          "type": "uint256"
        },
        {
          "internalType": "uint256",
          "name": "requiredDepositSellerInWei",
          "type": "uint256"
        }
      ],
      "stateMutability": "view",
      "type": "function"
    },
    {
      "inputs": [],
      "name": "returnAllProducts",
      "outputs": [
        {
          "components": [
            {
              "internalType": "uint256",
              "name": "productId",
              "type": "uint256"
            },
            {
              "internalType": "address",
              "name": "seller",
              "type": "address"
            },
            {
              "internalType": "string",
              "name": "sellerName",
              "type": "string"
            },
            {
              "internalType": "string",
              "name": "name",
              "type": "string"
            },
            {
              "internalType": "uint256",
              "name": "priceInWei",
              "type": "uint256"
            },
            {
              "internalType": "string",
              "name": "description",
              "type": "string"
            },
            {
              "internalType": "string",
              "name": "image",
              "type": "string"
            },
            {
              "internalType": "string",
              "name": "category",
              "type": "string"
            }
          ],
          "internalType": "struct RemoteSafeTradingEcommersePlatform.Product[]",
          "name": "",
          "type": "tuple[]"
        }
      ],
      "stateMutability": "view",
      "type": "function"
    },
    {
      "inputs": [],
      "name": "returnAllProductsBelongToSeller",
      "outputs": [
        {
          "components": [
            {
              "internalType": "uint256",
              "name": "productId",
              "type": "uint256"
            },
            {
              "internalType": "address",
              "name": "seller",
              "type": "address"
            },
            {
              "internalType": "string",
              "name": "sellerName",
              "type": "string"
            },
            {
              "internalType": "string",
              "name": "name",
              "type": "string"
            },
            {
              "internalType": "uint256",
              "name": "priceInWei",
              "type": "uint256"
            },
            {
              "internalType": "string",
              "name": "description",
              "type": "string"
            },
            {
              "internalType": "string",
              "name": "image",
              "type": "string"
            },
            {
              "internalType": "string",
              "name": "category",
              "type": "string"
            }
          ],
          "internalType": "struct RemoteSafeTradingEcommersePlatform.Product[]",
          "name": "",
          "type": "tuple[]"
        }
      ],
      "stateMutability": "view",
      "type": "function"
    },
    {
      "inputs": [
        {
          "internalType": "uint256",
          "name": "_purchase_id",
          "type": "uint256"
        }
      ],
      "name": "sellerAbortPurchaseAfterAcknowledge",
      "outputs": [],
      "stateMutability": "nonpayable",
      "type": "function"
    },
    {
      "inputs": [
        {
          "internalType": "uint256",
          "name": "_purchase_id",
          "type": "uint256"
        }
      ],
      "name": "sellerAbortPurchaseBeforeAcknowledge",
      "outputs": [],
      "stateMutability": "nonpayable",
      "type": "function"
    },
    {
      "inputs": [
        {
          "internalType": "uint256",
          "name": "_purchase_id",
          "type": "uint256"
        }
      ],
      "name": "sellerAcknowledgeBuyerInterest",
      "outputs": [],
      "stateMutability": "payable",
      "type": "function"
    },
    {
      "inputs": [
        {
          "internalType": "address",
          "name": "",
          "type": "address"
        },
        {
          "internalType": "uint256",
          "name": "",
          "type": "uint256"
        }
      ],
      "name": "sellerListings",
      "outputs": [
        {
          "internalType": "uint256",
          "name": "productId",
          "type": "uint256"
        },
        {
          "internalType": "address",
          "name": "seller",
          "type": "address"
        },
        {
          "internalType": "string",
          "name": "sellerName",
          "type": "string"
        },
        {
          "internalType": "string",
          "name": "name",
          "type": "string"
        },
        {
          "internalType": "uint256",
          "name": "priceInWei",
          "type": "uint256"
        },
        {
          "internalType": "string",
          "name": "description",
          "type": "string"
        },
        {
          "internalType": "string",
          "name": "image",
          "type": "string"
        },
        {
          "internalType": "string",
          "name": "category",
          "type": "string"
        }
      ],
      "stateMutability": "view",
      "type": "function"
    },
    {
      "inputs": [
        {
          "internalType": "uint256",
          "name": "_purchase_id",
          "type": "uint256"
        }
      ],
      "name": "sellerReclaimDepositPlusProductPayment",
      "outputs": [],
      "stateMutability": "nonpayable",
      "type": "function"
    }
  ],
  "bytecode": "0x608060405234801561001057600080fd5b50600280546001600160a01b03191633179055612b37806100326000396000f3fe60806040526004361061012a5760003560e01c80635dfe6f10116100ab5780638f71c2641161006f5780638f71c264146103a45780639d7c9e3e146103c45780639f259028146103d9578063c8dca31e146103f9578063cec96c381461040c578063e0f6ef871461042c57600080fd5b80635dfe6f1014610304578063616e7a5814610324578063744c05c3146103445780637c54a88614610364578063866abc551461038457600080fd5b806343180647116100f2578063431806471461026057806343bb5a451461027557806345fc6455146102a257806355c7d72c146102c25780635c1bedc4146102e457600080fd5b8063054564f01461012f57806306e41ded1461016c57806320af01fd1461019a5780632829fc53146101c75780632b85ed9c1461024a575b600080fd5b34801561013b57600080fd5b5061014f61014a36600461232c565b610442565b60405161016398979695949392919061239c565b60405180910390f35b34801561017857600080fd5b5061018c61018736600461242c565b610756565b604051908152602001610163565b3480156101a657600080fd5b506101ba6101b536600461244e565b61087a565b6040516101639190612501565b3480156101d357600080fd5b506102366101e236600461244e565b60056020819052600091825260409091208054600182015460028301546003840154600485015495850154600686015460079096015494966001600160a01b03948516969490931694919360ff9091169188565b604051610163989796959493929190612516565b34801561025657600080fd5b5061018c60015481565b61027361026e36600461244e565b610929565b005b34801561028157600080fd5b5061029561029036600461242c565b610a33565b6040516101639190612566565b3480156102ae57600080fd5b506102736102bd3660046125b5565b610c10565b3480156102ce57600080fd5b506102d76111c0565b60405161016391906125d7565b3480156102f057600080fd5b5061018c6102ff36600461242c565b61152f565b34801561031057600080fd5b5061027361031f36600461244e565b611641565b34801561033057600080fd5b5061014f61033f36600461244e565b6116fa565b34801561035057600080fd5b5061027361035f36600461244e565b611740565b34801561037057600080fd5b5061027361037f36600461244e565b6117f3565b34801561039057600080fd5b5061029561039f36600461242c565b6118d7565b3480156103b057600080fd5b506102736103bf36600461244e565b611aaa565b3480156103d057600080fd5b506102d7611b77565b3480156103e557600080fd5b506102736103f436600461244e565b611ed2565b61027361040736600461244e565b611f56565b34801561041857600080fd5b5061027361042736600461277e565b61202d565b34801561043857600080fd5b5061018c60005481565b6004602052816000526040600020818154811061045e57600080fd5b60009182526020909120600890910201805460018201546002830180549295506001600160a01b0390911693509061049590612858565b80601f01602080910402602001604051908101604052809291908181526020018280546104c190612858565b801561050e5780601f106104e35761010080835404028352916020019161050e565b820191906000526020600020905b8154815290600101906020018083116104f157829003601f168201915b50505050509080600301805461052390612858565b80601f016020809104026020016040519081016040528092919081815260200182805461054f90612858565b801561059c5780601f106105715761010080835404028352916020019161059c565b820191906000526020600020905b81548152906001019060200180831161057f57829003601f168201915b5050505050908060040154908060050180546105b790612858565b80601f01602080910402602001604051908101604052809291908181526020018280546105e390612858565b80156106305780601f1061060557610100808354040283529160200191610630565b820191906000526020600020905b81548152906001019060200180831161061357829003601f168201915b50505050509080600601805461064590612858565b80601f016020809104026020016040519081016040528092919081815260200182805461067190612858565b80156106be5780601f10610693576101008083540402835291602001916106be565b820191906000526020600020905b8154815290600101906020018083116106a157829003601f168201915b5050505050908060070180546106d390612858565b80601f01602080910402602001604051908101604052809291908181526020018280546106ff90612858565b801561074c5780601f106107215761010080835404028352916020019161074c565b820191906000526020600020905b81548152906001019060200180831161072f57829003601f168201915b5050505050905088565b6002546000906001600160a01b0316331461078c5760405162461bcd60e51b815260040161078390612892565b60405180910390fd5b600060015b6001548111610871576000818152600560205260409020600201546001600160a01b0385811691161480156107ea5750600081815260056020819052604090912081015460ff16818111156107e8576107e8612467565b145b1561085f57600081815260056020526040902060039081015461080f906001906128f0565b8154811061081f5761081f612903565b90600052602060002090600802016004015460056000838152602001908152602001600020600401546108529190612919565b61085c9083612930565b91505b8061086981612943565b915050610791565b5090505b919050565b6108826122d0565b6000828152600560208181526040928390208351610100810185528154815260018201546001600160a01b039081169382019390935260028201549092169382019390935260038301546060820152600483015460808201528282015490929160a084019160ff16908111156108fa576108fa612467565b600581111561090b5761090b612467565b81526006820154602082015260079091015460409091015292915050565b600081815260056020526040902060028101546001600160a01b031661096257604051639662254d60e01b815260040160405180910390fd5b600060058083015460ff169081111561097d5761097d612467565b1461099b5760405163baf3f0f760e01b815260040160405180910390fd5b60028101546001600160a01b031633146109c8576040516342e8fb9360e11b815260040160405180910390fd5b806007015434146109ec5760405163070f6eed60e11b815260040160405180910390fd5b60058101805460ff191660011790556040518281527fbb4caf5cc5881ce7ca32360d11de0073f84150e1b868baeaca32c217e59b3eb9906020015b60405180910390a15050565b6060600060015b60018054610a4791612930565b811015610a92576000818152600560205260409020600201546001600160a01b03808616911603610a805781610a7c81612943565b9250505b80610a8a81612943565b915050610a3a565b5060008167ffffffffffffffff811115610aae57610aae6126db565b604051908082528060200260200182016040528015610ae757816020015b610ad46122d0565b815260200190600190039081610acc5790505b509050600060015b60018054610afc91612930565b811015610c06576000818152600560205260409020600201546001600160a01b03808816911603610bf4576000818152600560208181526040928390208351610100810185528154815260018201546001600160a01b039081169382019390935260028201549092169382019390935260038301546060820152600483015460808201528282015490929160a084019160ff1690811115610b9f57610b9f612467565b6005811115610bb057610bb0612467565b815260200160068201548152602001600782015481525050838381518110610bda57610bda612903565b60200260200101819052508180610bf090612943565b9250505b80610bfe81612943565b915050610aef565b5090949350505050565b600082118015610c2257506000548211155b610c675760405162461bcd60e51b8152602060048201526016602482015275141c9bd91d58dd08191bd95cc81b9bdd08195e1a5cdd60521b6044820152606401610783565b60006003610c766001856128f0565b81548110610c8657610c86612903565b906000526020600020906008020160405180610100016040529081600082015481526020016001820160009054906101000a90046001600160a01b03166001600160a01b03166001600160a01b03168152602001600282018054610ce990612858565b80601f0160208091040260200160405190810160405280929190818152602001828054610d1590612858565b8015610d625780601f10610d3757610100808354040283529160200191610d62565b820191906000526020600020905b815481529060010190602001808311610d4557829003601f168201915b50505050508152602001600382018054610d7b90612858565b80601f0160208091040260200160405190810160405280929190818152602001828054610da790612858565b8015610df45780601f10610dc957610100808354040283529160200191610df4565b820191906000526020600020905b815481529060010190602001808311610dd757829003601f168201915b5050505050815260200160048201548152602001600582018054610e1790612858565b80601f0160208091040260200160405190810160405280929190818152602001828054610e4390612858565b8015610e905780601f10610e6557610100808354040283529160200191610e90565b820191906000526020600020905b815481529060010190602001808311610e7357829003601f168201915b50505050508152602001600682018054610ea990612858565b80601f0160208091040260200160405190810160405280929190818152602001828054610ed590612858565b8015610f225780601f10610ef757610100808354040283529160200191610f22565b820191906000526020600020905b815481529060010190602001808311610f0557829003601f168201915b50505050508152602001600782018054610f3b90612858565b80601f0160208091040260200160405190810160405280929190818152602001828054610f6790612858565b8015610fb45780601f10610f8957610100808354040283529160200191610fb4565b820191906000526020600020905b815481529060010190602001808311610f9757829003601f168201915b505050505081525050905080602001516001600160a01b0316336001600160a01b031603610ff55760405163089a9c0b60e31b815260040160405180910390fd5b6001805490600061100583612943565b919050555060006040518061010001604052806001548152602001336001600160a01b0316815260200183602001516001600160a01b031681526020018581526020018481526020016000600581111561106157611061612467565b81526020018360800151856110769190612919565b611081906003612919565b81526020018360800151856110969190612919565b6110a1906002612919565b905260018054600090815260056020818152604092839020855181559085015181850180546001600160a01b03199081166001600160a01b039384161790915593860151600283018054909516911617909255606084015160038301556080840151600483015560a08401518282018054959650869593949193909260ff199091169190849081111561113657611136612467565b021790555060c0820151816006015560e0820151816007015590505080604001516001600160a01b031681602001516001600160a01b031682600001517f453d784c8814f056ce472d29a9ce8d3e5323675f6cd22743eb24245d8ae2ec27846060015185608001518660a001516040516111b29392919061295c565b60405180910390a450505050565b336000908152600460209081526040808320805482518185028101850190935280835260609492939192909184015b828210156115265760008481526020908190206040805161010081018252600886029092018054835260018101546001600160a01b0316938301939093526002830180549293929184019161124390612858565b80601f016020809104026020016040519081016040528092919081815260200182805461126f90612858565b80156112bc5780601f10611291576101008083540402835291602001916112bc565b820191906000526020600020905b81548152906001019060200180831161129f57829003601f168201915b505050505081526020016003820180546112d590612858565b80601f016020809104026020016040519081016040528092919081815260200182805461130190612858565b801561134e5780601f106113235761010080835404028352916020019161134e565b820191906000526020600020905b81548152906001019060200180831161133157829003601f168201915b505050505081526020016004820154815260200160058201805461137190612858565b80601f016020809104026020016040519081016040528092919081815260200182805461139d90612858565b80156113ea5780601f106113bf576101008083540402835291602001916113ea565b820191906000526020600020905b8154815290600101906020018083116113cd57829003601f168201915b5050505050815260200160068201805461140390612858565b80601f016020809104026020016040519081016040528092919081815260200182805461142f90612858565b801561147c5780601f106114515761010080835404028352916020019161147c565b820191906000526020600020905b81548152906001019060200180831161145f57829003601f168201915b5050505050815260200160078201805461149590612858565b80601f01602080910402602001604051908101604052809291908181526020018280546114c190612858565b801561150e5780601f106114e35761010080835404028352916020019161150e565b820191906000526020600020905b8154815290600101906020018083116114f157829003601f168201915b505050505081525050815260200190600101906111ef565b50505050905090565b6002546000906001600160a01b0316331461155c5760405162461bcd60e51b815260040161078390612892565b600060015b6001548111610871576000818152600560205260409020600101546001600160a01b0385811691161480156115ba5750600081815260056020819052604090912081015460ff16818111156115b8576115b8612467565b145b1561162f5760008181526005602052604090206003908101546115df906001906128f0565b815481106115ef576115ef612903565b90600052602060002090600802016004015460056000838152602001908152602001600020600401546116229190612919565b61162c9083612930565b91505b8061163981612943565b915050611561565b6000818152600560205260409020600360058083015460ff169081111561166a5761166a612467565b146116885760405163baf3f0f760e01b815260040160405180910390fd5b60028101546001600160a01b031633146116b5576040516386efbb5560e01b815260040160405180910390fd5b6005818101805460ff19169091179055600681015460405133916108fc811502916000818181858888f193505050501580156116f5573d6000803e3d6000fd5b505050565b6003818154811061170a57600080fd5b60009182526020909120600890910201805460018201546002830180549294506001600160a01b03909116929161049590612858565b6000818152600560205260409020600160058083015460ff169081111561176957611769612467565b146117875760405163baf3f0f760e01b815260040160405180910390fd5b60028101546001600160a01b031633146117b4576040516342e8fb9360e11b815260040160405180910390fd5b60058101805460ff19166004179055600781015460405133916108fc811502916000818181858888f193505050501580156116f5573d6000803e3d6000fd5b6000818152600560205260409020600260058083015460ff169081111561181c5761181c612467565b1461183a5760405163baf3f0f760e01b815260040160405180910390fd5b60018101546001600160a01b03163314611867576040516386efbb5560e01b815260040160405180910390fd5b60058101805460ff19166003179055600781015460405133916108fc811502916000818181858888f193505050501580156118a6573d6000803e3d6000fd5b506040518281527f2d1cc1c3d4f24c56ecf51662736f55d92df854a591c7911456e2639fbd6b9d5b90602001610a27565b6060600060015b600180546118eb91612930565b811015611936576000818152600560205260409020600101546001600160a01b03808616911603611924578161192081612943565b9250505b8061192e81612943565b9150506118de565b5060008167ffffffffffffffff811115611952576119526126db565b60405190808252806020026020018201604052801561198b57816020015b6119786122d0565b8152602001906001900390816119705790505b509050600060015b600180546119a091612930565b811015610c06576000818152600560205260409020600101546001600160a01b03808816911603611a98576000818152600560208181526040928390208351610100810185528154815260018201546001600160a01b039081169382019390935260028201549092169382019390935260038301546060820152600483015460808201528282015490929160a084019160ff1690811115611a4357611a43612467565b6005811115611a5457611a54612467565b815260200160068201548152602001600782015481525050838381518110611a7e57611a7e612903565b60200260200101819052508180611a9490612943565b9250505b80611aa281612943565b915050611993565b60008181526005602052604081209060058083015460ff1690811115611ad257611ad2612467565b14611af05760405163baf3f0f760e01b815260040160405180910390fd5b60018101546001600160a01b03163314611b1d576040516386efbb5560e01b815260040160405180910390fd5b50600090815260056020819052604082208281556001810180546001600160a01b031990811690915560028201805490911690556003810183905560048101839055908101805460ff191690556006810182905560070155565b60606003805480602002602001604051908101604052809291908181526020016000905b828210156115265760008481526020908190206040805161010081018252600886029092018054835260018101546001600160a01b03169383019390935260028301805492939291840191611bef90612858565b80601f0160208091040260200160405190810160405280929190818152602001828054611c1b90612858565b8015611c685780601f10611c3d57610100808354040283529160200191611c68565b820191906000526020600020905b815481529060010190602001808311611c4b57829003601f168201915b50505050508152602001600382018054611c8190612858565b80601f0160208091040260200160405190810160405280929190818152602001828054611cad90612858565b8015611cfa5780601f10611ccf57610100808354040283529160200191611cfa565b820191906000526020600020905b815481529060010190602001808311611cdd57829003601f168201915b5050505050815260200160048201548152602001600582018054611d1d90612858565b80601f0160208091040260200160405190810160405280929190818152602001828054611d4990612858565b8015611d965780601f10611d6b57610100808354040283529160200191611d96565b820191906000526020600020905b815481529060010190602001808311611d7957829003601f168201915b50505050508152602001600682018054611daf90612858565b80601f0160208091040260200160405190810160405280929190818152602001828054611ddb90612858565b8015611e285780601f10611dfd57610100808354040283529160200191611e28565b820191906000526020600020905b815481529060010190602001808311611e0b57829003601f168201915b50505050508152602001600782018054611e4190612858565b80601f0160208091040260200160405190810160405280929190818152602001828054611e6d90612858565b8015611eba5780601f10611e8f57610100808354040283529160200191611eba565b820191906000526020600020905b815481529060010190602001808311611e9d57829003601f168201915b50505050508152505081526020019060010190611b9b565b60008181526005602052604081209060058083015460ff1690811115611efa57611efa612467565b14611f185760405163baf3f0f760e01b815260040160405180910390fd5b60028101546001600160a01b03163314611f45576040516342e8fb9360e11b815260040160405180910390fd5b600501805460ff1916600417905550565b6000818152600560205260409020600160058083015460ff1690811115611f7f57611f7f612467565b14611f9d5760405163baf3f0f760e01b815260040160405180910390fd5b60018101546001600160a01b03163314611fca576040516386efbb5560e01b815260040160405180910390fd5b80600601543414611fee5760405163070f6eed60e11b815260040160405180910390fd5b60058101805460ff191660021790556040518281527f6cd5d07314d2cda25d946aff7888bc6cbf9944b69c90c5543f4745cc70fd70c790602001610a27565b60008054908061203c83612943565b909155505060408051610100810182526000805482523360208301908152928201898152606083018990526080830188905260a0830187905260c0830186905260e0830185905260038054600181018255925282517fc2575a0e9e593c00f959f8c92f12db2869c3395a3b0502d05e2516446f71f85b600890930292830190815593517fc2575a0e9e593c00f959f8c92f12db2869c3395a3b0502d05e2516446f71f85c830180546001600160a01b0319166001600160a01b03909216919091179055519192839290917fc2575a0e9e593c00f959f8c92f12db2869c3395a3b0502d05e2516446f71f85d019061213390826129cd565b506060820151600382019061214890826129cd565b506080820151600482015560a0820151600582019061216790826129cd565b5060c0820151600682019061217c90826129cd565b5060e0820151600782019061219190826129cd565b50503360009081526004602090815260408083208054600180820183559185529383902086516008909502019384559185015191830180546001600160a01b0319166001600160a01b039093169290921790915583015183925060028201906121fa90826129cd565b506060820151600382019061220f90826129cd565b506080820151600482015560a0820151600582019061222e90826129cd565b5060c0820151600682019061224390826129cd565b5060e0820151600782019061225890826129cd565b50505080602001516001600160a01b031681600001517f92b0dfc54afa4c0aeea7f4df9a5a1bb9ea514d6a4389654c9777b5f1a4b846438360400151846060015185608001518660a001518760c001518860e001516040516122bf96959493929190612a8d565b60405180910390a350505050505050565b604080516101008101825260008082526020820181905291810182905260608101829052608081018290529060a0820190815260200160008152602001600081525090565b80356001600160a01b038116811461087557600080fd5b6000806040838503121561233f57600080fd5b61234883612315565b946020939093013593505050565b6000815180845260005b8181101561237c57602081850181015186830182015201612360565b506000602082860101526020601f19601f83011685010191505092915050565b8881526001600160a01b0388166020820152610100604082018190526000906123c78382018a612356565b905082810360608401526123db8189612356565b905086608084015282810360a08401526123f58187612356565b905082810360c08401526124098186612356565b905082810360e084015261241d8185612356565b9b9a5050505050505050505050565b60006020828403121561243e57600080fd5b61244782612315565b9392505050565b60006020828403121561246057600080fd5b5035919050565b634e487b7160e01b600052602160045260246000fd5b6006811061249b57634e487b7160e01b600052602160045260246000fd5b9052565b80518252602081015160018060a01b0380821660208501528060408401511660408501525050606081015160608301526080810151608083015260a08101516124eb60a084018261247d565b5060c0818101519083015260e090810151910152565b6101008101612510828461249f565b92915050565b8881526001600160a01b038881166020830152871660408201526060810186905260808101859052610100810161255060a083018661247d565b60c082019390935260e001529695505050505050565b6020808252825182820181905260009190848201906040850190845b818110156125a95761259583855161249f565b928401926101009290920191600101612582565b50909695505050505050565b600080604083850312156125c857600080fd5b50508035926020909101359150565b60006020808301818452808551808352604092508286019150828160051b87010184880160005b838110156126cd57603f19898403018552815180518452878101516001600160a01b031688850152868101516101008886018190529061264082870182612356565b9150506060808301518683038288015261265a8382612356565b92505050608080830151818701525060a080830151868303828801526126808382612356565b9250505060c0808301518683038288015261269b8382612356565b9250505060e080830151925085820381870152506126b98183612356565b9689019694505050908601906001016125fe565b509098975050505050505050565b634e487b7160e01b600052604160045260246000fd5b600082601f83011261270257600080fd5b813567ffffffffffffffff8082111561271d5761271d6126db565b604051601f8301601f19908116603f01168101908282118183101715612745576127456126db565b8160405283815286602085880101111561275e57600080fd5b836020870160208301376000602085830101528094505050505092915050565b60008060008060008060c0878903121561279757600080fd5b863567ffffffffffffffff808211156127af57600080fd5b6127bb8a838b016126f1565b975060208901359150808211156127d157600080fd5b6127dd8a838b016126f1565b96506040890135955060608901359150808211156127fa57600080fd5b6128068a838b016126f1565b9450608089013591508082111561281c57600080fd5b6128288a838b016126f1565b935060a089013591508082111561283e57600080fd5b5061284b89828a016126f1565b9150509295509295509295565b600181811c9082168061286c57607f821691505b60208210810361288c57634e487b7160e01b600052602260045260246000fd5b50919050565b60208082526028908201527f596f75722061726520746865206f776e6572206f662074686520736d6172742060408201526718dbdb9d1c9858dd60c21b606082015260800190565b634e487b7160e01b600052601160045260246000fd5b81810381811115612510576125106128da565b634e487b7160e01b600052603260045260246000fd5b8082028115828204841417612510576125106128da565b80820180821115612510576125106128da565b600060018201612955576129556128da565b5060010190565b8381526020810183905260608101612977604083018461247d565b949350505050565b601f8211156116f557600081815260208120601f850160051c810160208610156129a65750805b601f850160051c820191505b818110156129c5578281556001016129b2565b505050505050565b815167ffffffffffffffff8111156129e7576129e76126db565b6129fb816129f58454612858565b8461297f565b602080601f831160018114612a305760008415612a185750858301515b600019600386901b1c1916600185901b1785556129c5565b600085815260208120601f198616915b82811015612a5f57888601518255948401946001909101908401612a40565b5085821015612a7d5787850151600019600388901b60f8161c191681555b5050505050600190811b01905550565b60c081526000612aa060c0830189612356565b8281036020840152612ab28189612356565b90508660408401528281036060840152612acc8187612356565b90508281036080840152612ae08186612356565b905082810360a0840152612af48185612356565b999850505050505050505056fea264697066735822122004929ca1c2ea212f4881dab0e47d2d8a1ea99f98a73f1936963dd1bc0aeb73fc64736f6c63430008110033",
  "linkReferences": {},
  "deployedLinkReferences": {}
}