{
  "_format": "hh-sol-artifact-1",
  "contractName": "RemoteSafeTrading",
  "sourceName": "contracts/SafeRemotePurchase.sol",
  "abi": [
    {
      "inputs": [],
      "name": "InsufficientDeposit",
      "type": "error"
    },
    {
      "inputs": [],
      "name": "InvalidState",
      "type": "error"
    },
    {
      "inputs": [],
      "name": "OnlyBuyer",
      "type": "error"
    },
    {
      "inputs": [],
      "name": "OnlySeller",
      "type": "error"
    },
    {
      "inputs": [],
      "name": "PurchaseTransactionNoLongerExist",
      "type": "error"
    },
    {
      "inputs": [],
      "name": "SellerCanNotBuyOwnProduct",
      "type": "error"
    },
    {
      "inputs": [],
      "name": "ValueNotEven",
      "type": "error"
    },
    {
      "anonymous": false,
      "inputs": [],
      "name": "Aborted",
      "type": "event"
    },
    {
      "anonymous": false,
      "inputs": [],
      "name": "ItemReceived",
      "type": "event"
    },
    {
      "anonymous": false,
      "inputs": [
        {
          "indexed": true,
          "internalType": "uint256",
          "name": "productId",
          "type": "uint256"
        },
        {
          "indexed": true,
          "internalType": "address",
          "name": "seller",
          "type": "address"
        },
        {
          "indexed": false,
          "internalType": "string",
          "name": "seller_name",
          "type": "string"
        },
        {
          "indexed": false,
          "internalType": "string",
          "name": "name",
          "type": "string"
        },
        {
          "indexed": false,
          "internalType": "uint256",
          "name": "price",
          "type": "uint256"
        },
        {
          "indexed": false,
          "internalType": "string",
          "name": "description",
          "type": "string"
        },
        {
          "indexed": false,
          "internalType": "string",
          "name": "image",
          "type": "string"
        },
        {
          "indexed": false,
          "internalType": "string",
          "name": "category",
          "type": "string"
        }
      ],
      "name": "ProductCreated",
      "type": "event"
    },
    {
      "anonymous": false,
      "inputs": [],
      "name": "PurchaseConfirmed",
      "type": "event"
    },
    {
      "anonymous": false,
      "inputs": [
        {
          "indexed": true,
          "internalType": "uint256",
          "name": "purchaseId",
          "type": "uint256"
        },
        {
          "indexed": true,
          "internalType": "address",
          "name": "buyer",
          "type": "address"
        },
        {
          "indexed": true,
          "internalType": "address",
          "name": "seller",
          "type": "address"
        },
        {
          "indexed": false,
          "internalType": "uint256",
          "name": "productId",
          "type": "uint256"
        },
        {
          "indexed": false,
          "internalType": "uint256",
          "name": "quantity",
          "type": "uint256"
        },
        {
          "indexed": false,
          "internalType": "enum RemoteSafeTrading.State",
          "name": "status",
          "type": "uint8"
        }
      ],
      "name": "PurchaseCreated",
      "type": "event"
    },
    {
      "anonymous": false,
      "inputs": [],
      "name": "SellerRefunded",
      "type": "event"
    },
    {
      "inputs": [
        {
          "internalType": "uint256",
          "name": "_purchase_id",
          "type": "uint256"
        }
      ],
      "name": "buyerConfirmPurchase",
      "outputs": [],
      "stateMutability": "payable",
      "type": "function"
    },
    {
      "inputs": [
        {
          "internalType": "uint256",
          "name": "_purchase_id",
          "type": "uint256"
        }
      ],
      "name": "buyerConfirmReceivingProduct",
      "outputs": [],
      "stateMutability": "nonpayable",
      "type": "function"
    },
    {
      "inputs": [
        {
          "internalType": "uint256",
          "name": "_purchase_id",
          "type": "uint256"
        }
      ],
      "name": "buyerDiscardInterestForProduct",
      "outputs": [],
      "stateMutability": "nonpayable",
      "type": "function"
    },
    {
      "inputs": [
        {
          "internalType": "uint256",
          "name": "_productId",
          "type": "uint256"
        },
        {
          "internalType": "uint256",
          "name": "_quantity",
          "type": "uint256"
        }
      ],
      "name": "buyerIndicateInterestToBuyProduct",
      "outputs": [],
      "stateMutability": "nonpayable",
      "type": "function"
    },
    {
      "inputs": [
        {
          "internalType": "string",
          "name": "_sellerName",
          "type": "string"
        },
        {
          "internalType": "string",
          "name": "_name",
          "type": "string"
        },
        {
          "internalType": "uint256",
          "name": "_priceInWei",
          "type": "uint256"
        },
        {
          "internalType": "string",
          "name": "_description",
          "type": "string"
        },
        {
          "internalType": "string",
          "name": "_image",
          "type": "string"
        },
        {
          "internalType": "string",
          "name": "_category",
          "type": "string"
        }
      ],
      "name": "createProduct",
      "outputs": [],
      "stateMutability": "nonpayable",
      "type": "function"
    },
    {
      "inputs": [
        {
          "internalType": "uint256",
          "name": "_purchase_id",
          "type": "uint256"
        }
      ],
      "name": "getPurchaseByID",
      "outputs": [
        {
          "components": [
            {
              "internalType": "uint256",
              "name": "purchaseId",
              "type": "uint256"
            },
            {
              "internalType": "address",
              "name": "buyer",
              "type": "address"
            },
            {
              "internalType": "address",
              "name": "seller",
              "type": "address"
            },
            {
              "internalType": "uint256",
              "name": "productId",
              "type": "uint256"
            },
            {
              "internalType": "uint256",
              "name": "quantity",
              "type": "uint256"
            },
            {
              "internalType": "enum RemoteSafeTrading.State",
              "name": "status",
              "type": "uint8"
            },
            {
              "internalType": "uint256",
              "name": "requiredDepositBuyerInWei",
              "type": "uint256"
            },
            {
              "internalType": "uint256",
              "name": "requiredDepositSellerInWei",
              "type": "uint256"
            }
          ],
          "internalType": "struct RemoteSafeTrading.Purchase",
          "name": "",
          "type": "tuple"
        }
      ],
      "stateMutability": "view",
      "type": "function"
    },
    {
      "inputs": [
        {
          "internalType": "address",
          "name": "buyerAddress",
          "type": "address"
        }
      ],
      "name": "getPurchaseTransactionBuyer",
      "outputs": [
        {
          "components": [
            {
              "internalType": "uint256",
              "name": "purchaseId",
              "type": "uint256"
            },
            {
              "internalType": "address",
              "name": "buyer",
              "type": "address"
            },
            {
              "internalType": "address",
              "name": "seller",
              "type": "address"
            },
            {
              "internalType": "uint256",
              "name": "productId",
              "type": "uint256"
            },
            {
              "internalType": "uint256",
              "name": "quantity",
              "type": "uint256"
            },
            {
              "internalType": "enum RemoteSafeTrading.State",
              "name": "status",
              "type": "uint8"
            },
            {
              "internalType": "uint256",
              "name": "requiredDepositBuyerInWei",
              "type": "uint256"
            },
            {
              "internalType": "uint256",
              "name": "requiredDepositSellerInWei",
              "type": "uint256"
            }
          ],
          "internalType": "struct RemoteSafeTrading.Purchase[]",
          "name": "",
          "type": "tuple[]"
        }
      ],
      "stateMutability": "view",
      "type": "function"
    },
    {
      "inputs": [
        {
          "internalType": "address",
          "name": "sellerAddress",
          "type": "address"
        }
      ],
      "name": "getPurchaseTransactionSeller",
      "outputs": [
        {
          "components": [
            {
              "internalType": "uint256",
              "name": "purchaseId",
              "type": "uint256"
            },
            {
              "internalType": "address",
              "name": "buyer",
              "type": "address"
            },
            {
              "internalType": "address",
              "name": "seller",
              "type": "address"
            },
            {
              "internalType": "uint256",
              "name": "productId",
              "type": "uint256"
            },
            {
              "internalType": "uint256",
              "name": "quantity",
              "type": "uint256"
            },
            {
              "internalType": "enum RemoteSafeTrading.State",
              "name": "status",
              "type": "uint8"
            },
            {
              "internalType": "uint256",
              "name": "requiredDepositBuyerInWei",
              "type": "uint256"
            },
            {
              "internalType": "uint256",
              "name": "requiredDepositSellerInWei",
              "type": "uint256"
            }
          ],
          "internalType": "struct RemoteSafeTrading.Purchase[]",
          "name": "",
          "type": "tuple[]"
        }
      ],
      "stateMutability": "view",
      "type": "function"
    },
    {
      "inputs": [],
      "name": "productCount",
      "outputs": [
        {
          "internalType": "uint256",
          "name": "",
          "type": "uint256"
        }
      ],
      "stateMutability": "view",
      "type": "function"
    },
    {
      "inputs": [
        {
          "internalType": "uint256",
          "name": "",
          "type": "uint256"
        }
      ],
      "name": "productListings",
      "outputs": [
        {
          "internalType": "uint256",
          "name": "productId",
          "type": "uint256"
        },
        {
          "internalType": "address",
          "name": "seller",
          "type": "address"
        },
        {
          "internalType": "string",
          "name": "sellerName",
          "type": "string"
        },
        {
          "internalType": "string",
          "name": "name",
          "type": "string"
        },
        {
          "internalType": "uint256",
          "name": "priceInWei",
          "type": "uint256"
        },
        {
          "internalType": "string",
          "name": "description",
          "type": "string"
        },
        {
          "internalType": "string",
          "name": "image",
          "type": "string"
        },
        {
          "internalType": "string",
          "name": "category",
          "type": "string"
        }
      ],
      "stateMutability": "view",
      "type": "function"
    },
    {
      "inputs": [],
      "name": "purchaseCount",
      "outputs": [
        {
          "internalType": "uint256",
          "name": "",
          "type": "uint256"
        }
      ],
      "stateMutability": "view",
      "type": "function"
    },
    {
      "inputs": [
        {
          "internalType": "uint256",
          "name": "",
          "type": "uint256"
        }
      ],
      "name": "purchaseHistory",
      "outputs": [
        {
          "internalType": "uint256",
          "name": "purchaseId",
          "type": "uint256"
        },
        {
          "internalType": "address",
          "name": "buyer",
          "type": "address"
        },
        {
          "internalType": "address",
          "name": "seller",
          "type": "address"
        },
        {
          "internalType": "uint256",
          "name": "productId",
          "type": "uint256"
        },
        {
          "internalType": "uint256",
          "name": "quantity",
          "type": "uint256"
        },
        {
          "internalType": "enum RemoteSafeTrading.State",
          "name": "status",
          "type": "uint8"
        },
        {
          "internalType": "uint256",
          "name": "requiredDepositBuyerInWei",
          "type": "uint256"
        },
        {
          "internalType": "uint256",
          "name": "requiredDepositSellerInWei",
          "type": "uint256"
        }
      ],
      "stateMutability": "view",
      "type": "function"
    },
    {
      "inputs": [],
      "name": "returnAllProducts",
      "outputs": [
        {
          "components": [
            {
              "internalType": "uint256",
              "name": "productId",
              "type": "uint256"
            },
            {
              "internalType": "address",
              "name": "seller",
              "type": "address"
            },
            {
              "internalType": "string",
              "name": "sellerName",
              "type": "string"
            },
            {
              "internalType": "string",
              "name": "name",
              "type": "string"
            },
            {
              "internalType": "uint256",
              "name": "priceInWei",
              "type": "uint256"
            },
            {
              "internalType": "string",
              "name": "description",
              "type": "string"
            },
            {
              "internalType": "string",
              "name": "image",
              "type": "string"
            },
            {
              "internalType": "string",
              "name": "category",
              "type": "string"
            }
          ],
          "internalType": "struct RemoteSafeTrading.Product[]",
          "name": "",
          "type": "tuple[]"
        }
      ],
      "stateMutability": "view",
      "type": "function"
    },
    {
      "inputs": [],
      "name": "returnAllProductsBelongToSeller",
      "outputs": [
        {
          "components": [
            {
              "internalType": "uint256",
              "name": "productId",
              "type": "uint256"
            },
            {
              "internalType": "address",
              "name": "seller",
              "type": "address"
            },
            {
              "internalType": "string",
              "name": "sellerName",
              "type": "string"
            },
            {
              "internalType": "string",
              "name": "name",
              "type": "string"
            },
            {
              "internalType": "uint256",
              "name": "priceInWei",
              "type": "uint256"
            },
            {
              "internalType": "string",
              "name": "description",
              "type": "string"
            },
            {
              "internalType": "string",
              "name": "image",
              "type": "string"
            },
            {
              "internalType": "string",
              "name": "category",
              "type": "string"
            }
          ],
          "internalType": "struct RemoteSafeTrading.Product[]",
          "name": "",
          "type": "tuple[]"
        }
      ],
      "stateMutability": "view",
      "type": "function"
    },
    {
      "inputs": [
        {
          "internalType": "uint256",
          "name": "_purchase_id",
          "type": "uint256"
        }
      ],
      "name": "sellerAbortPurchaseAfterAcknowledge",
      "outputs": [],
      "stateMutability": "nonpayable",
      "type": "function"
    },
    {
      "inputs": [
        {
          "internalType": "uint256",
          "name": "_purchase_id",
          "type": "uint256"
        }
      ],
      "name": "sellerAbortPurchaseBeforeAcknowledge",
      "outputs": [],
      "stateMutability": "nonpayable",
      "type": "function"
    },
    {
      "inputs": [
        {
          "internalType": "uint256",
          "name": "_purchase_id",
          "type": "uint256"
        }
      ],
      "name": "sellerAcknowledgeBuyerInterest",
      "outputs": [],
      "stateMutability": "payable",
      "type": "function"
    },
    {
      "inputs": [
        {
          "internalType": "address",
          "name": "",
          "type": "address"
        },
        {
          "internalType": "uint256",
          "name": "",
          "type": "uint256"
        }
      ],
      "name": "sellerListings",
      "outputs": [
        {
          "internalType": "uint256",
          "name": "productId",
          "type": "uint256"
        },
        {
          "internalType": "address",
          "name": "seller",
          "type": "address"
        },
        {
          "internalType": "string",
          "name": "sellerName",
          "type": "string"
        },
        {
          "internalType": "string",
          "name": "name",
          "type": "string"
        },
        {
          "internalType": "uint256",
          "name": "priceInWei",
          "type": "uint256"
        },
        {
          "internalType": "string",
          "name": "description",
          "type": "string"
        },
        {
          "internalType": "string",
          "name": "image",
          "type": "string"
        },
        {
          "internalType": "string",
          "name": "category",
          "type": "string"
        }
      ],
      "stateMutability": "view",
      "type": "function"
    },
    {
      "inputs": [
        {
          "internalType": "uint256",
          "name": "_purchase_id",
          "type": "uint256"
        }
      ],
      "name": "sellerReclaimDepositPlusProductPayment",
      "outputs": [],
      "stateMutability": "nonpayable",
      "type": "function"
    }
  ],
  "bytecode": "0x608060405234801561001057600080fd5b506127d2806100206000396000f3fe6080604052600436106101145760003560e01c8063616e7a58116100a05780639d7c9e3e116100645780639d7c9e3e1461036e5780639f25902814610383578063c8dca31e146103a3578063cec96c38146103b6578063e0f6ef87146103d657600080fd5b8063616e7a58146102ce578063744c05c3146102ee5780637c54a8861461030e578063866abc551461032e5780638f71c2641461034e57600080fd5b806343180647116100e7578063431806471461022a57806343bb5a451461023f57806345fc64551461026c57806355c7d72c1461028c5780635dfe6f10146102ae57600080fd5b8063054564f01461011957806320af01fd146101565780632829fc53146101835780632b85ed9c14610206575b600080fd5b34801561012557600080fd5b5061013961013436600461200f565b6103ec565b60405161014d98979695949392919061207f565b60405180910390f35b34801561016257600080fd5b5061017661017136600461210f565b610700565b60405161014d91906121c2565b34801561018f57600080fd5b506101f261019e36600461210f565b60046020819052600091825260409091208054600182015460028301546003840154948401546005850154600686015460079096015494966001600160a01b03948516969390941694919260ff9091169188565b60405161014d9897969594939291906121d7565b34801561021257600080fd5b5061021c60015481565b60405190815260200161014d565b61023d61023836600461210f565b6107b2565b005b34801561024b57600080fd5b5061025f61025a366004612227565b61088f565b60405161014d9190612249565b34801561027857600080fd5b5061023d610287366004612298565b610a6f565b34801561029857600080fd5b506102a1611023565b60405161014d91906122ba565b3480156102ba57600080fd5b5061023d6102c936600461210f565b611392565b3480156102da57600080fd5b506101396102e936600461210f565b61144b565b3480156102fa57600080fd5b5061023d61030936600461210f565b611491565b34801561031a57600080fd5b5061023d61032936600461210f565b61154c565b34801561033a57600080fd5b5061025f610349366004612227565b6115d6565b34801561035a57600080fd5b5061023d61036936600461210f565b6117ac565b34801561037a57600080fd5b506102a1611879565b34801561038f57600080fd5b5061023d61039e36600461210f565b611bd4565b61023d6103b136600461210f565b611c5d565b3480156103c257600080fd5b5061023d6103d1366004612461565b611d0b565b3480156103e257600080fd5b5061021c60005481565b6003602052816000526040600020818154811061040857600080fd5b60009182526020909120600890910201805460018201546002830180549295506001600160a01b0390911693509061043f9061253b565b80601f016020809104026020016040519081016040528092919081815260200182805461046b9061253b565b80156104b85780601f1061048d576101008083540402835291602001916104b8565b820191906000526020600020905b81548152906001019060200180831161049b57829003601f168201915b5050505050908060030180546104cd9061253b565b80601f01602080910402602001604051908101604052809291908181526020018280546104f99061253b565b80156105465780601f1061051b57610100808354040283529160200191610546565b820191906000526020600020905b81548152906001019060200180831161052957829003601f168201915b5050505050908060040154908060050180546105619061253b565b80601f016020809104026020016040519081016040528092919081815260200182805461058d9061253b565b80156105da5780601f106105af576101008083540402835291602001916105da565b820191906000526020600020905b8154815290600101906020018083116105bd57829003601f168201915b5050505050908060060180546105ef9061253b565b80601f016020809104026020016040519081016040528092919081815260200182805461061b9061253b565b80156106685780601f1061063d57610100808354040283529160200191610668565b820191906000526020600020905b81548152906001019060200180831161064b57829003601f168201915b50505050509080600701805461067d9061253b565b80601f01602080910402602001604051908101604052809291908181526020018280546106a99061253b565b80156106f65780601f106106cb576101008083540402835291602001916106f6565b820191906000526020600020905b8154815290600101906020018083116106d957829003601f168201915b5050505050905088565b610708611fae565b6000828152600460208181526040928390208351610100810185528154815260018201546001600160a01b03908116938201939093526002820154909216938201939093526003830154606082015290820154608082015260058083015491929160a084019160ff9091169081111561078357610783612128565b600581111561079457610794612128565b81526006820154602082015260079091015460409091015292915050565b600081815260046020526040902060028101546001600160a01b03166107eb57604051639662254d60e01b815260040160405180910390fd5b600060058083015460ff169081111561080657610806612128565b146108245760405163baf3f0f760e01b815260040160405180910390fd5b60028101546001600160a01b03163314610851576040516342e8fb9360e11b815260040160405180910390fd5b806007015434146108755760405163070f6eed60e11b815260040160405180910390fd5b6005810180546001919060ff191682805b02179055505050565b6060600060015b600180546108a39161258b565b8110156108ee576000818152600460205260409020600201546001600160a01b038086169116036108dc57816108d88161259e565b9250505b806108e68161259e565b915050610896565b5060008167ffffffffffffffff81111561090a5761090a6123be565b60405190808252806020026020018201604052801561094357816020015b610930611fae565b8152602001906001900390816109285790505b509050600060015b600180546109589161258b565b811015610a65576000818152600460205260409020600201546001600160a01b03808816911603610a53576000818152600460208181526040928390208351610100810185528154815260018201546001600160a01b03908116938201939093526002820154909216938201939093526003830154606082015290820154608082015260058083015491929160a084019160ff909116908111156109fe576109fe612128565b6005811115610a0f57610a0f612128565b815260200160068201548152602001600782015481525050838381518110610a3957610a396125b7565b60200260200101819052508180610a4f9061259e565b9250505b80610a5d8161259e565b91505061094b565b5090949350505050565b600082118015610a8157506000548211155b610aca5760405162461bcd60e51b8152602060048201526016602482015275141c9bd91d58dd08191bd95cc81b9bdd08195e1a5cdd60521b604482015260640160405180910390fd5b60006002610ad96001856125cd565b81548110610ae957610ae96125b7565b906000526020600020906008020160405180610100016040529081600082015481526020016001820160009054906101000a90046001600160a01b03166001600160a01b03166001600160a01b03168152602001600282018054610b4c9061253b565b80601f0160208091040260200160405190810160405280929190818152602001828054610b789061253b565b8015610bc55780601f10610b9a57610100808354040283529160200191610bc5565b820191906000526020600020905b815481529060010190602001808311610ba857829003601f168201915b50505050508152602001600382018054610bde9061253b565b80601f0160208091040260200160405190810160405280929190818152602001828054610c0a9061253b565b8015610c575780601f10610c2c57610100808354040283529160200191610c57565b820191906000526020600020905b815481529060010190602001808311610c3a57829003601f168201915b5050505050815260200160048201548152602001600582018054610c7a9061253b565b80601f0160208091040260200160405190810160405280929190818152602001828054610ca69061253b565b8015610cf35780601f10610cc857610100808354040283529160200191610cf3565b820191906000526020600020905b815481529060010190602001808311610cd657829003601f168201915b50505050508152602001600682018054610d0c9061253b565b80601f0160208091040260200160405190810160405280929190818152602001828054610d389061253b565b8015610d855780601f10610d5a57610100808354040283529160200191610d85565b820191906000526020600020905b815481529060010190602001808311610d6857829003601f168201915b50505050508152602001600782018054610d9e9061253b565b80601f0160208091040260200160405190810160405280929190818152602001828054610dca9061253b565b8015610e175780601f10610dec57610100808354040283529160200191610e17565b820191906000526020600020905b815481529060010190602001808311610dfa57829003601f168201915b505050505081525050905080602001516001600160a01b0316336001600160a01b031603610e585760405163089a9c0b60e31b815260040160405180910390fd5b60018054906000610e688361259e565b919050555060006040518061010001604052806001548152602001336001600160a01b0316815260200183602001516001600160a01b0316815260200185815260200184815260200160006005811115610ec457610ec4612128565b8152602001836080015185610ed991906125e0565b610ee49060036125e0565b8152602001836080015185610ef991906125e0565b610f049060026125e0565b905260018054600090815260046020818152604092839020855181559085015181850180546001600160a01b03199081166001600160a01b0393841617909155938601516002830180549095169116179092556060840151600383015560808401519082015560a083015160058083018054959650869593949293909260ff19909116918490811115610f9957610f99612128565b021790555060c0820151816006015560e0820151816007015590505080604001516001600160a01b031681602001516001600160a01b031682600001517f453d784c8814f056ce472d29a9ce8d3e5323675f6cd22743eb24245d8ae2ec27846060015185608001518660a00151604051611015939291906125f7565b60405180910390a450505050565b336000908152600360209081526040808320805482518185028101850190935280835260609492939192909184015b828210156113895760008481526020908190206040805161010081018252600886029092018054835260018101546001600160a01b031693830193909352600283018054929392918401916110a69061253b565b80601f01602080910402602001604051908101604052809291908181526020018280546110d29061253b565b801561111f5780601f106110f45761010080835404028352916020019161111f565b820191906000526020600020905b81548152906001019060200180831161110257829003601f168201915b505050505081526020016003820180546111389061253b565b80601f01602080910402602001604051908101604052809291908181526020018280546111649061253b565b80156111b15780601f10611186576101008083540402835291602001916111b1565b820191906000526020600020905b81548152906001019060200180831161119457829003601f168201915b50505050508152602001600482015481526020016005820180546111d49061253b565b80601f01602080910402602001604051908101604052809291908181526020018280546112009061253b565b801561124d5780601f106112225761010080835404028352916020019161124d565b820191906000526020600020905b81548152906001019060200180831161123057829003601f168201915b505050505081526020016006820180546112669061253b565b80601f01602080910402602001604051908101604052809291908181526020018280546112929061253b565b80156112df5780601f106112b4576101008083540402835291602001916112df565b820191906000526020600020905b8154815290600101906020018083116112c257829003601f168201915b505050505081526020016007820180546112f89061253b565b80601f01602080910402602001604051908101604052809291908181526020018280546113249061253b565b80156113715780601f1061134657610100808354040283529160200191611371565b820191906000526020600020905b81548152906001019060200180831161135457829003601f168201915b50505050508152505081526020019060010190611052565b50505050905090565b6000818152600460205260409020600360058083015460ff16908111156113bb576113bb612128565b146113d95760405163baf3f0f760e01b815260040160405180910390fd5b60028101546001600160a01b03163314611406576040516386efbb5560e01b815260040160405180910390fd5b6005818101805460ff19169091179055600681015460405133916108fc811502916000818181858888f19350505050158015611446573d6000803e3d6000fd5b505050565b6002818154811061145b57600080fd5b60009182526020909120600890910201805460018201546002830180549294506001600160a01b03909116929161043f9061253b565b6000818152600460205260409020600160058083015460ff16908111156114ba576114ba612128565b146114d85760405163baf3f0f760e01b815260040160405180910390fd5b60028101546001600160a01b03163314611505576040516342e8fb9360e11b815260040160405180910390fd5b6005810180546004919060ff19166001835b02179055506007810154604051339180156108fc02916000818181858888f19350505050158015611446573d6000803e3d6000fd5b6000818152600460205260409020600260058083015460ff169081111561157557611575612128565b146115935760405163baf3f0f760e01b815260040160405180910390fd5b60018101546001600160a01b031633146115c0576040516386efbb5560e01b815260040160405180910390fd5b6005810180546003919060ff1916600183611517565b6060600060015b600180546115ea9161258b565b811015611635576000818152600460205260409020600101546001600160a01b03808616911603611623578161161f8161259e565b9250505b8061162d8161259e565b9150506115dd565b5060008167ffffffffffffffff811115611651576116516123be565b60405190808252806020026020018201604052801561168a57816020015b611677611fae565b81526020019060019003908161166f5790505b509050600060015b6001805461169f9161258b565b811015610a65576000818152600460205260409020600101546001600160a01b0380881691160361179a576000818152600460208181526040928390208351610100810185528154815260018201546001600160a01b03908116938201939093526002820154909216938201939093526003830154606082015290820154608082015260058083015491929160a084019160ff9091169081111561174557611745612128565b600581111561175657611756612128565b815260200160068201548152602001600782015481525050838381518110611780576117806125b7565b602002602001018190525081806117969061259e565b9250505b806117a48161259e565b915050611692565b60008181526004602052604081209060058083015460ff16908111156117d4576117d4612128565b146117f25760405163baf3f0f760e01b815260040160405180910390fd5b60018101546001600160a01b0316331461181f576040516386efbb5560e01b815260040160405180910390fd5b50600090815260046020819052604082208281556001810180546001600160a01b031990811690915560028201805490911690556003810183905590810182905560058101805460ff191690556006810182905560070155565b60606002805480602002602001604051908101604052809291908181526020016000905b828210156113895760008481526020908190206040805161010081018252600886029092018054835260018101546001600160a01b031693830193909352600283018054929392918401916118f19061253b565b80601f016020809104026020016040519081016040528092919081815260200182805461191d9061253b565b801561196a5780601f1061193f5761010080835404028352916020019161196a565b820191906000526020600020905b81548152906001019060200180831161194d57829003601f168201915b505050505081526020016003820180546119839061253b565b80601f01602080910402602001604051908101604052809291908181526020018280546119af9061253b565b80156119fc5780601f106119d1576101008083540402835291602001916119fc565b820191906000526020600020905b8154815290600101906020018083116119df57829003601f168201915b5050505050815260200160048201548152602001600582018054611a1f9061253b565b80601f0160208091040260200160405190810160405280929190818152602001828054611a4b9061253b565b8015611a985780601f10611a6d57610100808354040283529160200191611a98565b820191906000526020600020905b815481529060010190602001808311611a7b57829003601f168201915b50505050508152602001600682018054611ab19061253b565b80601f0160208091040260200160405190810160405280929190818152602001828054611add9061253b565b8015611b2a5780601f10611aff57610100808354040283529160200191611b2a565b820191906000526020600020905b815481529060010190602001808311611b0d57829003601f168201915b50505050508152602001600782018054611b439061253b565b80601f0160208091040260200160405190810160405280929190818152602001828054611b6f9061253b565b8015611bbc5780601f10611b9157610100808354040283529160200191611bbc565b820191906000526020600020905b815481529060010190602001808311611b9f57829003601f168201915b5050505050815250508152602001906001019061189d565b60008181526004602052604081209060058083015460ff1690811115611bfc57611bfc612128565b14611c1a5760405163baf3f0f760e01b815260040160405180910390fd5b60028101546001600160a01b03163314611c47576040516342e8fb9360e11b815260040160405180910390fd5b6005810180546004919060ff1916600183610886565b6000818152600460205260409020600160058083015460ff1690811115611c8657611c86612128565b14611ca45760405163baf3f0f760e01b815260040160405180910390fd5b60018101546001600160a01b03163314611cd1576040516386efbb5560e01b815260040160405180910390fd5b80600601543414611cf55760405163070f6eed60e11b815260040160405180910390fd5b6005810180546002919060ff1916600183610886565b600080549080611d1a8361259e565b909155505060408051610100810182526000805482523360208301908152928201898152606083018990526080830188905260a0830187905260c0830186905260e0830185905260028054600181018255925282517f405787fa12a823e0f2b7631cc41b3ba8828b3321ca811111fa75cd3aa3bb5ace600890930292830190815593517f405787fa12a823e0f2b7631cc41b3ba8828b3321ca811111fa75cd3aa3bb5acf830180546001600160a01b0319166001600160a01b03909216919091179055519192839290917f405787fa12a823e0f2b7631cc41b3ba8828b3321ca811111fa75cd3aa3bb5ad00190611e119082612668565b5060608201516003820190611e269082612668565b506080820151600482015560a08201516005820190611e459082612668565b5060c08201516006820190611e5a9082612668565b5060e08201516007820190611e6f9082612668565b50503360009081526003602090815260408083208054600180820183559185529383902086516008909502019384559185015191830180546001600160a01b0319166001600160a01b03909316929092179091558301518392506002820190611ed89082612668565b5060608201516003820190611eed9082612668565b506080820151600482015560a08201516005820190611f0c9082612668565b5060c08201516006820190611f219082612668565b5060e08201516007820190611f369082612668565b50505080602001516001600160a01b031681600001517f92b0dfc54afa4c0aeea7f4df9a5a1bb9ea514d6a4389654c9777b5f1a4b846438360400151846060015185608001518660a001518760c001518860e00151604051611f9d96959493929190612728565b60405180910390a350505050505050565b604080516101008101825260008082526020820181905291810182905260608101829052608081018290529060a0820190815260200160008152602001600081525090565b80356001600160a01b038116811461200a57600080fd5b919050565b6000806040838503121561202257600080fd5b61202b83611ff3565b946020939093013593505050565b6000815180845260005b8181101561205f57602081850181015186830182015201612043565b506000602082860101526020601f19601f83011685010191505092915050565b8881526001600160a01b0388166020820152610100604082018190526000906120aa8382018a612039565b905082810360608401526120be8189612039565b905086608084015282810360a08401526120d88187612039565b905082810360c08401526120ec8186612039565b905082810360e08401526121008185612039565b9b9a5050505050505050505050565b60006020828403121561212157600080fd5b5035919050565b634e487b7160e01b600052602160045260246000fd5b6006811061215c57634e487b7160e01b600052602160045260246000fd5b9052565b80518252602081015160018060a01b0380821660208501528060408401511660408501525050606081015160608301526080810151608083015260a08101516121ac60a084018261213e565b5060c0818101519083015260e090810151910152565b61010081016121d18284612160565b92915050565b8881526001600160a01b038881166020830152871660408201526060810186905260808101859052610100810161221160a083018661213e565b60c082019390935260e001529695505050505050565b60006020828403121561223957600080fd5b61224282611ff3565b9392505050565b6020808252825182820181905260009190848201906040850190845b8181101561228c57612278838551612160565b928401926101009290920191600101612265565b50909695505050505050565b600080604083850312156122ab57600080fd5b50508035926020909101359150565b60006020808301818452808551808352604092508286019150828160051b87010184880160005b838110156123b057603f19898403018552815180518452878101516001600160a01b031688850152868101516101008886018190529061232382870182612039565b9150506060808301518683038288015261233d8382612039565b92505050608080830151818701525060a080830151868303828801526123638382612039565b9250505060c0808301518683038288015261237e8382612039565b9250505060e0808301519250858203818701525061239c8183612039565b9689019694505050908601906001016122e1565b509098975050505050505050565b634e487b7160e01b600052604160045260246000fd5b600082601f8301126123e557600080fd5b813567ffffffffffffffff80821115612400576124006123be565b604051601f8301601f19908116603f01168101908282118183101715612428576124286123be565b8160405283815286602085880101111561244157600080fd5b836020870160208301376000602085830101528094505050505092915050565b60008060008060008060c0878903121561247a57600080fd5b863567ffffffffffffffff8082111561249257600080fd5b61249e8a838b016123d4565b975060208901359150808211156124b457600080fd5b6124c08a838b016123d4565b96506040890135955060608901359150808211156124dd57600080fd5b6124e98a838b016123d4565b945060808901359150808211156124ff57600080fd5b61250b8a838b016123d4565b935060a089013591508082111561252157600080fd5b5061252e89828a016123d4565b9150509295509295509295565b600181811c9082168061254f57607f821691505b60208210810361256f57634e487b7160e01b600052602260045260246000fd5b50919050565b634e487b7160e01b600052601160045260246000fd5b808201808211156121d1576121d1612575565b6000600182016125b0576125b0612575565b5060010190565b634e487b7160e01b600052603260045260246000fd5b818103818111156121d1576121d1612575565b80820281158282048414176121d1576121d1612575565b8381526020810183905260608101612612604083018461213e565b949350505050565b601f82111561144657600081815260208120601f850160051c810160208610156126415750805b601f850160051c820191505b818110156126605782815560010161264d565b505050505050565b815167ffffffffffffffff811115612682576126826123be565b61269681612690845461253b565b8461261a565b602080601f8311600181146126cb57600084156126b35750858301515b600019600386901b1c1916600185901b178555612660565b600085815260208120601f198616915b828110156126fa578886015182559484019460019091019084016126db565b50858210156127185787850151600019600388901b60f8161c191681555b5050505050600190811b01905550565b60c08152600061273b60c0830189612039565b828103602084015261274d8189612039565b905086604084015282810360608401526127678187612039565b9050828103608084015261277b8186612039565b905082810360a084015261278f8185612039565b999850505050505050505056fea26469706673582212200a71646a5ba68f11e244aa9220d7798edb95d92afc1774c79713dc4bbc4f7dc064736f6c63430008110033",
  "linkReferences": {},
  "deployedLinkReferences": {}
}