{
  "_format": "hh-sol-artifact-1",
  "contractName": "RemoteSafeTradingEcommersePlatformContract",
  "sourceName": "contracts/SafeRemotePurchase.sol",
  "abi": [
    {
      "inputs": [],
      "stateMutability": "nonpayable",
      "type": "constructor"
    },
    {
      "inputs": [],
      "name": "InsufficientDeposit",
      "type": "error"
    },
    {
      "inputs": [],
      "name": "InvalidState",
      "type": "error"
    },
    {
      "inputs": [],
      "name": "OnlyBuyer",
      "type": "error"
    },
    {
      "inputs": [],
      "name": "OnlySeller",
      "type": "error"
    },
    {
      "inputs": [],
      "name": "PurchaseTransactionNoLongerExist",
      "type": "error"
    },
    {
      "inputs": [],
      "name": "SellerCanNotBuyOwnProduct",
      "type": "error"
    },
    {
      "inputs": [],
      "name": "ValueNotEven",
      "type": "error"
    },
    {
      "anonymous": false,
      "inputs": [
        {
          "indexed": false,
          "internalType": "uint256",
          "name": "purchaseID",
          "type": "uint256"
        },
        {
          "indexed": false,
          "internalType": "address",
          "name": "sellerAddress",
          "type": "address"
        }
      ],
      "name": "BuyerConfirmPurchase",
      "type": "event"
    },
    {
      "anonymous": false,
      "inputs": [
        {
          "indexed": false,
          "internalType": "uint256",
          "name": "purchaseID",
          "type": "uint256"
        },
        {
          "indexed": false,
          "internalType": "address",
          "name": "sellerAddress",
          "type": "address"
        }
      ],
      "name": "BuyerConfirmReceivingProduct",
      "type": "event"
    },
    {
      "anonymous": false,
      "inputs": [
        {
          "indexed": true,
          "internalType": "uint256",
          "name": "productId",
          "type": "uint256"
        },
        {
          "indexed": true,
          "internalType": "address",
          "name": "seller",
          "type": "address"
        },
        {
          "indexed": false,
          "internalType": "string",
          "name": "seller_name",
          "type": "string"
        },
        {
          "indexed": false,
          "internalType": "string",
          "name": "name",
          "type": "string"
        },
        {
          "indexed": false,
          "internalType": "uint256",
          "name": "price",
          "type": "uint256"
        },
        {
          "indexed": false,
          "internalType": "string",
          "name": "description",
          "type": "string"
        },
        {
          "indexed": false,
          "internalType": "string",
          "name": "image",
          "type": "string"
        },
        {
          "indexed": false,
          "internalType": "string",
          "name": "category",
          "type": "string"
        }
      ],
      "name": "ProductCreated",
      "type": "event"
    },
    {
      "anonymous": false,
      "inputs": [
        {
          "indexed": true,
          "internalType": "uint256",
          "name": "purchaseId",
          "type": "uint256"
        },
        {
          "indexed": true,
          "internalType": "address",
          "name": "buyer",
          "type": "address"
        },
        {
          "indexed": true,
          "internalType": "address",
          "name": "seller",
          "type": "address"
        },
        {
          "indexed": false,
          "internalType": "uint256",
          "name": "productId",
          "type": "uint256"
        },
        {
          "indexed": false,
          "internalType": "uint256",
          "name": "quantity",
          "type": "uint256"
        },
        {
          "indexed": false,
          "internalType": "enum RemoteSafeTradingEcommersePlatformContract.State",
          "name": "status",
          "type": "uint8"
        }
      ],
      "name": "PurchaseCreated",
      "type": "event"
    },
    {
      "anonymous": false,
      "inputs": [
        {
          "indexed": false,
          "internalType": "uint256",
          "name": "purchaseID",
          "type": "uint256"
        },
        {
          "indexed": false,
          "internalType": "address",
          "name": "buyerAddress",
          "type": "address"
        }
      ],
      "name": "SellerAcknowledgePurchase",
      "type": "event"
    },
    {
      "inputs": [
        {
          "internalType": "uint256",
          "name": "_purchase_id",
          "type": "uint256"
        }
      ],
      "name": "buyerConfirmPurchase",
      "outputs": [],
      "stateMutability": "payable",
      "type": "function"
    },
    {
      "inputs": [
        {
          "internalType": "uint256",
          "name": "_purchase_id",
          "type": "uint256"
        }
      ],
      "name": "buyerConfirmReceivingProduct",
      "outputs": [],
      "stateMutability": "nonpayable",
      "type": "function"
    },
    {
      "inputs": [
        {
          "internalType": "uint256",
          "name": "_purchase_id",
          "type": "uint256"
        }
      ],
      "name": "buyerDiscardInterestForProduct",
      "outputs": [],
      "stateMutability": "nonpayable",
      "type": "function"
    },
    {
      "inputs": [
        {
          "internalType": "uint256",
          "name": "_productId",
          "type": "uint256"
        },
        {
          "internalType": "uint256",
          "name": "_quantity",
          "type": "uint256"
        }
      ],
      "name": "buyerIndicateInterestToBuyProduct",
      "outputs": [],
      "stateMutability": "nonpayable",
      "type": "function"
    },
    {
      "inputs": [
        {
          "internalType": "string",
          "name": "_sellerName",
          "type": "string"
        },
        {
          "internalType": "string",
          "name": "_name",
          "type": "string"
        },
        {
          "internalType": "uint256",
          "name": "_priceInWei",
          "type": "uint256"
        },
        {
          "internalType": "string",
          "name": "_description",
          "type": "string"
        },
        {
          "internalType": "string",
          "name": "_image",
          "type": "string"
        },
        {
          "internalType": "string",
          "name": "_category",
          "type": "string"
        }
      ],
      "name": "createProduct",
      "outputs": [],
      "stateMutability": "nonpayable",
      "type": "function"
    },
    {
      "inputs": [
        {
          "internalType": "uint256",
          "name": "_purchase_id",
          "type": "uint256"
        }
      ],
      "name": "getPurchaseByID",
      "outputs": [
        {
          "components": [
            {
              "internalType": "uint256",
              "name": "purchaseId",
              "type": "uint256"
            },
            {
              "internalType": "address",
              "name": "buyer",
              "type": "address"
            },
            {
              "internalType": "address",
              "name": "seller",
              "type": "address"
            },
            {
              "internalType": "uint256",
              "name": "productId",
              "type": "uint256"
            },
            {
              "internalType": "uint256",
              "name": "quantity",
              "type": "uint256"
            },
            {
              "internalType": "enum RemoteSafeTradingEcommersePlatformContract.State",
              "name": "status",
              "type": "uint8"
            },
            {
              "internalType": "uint256",
              "name": "requiredDepositBuyerInWei",
              "type": "uint256"
            },
            {
              "internalType": "uint256",
              "name": "requiredDepositSellerInWei",
              "type": "uint256"
            }
          ],
          "internalType": "struct RemoteSafeTradingEcommersePlatformContract.Purchase",
          "name": "",
          "type": "tuple"
        }
      ],
      "stateMutability": "view",
      "type": "function"
    },
    {
      "inputs": [
        {
          "internalType": "address",
          "name": "buyerAddress",
          "type": "address"
        }
      ],
      "name": "getPurchaseTransactionBuyer",
      "outputs": [
        {
          "components": [
            {
              "internalType": "uint256",
              "name": "purchaseId",
              "type": "uint256"
            },
            {
              "internalType": "address",
              "name": "buyer",
              "type": "address"
            },
            {
              "internalType": "address",
              "name": "seller",
              "type": "address"
            },
            {
              "internalType": "uint256",
              "name": "productId",
              "type": "uint256"
            },
            {
              "internalType": "uint256",
              "name": "quantity",
              "type": "uint256"
            },
            {
              "internalType": "enum RemoteSafeTradingEcommersePlatformContract.State",
              "name": "status",
              "type": "uint8"
            },
            {
              "internalType": "uint256",
              "name": "requiredDepositBuyerInWei",
              "type": "uint256"
            },
            {
              "internalType": "uint256",
              "name": "requiredDepositSellerInWei",
              "type": "uint256"
            }
          ],
          "internalType": "struct RemoteSafeTradingEcommersePlatformContract.Purchase[]",
          "name": "",
          "type": "tuple[]"
        }
      ],
      "stateMutability": "view",
      "type": "function"
    },
    {
      "inputs": [
        {
          "internalType": "address",
          "name": "sellerAddress",
          "type": "address"
        }
      ],
      "name": "getPurchaseTransactionSeller",
      "outputs": [
        {
          "components": [
            {
              "internalType": "uint256",
              "name": "purchaseId",
              "type": "uint256"
            },
            {
              "internalType": "address",
              "name": "buyer",
              "type": "address"
            },
            {
              "internalType": "address",
              "name": "seller",
              "type": "address"
            },
            {
              "internalType": "uint256",
              "name": "productId",
              "type": "uint256"
            },
            {
              "internalType": "uint256",
              "name": "quantity",
              "type": "uint256"
            },
            {
              "internalType": "enum RemoteSafeTradingEcommersePlatformContract.State",
              "name": "status",
              "type": "uint8"
            },
            {
              "internalType": "uint256",
              "name": "requiredDepositBuyerInWei",
              "type": "uint256"
            },
            {
              "internalType": "uint256",
              "name": "requiredDepositSellerInWei",
              "type": "uint256"
            }
          ],
          "internalType": "struct RemoteSafeTradingEcommersePlatformContract.Purchase[]",
          "name": "",
          "type": "tuple[]"
        }
      ],
      "stateMutability": "view",
      "type": "function"
    },
    {
      "inputs": [
        {
          "internalType": "address",
          "name": "sellerAddress",
          "type": "address"
        }
      ],
      "name": "getTotalRevenueForSeller",
      "outputs": [
        {
          "internalType": "uint256",
          "name": "",
          "type": "uint256"
        }
      ],
      "stateMutability": "view",
      "type": "function"
    },
    {
      "inputs": [
        {
          "internalType": "address",
          "name": "buyerAddress",
          "type": "address"
        }
      ],
      "name": "getTotalSpendingForBuyer",
      "outputs": [
        {
          "internalType": "uint256",
          "name": "",
          "type": "uint256"
        }
      ],
      "stateMutability": "view",
      "type": "function"
    },
    {
      "inputs": [],
      "name": "productCount",
      "outputs": [
        {
          "internalType": "uint256",
          "name": "",
          "type": "uint256"
        }
      ],
      "stateMutability": "view",
      "type": "function"
    },
    {
      "inputs": [
        {
          "internalType": "uint256",
          "name": "",
          "type": "uint256"
        }
      ],
      "name": "productListings",
      "outputs": [
        {
          "internalType": "uint256",
          "name": "productId",
          "type": "uint256"
        },
        {
          "internalType": "address",
          "name": "seller",
          "type": "address"
        },
        {
          "internalType": "string",
          "name": "sellerName",
          "type": "string"
        },
        {
          "internalType": "string",
          "name": "name",
          "type": "string"
        },
        {
          "internalType": "uint256",
          "name": "priceInWei",
          "type": "uint256"
        },
        {
          "internalType": "string",
          "name": "description",
          "type": "string"
        },
        {
          "internalType": "string",
          "name": "image",
          "type": "string"
        },
        {
          "internalType": "string",
          "name": "category",
          "type": "string"
        }
      ],
      "stateMutability": "view",
      "type": "function"
    },
    {
      "inputs": [],
      "name": "purchaseCount",
      "outputs": [
        {
          "internalType": "uint256",
          "name": "",
          "type": "uint256"
        }
      ],
      "stateMutability": "view",
      "type": "function"
    },
    {
      "inputs": [
        {
          "internalType": "uint256",
          "name": "",
          "type": "uint256"
        }
      ],
      "name": "purchaseHistory",
      "outputs": [
        {
          "internalType": "uint256",
          "name": "purchaseId",
          "type": "uint256"
        },
        {
          "internalType": "address",
          "name": "buyer",
          "type": "address"
        },
        {
          "internalType": "address",
          "name": "seller",
          "type": "address"
        },
        {
          "internalType": "uint256",
          "name": "productId",
          "type": "uint256"
        },
        {
          "internalType": "uint256",
          "name": "quantity",
          "type": "uint256"
        },
        {
          "internalType": "enum RemoteSafeTradingEcommersePlatformContract.State",
          "name": "status",
          "type": "uint8"
        },
        {
          "internalType": "uint256",
          "name": "requiredDepositBuyerInWei",
          "type": "uint256"
        },
        {
          "internalType": "uint256",
          "name": "requiredDepositSellerInWei",
          "type": "uint256"
        }
      ],
      "stateMutability": "view",
      "type": "function"
    },
    {
      "inputs": [],
      "name": "returnAllProducts",
      "outputs": [
        {
          "components": [
            {
              "internalType": "uint256",
              "name": "productId",
              "type": "uint256"
            },
            {
              "internalType": "address",
              "name": "seller",
              "type": "address"
            },
            {
              "internalType": "string",
              "name": "sellerName",
              "type": "string"
            },
            {
              "internalType": "string",
              "name": "name",
              "type": "string"
            },
            {
              "internalType": "uint256",
              "name": "priceInWei",
              "type": "uint256"
            },
            {
              "internalType": "string",
              "name": "description",
              "type": "string"
            },
            {
              "internalType": "string",
              "name": "image",
              "type": "string"
            },
            {
              "internalType": "string",
              "name": "category",
              "type": "string"
            }
          ],
          "internalType": "struct RemoteSafeTradingEcommersePlatformContract.Product[]",
          "name": "",
          "type": "tuple[]"
        }
      ],
      "stateMutability": "view",
      "type": "function"
    },
    {
      "inputs": [],
      "name": "returnAllProductsBelongToSeller",
      "outputs": [
        {
          "components": [
            {
              "internalType": "uint256",
              "name": "productId",
              "type": "uint256"
            },
            {
              "internalType": "address",
              "name": "seller",
              "type": "address"
            },
            {
              "internalType": "string",
              "name": "sellerName",
              "type": "string"
            },
            {
              "internalType": "string",
              "name": "name",
              "type": "string"
            },
            {
              "internalType": "uint256",
              "name": "priceInWei",
              "type": "uint256"
            },
            {
              "internalType": "string",
              "name": "description",
              "type": "string"
            },
            {
              "internalType": "string",
              "name": "image",
              "type": "string"
            },
            {
              "internalType": "string",
              "name": "category",
              "type": "string"
            }
          ],
          "internalType": "struct RemoteSafeTradingEcommersePlatformContract.Product[]",
          "name": "",
          "type": "tuple[]"
        }
      ],
      "stateMutability": "view",
      "type": "function"
    },
    {
      "inputs": [
        {
          "internalType": "uint256",
          "name": "_purchase_id",
          "type": "uint256"
        }
      ],
      "name": "sellerAbortPurchaseAfterAcknowledge",
      "outputs": [],
      "stateMutability": "nonpayable",
      "type": "function"
    },
    {
      "inputs": [
        {
          "internalType": "uint256",
          "name": "_purchase_id",
          "type": "uint256"
        }
      ],
      "name": "sellerAbortPurchaseBeforeAcknowledge",
      "outputs": [],
      "stateMutability": "nonpayable",
      "type": "function"
    },
    {
      "inputs": [
        {
          "internalType": "uint256",
          "name": "_purchase_id",
          "type": "uint256"
        }
      ],
      "name": "sellerAcknowledgeBuyerInterest",
      "outputs": [],
      "stateMutability": "payable",
      "type": "function"
    },
    {
      "inputs": [
        {
          "internalType": "address",
          "name": "",
          "type": "address"
        },
        {
          "internalType": "uint256",
          "name": "",
          "type": "uint256"
        }
      ],
      "name": "sellerListings",
      "outputs": [
        {
          "internalType": "uint256",
          "name": "productId",
          "type": "uint256"
        },
        {
          "internalType": "address",
          "name": "seller",
          "type": "address"
        },
        {
          "internalType": "string",
          "name": "sellerName",
          "type": "string"
        },
        {
          "internalType": "string",
          "name": "name",
          "type": "string"
        },
        {
          "internalType": "uint256",
          "name": "priceInWei",
          "type": "uint256"
        },
        {
          "internalType": "string",
          "name": "description",
          "type": "string"
        },
        {
          "internalType": "string",
          "name": "image",
          "type": "string"
        },
        {
          "internalType": "string",
          "name": "category",
          "type": "string"
        }
      ],
      "stateMutability": "view",
      "type": "function"
    },
    {
      "inputs": [
        {
          "internalType": "uint256",
          "name": "_purchase_id",
          "type": "uint256"
        }
      ],
      "name": "sellerReclaimDepositPlusProductPayment",
      "outputs": [],
      "stateMutability": "nonpayable",
      "type": "function"
    }
  ],
  "bytecode": "0x608060405234801561001057600080fd5b50600280546001600160a01b03191633179055612b75806100326000396000f3fe60806040526004361061012a5760003560e01c80635dfe6f10116100ab5780638f71c2641161006f5780638f71c264146103a45780639d7c9e3e146103c45780639f259028146103d9578063c8dca31e146103f9578063cec96c381461040c578063e0f6ef871461042c57600080fd5b80635dfe6f1014610304578063616e7a5814610324578063744c05c3146103445780637c54a88614610364578063866abc551461038457600080fd5b806343180647116100f2578063431806471461026057806343bb5a451461027557806345fc6455146102a257806355c7d72c146102c25780635c1bedc4146102e457600080fd5b8063054564f01461012f57806306e41ded1461016c57806320af01fd1461019a5780632829fc53146101c75780632b85ed9c1461024a575b600080fd5b34801561013b57600080fd5b5061014f61014a36600461236a565b610442565b6040516101639897969594939291906123da565b60405180910390f35b34801561017857600080fd5b5061018c61018736600461246a565b610756565b604051908152602001610163565b3480156101a657600080fd5b506101ba6101b536600461248c565b61087a565b604051610163919061253f565b3480156101d357600080fd5b506102366101e236600461248c565b60056020819052600091825260409091208054600182015460028301546003840154600485015495850154600686015460079096015494966001600160a01b03948516969490931694919360ff9091169188565b604051610163989796959493929190612554565b34801561025657600080fd5b5061018c60015481565b61027361026e36600461248c565b610929565b005b34801561028157600080fd5b5061029561029036600461246a565b610a48565b60405161016391906125a4565b3480156102ae57600080fd5b506102736102bd3660046125f3565b610c25565b3480156102ce57600080fd5b506102d76111d5565b6040516101639190612615565b3480156102f057600080fd5b5061018c6102ff36600461246a565b611544565b34801561031057600080fd5b5061027361031f36600461248c565b611656565b34801561033057600080fd5b5061014f61033f36600461248c565b61170f565b34801561035057600080fd5b5061027361035f36600461248c565b611755565b34801561037057600080fd5b5061027361037f36600461248c565b611808565b34801561039057600080fd5b5061029561039f36600461246a565b611900565b3480156103b057600080fd5b506102736103bf36600461248c565b611ad3565b3480156103d057600080fd5b506102d7611ba0565b3480156103e557600080fd5b506102736103f436600461248c565b611efb565b61027361040736600461248c565b611f7f565b34801561041857600080fd5b506102736104273660046127bc565b61206b565b34801561043857600080fd5b5061018c60005481565b6004602052816000526040600020818154811061045e57600080fd5b60009182526020909120600890910201805460018201546002830180549295506001600160a01b0390911693509061049590612896565b80601f01602080910402602001604051908101604052809291908181526020018280546104c190612896565b801561050e5780601f106104e35761010080835404028352916020019161050e565b820191906000526020600020905b8154815290600101906020018083116104f157829003601f168201915b50505050509080600301805461052390612896565b80601f016020809104026020016040519081016040528092919081815260200182805461054f90612896565b801561059c5780601f106105715761010080835404028352916020019161059c565b820191906000526020600020905b81548152906001019060200180831161057f57829003601f168201915b5050505050908060040154908060050180546105b790612896565b80601f01602080910402602001604051908101604052809291908181526020018280546105e390612896565b80156106305780601f1061060557610100808354040283529160200191610630565b820191906000526020600020905b81548152906001019060200180831161061357829003601f168201915b50505050509080600601805461064590612896565b80601f016020809104026020016040519081016040528092919081815260200182805461067190612896565b80156106be5780601f10610693576101008083540402835291602001916106be565b820191906000526020600020905b8154815290600101906020018083116106a157829003601f168201915b5050505050908060070180546106d390612896565b80601f01602080910402602001604051908101604052809291908181526020018280546106ff90612896565b801561074c5780601f106107215761010080835404028352916020019161074c565b820191906000526020600020905b81548152906001019060200180831161072f57829003601f168201915b5050505050905088565b6002546000906001600160a01b0316331461078c5760405162461bcd60e51b8152600401610783906128d0565b60405180910390fd5b600060015b6001548111610871576000818152600560205260409020600201546001600160a01b0385811691161480156107ea5750600081815260056020819052604090912081015460ff16818111156107e8576107e86124a5565b145b1561085f57600081815260056020526040902060039081015461080f9060019061292e565b8154811061081f5761081f612941565b90600052602060002090600802016004015460056000838152602001908152602001600020600401546108529190612957565b61085c908361296e565b91505b8061086981612981565b915050610791565b5090505b919050565b61088261230e565b6000828152600560208181526040928390208351610100810185528154815260018201546001600160a01b039081169382019390935260028201549092169382019390935260038301546060820152600483015460808201528282015490929160a084019160ff16908111156108fa576108fa6124a5565b600581111561090b5761090b6124a5565b81526006820154602082015260079091015460409091015292915050565b600081815260056020526040902060028101546001600160a01b031661096257604051639662254d60e01b815260040160405180910390fd5b600060058083015460ff169081111561097d5761097d6124a5565b1461099b5760405163baf3f0f760e01b815260040160405180910390fd5b60028101546001600160a01b031633146109c8576040516342e8fb9360e11b815260040160405180910390fd5b806007015434146109ec5760405163070f6eed60e11b815260040160405180910390fd5b60058101805460ff19166001908117909155810154604080518481526001600160a01b0390921660208301527f9ebdb89cec84115ec2b70c5fee2ded2d3b0b67c4cad5814e479ddf816d91f51f91015b60405180910390a15050565b6060600060015b60018054610a5c9161296e565b811015610aa7576000818152600560205260409020600201546001600160a01b03808616911603610a955781610a9181612981565b9250505b80610a9f81612981565b915050610a4f565b5060008167ffffffffffffffff811115610ac357610ac3612719565b604051908082528060200260200182016040528015610afc57816020015b610ae961230e565b815260200190600190039081610ae15790505b509050600060015b60018054610b119161296e565b811015610c1b576000818152600560205260409020600201546001600160a01b03808816911603610c09576000818152600560208181526040928390208351610100810185528154815260018201546001600160a01b039081169382019390935260028201549092169382019390935260038301546060820152600483015460808201528282015490929160a084019160ff1690811115610bb457610bb46124a5565b6005811115610bc557610bc56124a5565b815260200160068201548152602001600782015481525050838381518110610bef57610bef612941565b60200260200101819052508180610c0590612981565b9250505b80610c1381612981565b915050610b04565b5090949350505050565b600082118015610c3757506000548211155b610c7c5760405162461bcd60e51b8152602060048201526016602482015275141c9bd91d58dd08191bd95cc81b9bdd08195e1a5cdd60521b6044820152606401610783565b60006003610c8b60018561292e565b81548110610c9b57610c9b612941565b906000526020600020906008020160405180610100016040529081600082015481526020016001820160009054906101000a90046001600160a01b03166001600160a01b03166001600160a01b03168152602001600282018054610cfe90612896565b80601f0160208091040260200160405190810160405280929190818152602001828054610d2a90612896565b8015610d775780601f10610d4c57610100808354040283529160200191610d77565b820191906000526020600020905b815481529060010190602001808311610d5a57829003601f168201915b50505050508152602001600382018054610d9090612896565b80601f0160208091040260200160405190810160405280929190818152602001828054610dbc90612896565b8015610e095780601f10610dde57610100808354040283529160200191610e09565b820191906000526020600020905b815481529060010190602001808311610dec57829003601f168201915b5050505050815260200160048201548152602001600582018054610e2c90612896565b80601f0160208091040260200160405190810160405280929190818152602001828054610e5890612896565b8015610ea55780601f10610e7a57610100808354040283529160200191610ea5565b820191906000526020600020905b815481529060010190602001808311610e8857829003601f168201915b50505050508152602001600682018054610ebe90612896565b80601f0160208091040260200160405190810160405280929190818152602001828054610eea90612896565b8015610f375780601f10610f0c57610100808354040283529160200191610f37565b820191906000526020600020905b815481529060010190602001808311610f1a57829003601f168201915b50505050508152602001600782018054610f5090612896565b80601f0160208091040260200160405190810160405280929190818152602001828054610f7c90612896565b8015610fc95780601f10610f9e57610100808354040283529160200191610fc9565b820191906000526020600020905b815481529060010190602001808311610fac57829003601f168201915b505050505081525050905080602001516001600160a01b0316336001600160a01b03160361100a5760405163089a9c0b60e31b815260040160405180910390fd5b6001805490600061101a83612981565b919050555060006040518061010001604052806001548152602001336001600160a01b0316815260200183602001516001600160a01b0316815260200185815260200184815260200160006005811115611076576110766124a5565b815260200183608001518561108b9190612957565b611096906003612957565b81526020018360800151856110ab9190612957565b6110b6906002612957565b905260018054600090815260056020818152604092839020855181559085015181850180546001600160a01b03199081166001600160a01b039384161790915593860151600283018054909516911617909255606084015160038301556080840151600483015560a08401518282018054959650869593949193909260ff199091169190849081111561114b5761114b6124a5565b021790555060c0820151816006015560e0820151816007015590505080604001516001600160a01b031681602001516001600160a01b031682600001517f453d784c8814f056ce472d29a9ce8d3e5323675f6cd22743eb24245d8ae2ec27846060015185608001518660a001516040516111c79392919061299a565b60405180910390a450505050565b336000908152600460209081526040808320805482518185028101850190935280835260609492939192909184015b8282101561153b5760008481526020908190206040805161010081018252600886029092018054835260018101546001600160a01b0316938301939093526002830180549293929184019161125890612896565b80601f016020809104026020016040519081016040528092919081815260200182805461128490612896565b80156112d15780601f106112a6576101008083540402835291602001916112d1565b820191906000526020600020905b8154815290600101906020018083116112b457829003601f168201915b505050505081526020016003820180546112ea90612896565b80601f016020809104026020016040519081016040528092919081815260200182805461131690612896565b80156113635780601f1061133857610100808354040283529160200191611363565b820191906000526020600020905b81548152906001019060200180831161134657829003601f168201915b505050505081526020016004820154815260200160058201805461138690612896565b80601f01602080910402602001604051908101604052809291908181526020018280546113b290612896565b80156113ff5780601f106113d4576101008083540402835291602001916113ff565b820191906000526020600020905b8154815290600101906020018083116113e257829003601f168201915b5050505050815260200160068201805461141890612896565b80601f016020809104026020016040519081016040528092919081815260200182805461144490612896565b80156114915780601f1061146657610100808354040283529160200191611491565b820191906000526020600020905b81548152906001019060200180831161147457829003601f168201915b505050505081526020016007820180546114aa90612896565b80601f01602080910402602001604051908101604052809291908181526020018280546114d690612896565b80156115235780601f106114f857610100808354040283529160200191611523565b820191906000526020600020905b81548152906001019060200180831161150657829003601f168201915b50505050508152505081526020019060010190611204565b50505050905090565b6002546000906001600160a01b031633146115715760405162461bcd60e51b8152600401610783906128d0565b600060015b6001548111610871576000818152600560205260409020600101546001600160a01b0385811691161480156115cf5750600081815260056020819052604090912081015460ff16818111156115cd576115cd6124a5565b145b156116445760008181526005602052604090206003908101546115f49060019061292e565b8154811061160457611604612941565b90600052602060002090600802016004015460056000838152602001908152602001600020600401546116379190612957565b611641908361296e565b91505b8061164e81612981565b915050611576565b6000818152600560205260409020600360058083015460ff169081111561167f5761167f6124a5565b1461169d5760405163baf3f0f760e01b815260040160405180910390fd5b60028101546001600160a01b031633146116ca576040516386efbb5560e01b815260040160405180910390fd5b6005818101805460ff19169091179055600681015460405133916108fc811502916000818181858888f1935050505015801561170a573d6000803e3d6000fd5b505050565b6003818154811061171f57600080fd5b60009182526020909120600890910201805460018201546002830180549294506001600160a01b03909116929161049590612896565b6000818152600560205260409020600160058083015460ff169081111561177e5761177e6124a5565b1461179c5760405163baf3f0f760e01b815260040160405180910390fd5b60028101546001600160a01b031633146117c9576040516342e8fb9360e11b815260040160405180910390fd5b60058101805460ff19166004179055600781015460405133916108fc811502916000818181858888f1935050505015801561170a573d6000803e3d6000fd5b6000818152600560205260409020600260058083015460ff1690811115611831576118316124a5565b1461184f5760405163baf3f0f760e01b815260040160405180910390fd5b60018101546001600160a01b0316331461187c576040516386efbb5560e01b815260040160405180910390fd5b60058101805460ff19166003179055600781015460405133916108fc811502916000818181858888f193505050501580156118bb573d6000803e3d6000fd5b506002810154604080518481526001600160a01b0390921660208301527f15d848818f1c91d37b40b9dda9b73c00755457572813583fe4c62e6fd66584ae9101610a3c565b6060600060015b600180546119149161296e565b81101561195f576000818152600560205260409020600101546001600160a01b0380861691160361194d578161194981612981565b9250505b8061195781612981565b915050611907565b5060008167ffffffffffffffff81111561197b5761197b612719565b6040519080825280602002602001820160405280156119b457816020015b6119a161230e565b8152602001906001900390816119995790505b509050600060015b600180546119c99161296e565b811015610c1b576000818152600560205260409020600101546001600160a01b03808816911603611ac1576000818152600560208181526040928390208351610100810185528154815260018201546001600160a01b039081169382019390935260028201549092169382019390935260038301546060820152600483015460808201528282015490929160a084019160ff1690811115611a6c57611a6c6124a5565b6005811115611a7d57611a7d6124a5565b815260200160068201548152602001600782015481525050838381518110611aa757611aa7612941565b60200260200101819052508180611abd90612981565b9250505b80611acb81612981565b9150506119bc565b60008181526005602052604081209060058083015460ff1690811115611afb57611afb6124a5565b14611b195760405163baf3f0f760e01b815260040160405180910390fd5b60018101546001600160a01b03163314611b46576040516386efbb5560e01b815260040160405180910390fd5b50600090815260056020819052604082208281556001810180546001600160a01b031990811690915560028201805490911690556003810183905560048101839055908101805460ff191690556006810182905560070155565b60606003805480602002602001604051908101604052809291908181526020016000905b8282101561153b5760008481526020908190206040805161010081018252600886029092018054835260018101546001600160a01b03169383019390935260028301805492939291840191611c1890612896565b80601f0160208091040260200160405190810160405280929190818152602001828054611c4490612896565b8015611c915780601f10611c6657610100808354040283529160200191611c91565b820191906000526020600020905b815481529060010190602001808311611c7457829003601f168201915b50505050508152602001600382018054611caa90612896565b80601f0160208091040260200160405190810160405280929190818152602001828054611cd690612896565b8015611d235780601f10611cf857610100808354040283529160200191611d23565b820191906000526020600020905b815481529060010190602001808311611d0657829003601f168201915b5050505050815260200160048201548152602001600582018054611d4690612896565b80601f0160208091040260200160405190810160405280929190818152602001828054611d7290612896565b8015611dbf5780601f10611d9457610100808354040283529160200191611dbf565b820191906000526020600020905b815481529060010190602001808311611da257829003601f168201915b50505050508152602001600682018054611dd890612896565b80601f0160208091040260200160405190810160405280929190818152602001828054611e0490612896565b8015611e515780601f10611e2657610100808354040283529160200191611e51565b820191906000526020600020905b815481529060010190602001808311611e3457829003601f168201915b50505050508152602001600782018054611e6a90612896565b80601f0160208091040260200160405190810160405280929190818152602001828054611e9690612896565b8015611ee35780601f10611eb857610100808354040283529160200191611ee3565b820191906000526020600020905b815481529060010190602001808311611ec657829003601f168201915b50505050508152505081526020019060010190611bc4565b60008181526005602052604081209060058083015460ff1690811115611f2357611f236124a5565b14611f415760405163baf3f0f760e01b815260040160405180910390fd5b60028101546001600160a01b03163314611f6e576040516342e8fb9360e11b815260040160405180910390fd5b600501805460ff1916600417905550565b6000818152600560205260409020600160058083015460ff1690811115611fa857611fa86124a5565b14611fc65760405163baf3f0f760e01b815260040160405180910390fd5b60018101546001600160a01b03163314611ff3576040516386efbb5560e01b815260040160405180910390fd5b806006015434146120175760405163070f6eed60e11b815260040160405180910390fd5b60058101805460ff19166002908117909155810154604080518481526001600160a01b0390921660208301527fdb4cf8c0535b6a3bc48d6532c850157ab1fde2e331b6959f293be876b9ef36e69101610a3c565b60008054908061207a83612981565b909155505060408051610100810182526000805482523360208301908152928201898152606083018990526080830188905260a0830187905260c0830186905260e0830185905260038054600181018255925282517fc2575a0e9e593c00f959f8c92f12db2869c3395a3b0502d05e2516446f71f85b600890930292830190815593517fc2575a0e9e593c00f959f8c92f12db2869c3395a3b0502d05e2516446f71f85c830180546001600160a01b0319166001600160a01b03909216919091179055519192839290917fc2575a0e9e593c00f959f8c92f12db2869c3395a3b0502d05e2516446f71f85d01906121719082612a0b565b50606082015160038201906121869082612a0b565b506080820151600482015560a082015160058201906121a59082612a0b565b5060c082015160068201906121ba9082612a0b565b5060e082015160078201906121cf9082612a0b565b50503360009081526004602090815260408083208054600180820183559185529383902086516008909502019384559185015191830180546001600160a01b0319166001600160a01b039093169290921790915583015183925060028201906122389082612a0b565b506060820151600382019061224d9082612a0b565b506080820151600482015560a0820151600582019061226c9082612a0b565b5060c082015160068201906122819082612a0b565b5060e082015160078201906122969082612a0b565b50505080602001516001600160a01b031681600001517f92b0dfc54afa4c0aeea7f4df9a5a1bb9ea514d6a4389654c9777b5f1a4b846438360400151846060015185608001518660a001518760c001518860e001516040516122fd96959493929190612acb565b60405180910390a350505050505050565b604080516101008101825260008082526020820181905291810182905260608101829052608081018290529060a0820190815260200160008152602001600081525090565b80356001600160a01b038116811461087557600080fd5b6000806040838503121561237d57600080fd5b61238683612353565b946020939093013593505050565b6000815180845260005b818110156123ba5760208185018101518683018201520161239e565b506000602082860101526020601f19601f83011685010191505092915050565b8881526001600160a01b0388166020820152610100604082018190526000906124058382018a612394565b905082810360608401526124198189612394565b905086608084015282810360a08401526124338187612394565b905082810360c08401526124478186612394565b905082810360e084015261245b8185612394565b9b9a5050505050505050505050565b60006020828403121561247c57600080fd5b61248582612353565b9392505050565b60006020828403121561249e57600080fd5b5035919050565b634e487b7160e01b600052602160045260246000fd5b600681106124d957634e487b7160e01b600052602160045260246000fd5b9052565b80518252602081015160018060a01b0380821660208501528060408401511660408501525050606081015160608301526080810151608083015260a081015161252960a08401826124bb565b5060c0818101519083015260e090810151910152565b610100810161254e82846124dd565b92915050565b8881526001600160a01b038881166020830152871660408201526060810186905260808101859052610100810161258e60a08301866124bb565b60c082019390935260e001529695505050505050565b6020808252825182820181905260009190848201906040850190845b818110156125e7576125d38385516124dd565b9284019261010092909201916001016125c0565b50909695505050505050565b6000806040838503121561260657600080fd5b50508035926020909101359150565b60006020808301818452808551808352604092508286019150828160051b87010184880160005b8381101561270b57603f19898403018552815180518452878101516001600160a01b031688850152868101516101008886018190529061267e82870182612394565b915050606080830151868303828801526126988382612394565b92505050608080830151818701525060a080830151868303828801526126be8382612394565b9250505060c080830151868303828801526126d98382612394565b9250505060e080830151925085820381870152506126f78183612394565b96890196945050509086019060010161263c565b509098975050505050505050565b634e487b7160e01b600052604160045260246000fd5b600082601f83011261274057600080fd5b813567ffffffffffffffff8082111561275b5761275b612719565b604051601f8301601f19908116603f0116810190828211818310171561278357612783612719565b8160405283815286602085880101111561279c57600080fd5b836020870160208301376000602085830101528094505050505092915050565b60008060008060008060c087890312156127d557600080fd5b863567ffffffffffffffff808211156127ed57600080fd5b6127f98a838b0161272f565b9750602089013591508082111561280f57600080fd5b61281b8a838b0161272f565b965060408901359550606089013591508082111561283857600080fd5b6128448a838b0161272f565b9450608089013591508082111561285a57600080fd5b6128668a838b0161272f565b935060a089013591508082111561287c57600080fd5b5061288989828a0161272f565b9150509295509295509295565b600181811c908216806128aa57607f821691505b6020821081036128ca57634e487b7160e01b600052602260045260246000fd5b50919050565b60208082526028908201527f596f75722061726520746865206f776e6572206f662074686520736d6172742060408201526718dbdb9d1c9858dd60c21b606082015260800190565b634e487b7160e01b600052601160045260246000fd5b8181038181111561254e5761254e612918565b634e487b7160e01b600052603260045260246000fd5b808202811582820484141761254e5761254e612918565b8082018082111561254e5761254e612918565b60006001820161299357612993612918565b5060010190565b83815260208101839052606081016129b560408301846124bb565b949350505050565b601f82111561170a57600081815260208120601f850160051c810160208610156129e45750805b601f850160051c820191505b81811015612a03578281556001016129f0565b505050505050565b815167ffffffffffffffff811115612a2557612a25612719565b612a3981612a338454612896565b846129bd565b602080601f831160018114612a6e5760008415612a565750858301515b600019600386901b1c1916600185901b178555612a03565b600085815260208120601f198616915b82811015612a9d57888601518255948401946001909101908401612a7e565b5085821015612abb5787850151600019600388901b60f8161c191681555b5050505050600190811b01905550565b60c081526000612ade60c0830189612394565b8281036020840152612af08189612394565b90508660408401528281036060840152612b0a8187612394565b90508281036080840152612b1e8186612394565b905082810360a0840152612b328185612394565b999850505050505050505056fea26469706673582212204069818aceb0c2992260be9fbc70cf893efbd86bfe168c11739c93eef705f3f664736f6c63430008110033",
  "linkReferences": {},
  "deployedLinkReferences": {}
}